:020000040800F2
:1000000000220024B1020008AD1F00081D030008F3
:10001000A91F00082F030008EB27000800000000BC
:100020000000000000000000000000006D22000839
:10003000ED03000800000000AF1F00087122000857
:10004000CB020008CB020008CB020008CB0200085C
:10005000CB020008CB020008CB020008CB0200084C
:10006000CB020008CB020008CB020008CB0200083C
:10007000CB020008CB020008CB020008CB0200082C
:10008000CB020008CB020008CB020008CB0200081C
:10009000CB020008CB020008CB020008CB0200080C
:1000A000CB020008CB020008CB020008CB020008FC
:1000B0009D250008CB020008CB020008CB020008F7
:1000C000CB020008CB020008CB020008CB020008DC
:1000D000CB02000851260008CB0200086126000868
:1000E000CB020008CB02000800000000CB02000891
:1000F000CB020008CB020008CB020008CB020008AC
:10010000CB020008CB020008CB020008CB0200089B
:10011000CB020008CB020008CB020008CB0200088B
:10012000CB020008CB020008CB020008CB0200087B
:10013000CB020008CB020008CB020008CB0200086B
:1001400000000000000000000000000000000000AF
:10015000CB020008CB020008CB020008CB0200084B
:10016000CB020008CB020008CB020008CB0200083B
:10017000CB020008CB020008CB0200080000000000
:10018000CB020008CB020008CB020008CB0200081B
:10019000CB020008CB020008CB020008CB0200080B
:1001A000CB020008CB020008CB020008CB020008FB
:1001B000CB020008CB020008CB020008CB020008EB
:1001C000CB020008CB020008CB020008CB020008DB
:1001D000CB020008CB020008CB020008CB020008CB
:1001E000CB020008CB020008CB020008CB020008BB
:1001F000CB020008CB020008CB020008CB020008AB
:10020000CB020008CB020008CB020008CB0200089A
:10021000CB020008CB020008CB020008CB0200088A
:10022000CB020008CB020008CB020008000000004F
:10023000CB020008CB02000800000000CB0200083F
:10024000CB020008CB020008CB020008CB0200085A
:10025000CB020008CB020008CB020008CB0200084A
:10026000CB020008CB020008CB020008CB0200083A
:10027000CB020008CB020008CB02000800000000FF
:10028000CB020008CB020008CB02000800000000EF
:1002900000000000CB020008DFF810D000F02CF8BE
:1002A000004800470B2A0008AFF30080002200241A
:1002B0000648804706480047FEE7FEE7FEE7FEE700
:1002C000FEE7FEE7FEE7FEE7FEE7FEE7992400080B
:1002D00099020008D2B201E000F8012B491EFBD2BE
:1002E00070470022F6E710B513460A460446194641
:1002F000FFF7F0FF204610BD064C074D06E0E06812
:1003000040F0010394E8070098471034AC42F6D35C
:10031000FFF7C6FF642A0008842A00081EF0040FB5
:100320000CBFEFF30880EFF3098001F0E7BC00BFDA
:10033000FEE7000010B500BF2A48006800F4003056
:1003400000B115E0BFF34F8FBFF36F8F0020264938
:100350000860BFF34F8FBFF36F8F2248006840F4EF
:10036000003020490860BFF34F8FBFF36F8F00BF8D
:1003700000BF1C4B1B6803F4803303B130E0002343
:10038000184C70342360BFF34F8F231F1868C0F3DD
:100390004E3100BFC0F3C90200BF43F6E07303EA69
:1003A00041134FF0404404EA827423430E4C10344E
:1003B000236000BF00BF131EA2F10102EDD10B1E8E
:1003C000A1F10101E6D1BFF34F8F064B1B6843F447
:1003D0008033044C2360BFF34F8FBFF36F8F00BF98
:1003E00010BD000014ED00E050EF00E0704701B9CF
:1003F000704700BFFEE700000348006840F00100BE
:10040000014908607047000020040058F0B50C4610
:100410000021504B98E001268E4006EA0402002A93
:100420007ED04D4E8F0856F827508E07370F0F2677
:10043000BE403540494EB04201D100262DE0484E25
:10044000B04201D1012628E0464EB04201D1022639
:1004500023E0454EB04201D103261EE0434EB04298
:1004600001D1042619E0424EB04201D1052614E024
:10047000404EB04201D106260FE03F4EB04201D1BE
:1004800007260AE03D4EB04201D1082605E03C4E69
:10049000B04201D1092600E00A268F073F0FBE4077
:1004A000AE421FD11E6896431E605E6896435E6032
:1004B0004FF0B046366896434FF0B0473E603E4638
:1004C000766896437E608E07370F0F2606FA07F58B
:1004D000214E8F0856F82760AE431F4F4FEA910C0C
:1004E00047F82C6006684FEA410C032707FA0CF71F
:1004F0003E430660CF0800F1200656F827604F07FC
:100500004FEAD76C0F2707FA0CF7BE434FEAD10C1E
:1005100000F1200747F82C60C6684FEA410C00E064
:1005200011E0032707FA0CF7BE43C66047680126AF
:100530008E40B743476086684FEA410C032707FAAD
:100540000CF7BE438660491C24FA01F6002E7FF4A6
:1005500062AFF0BD80000058080400580000025847
:100560000004025800080258000C025800100258FB
:100570000014025800180258001C025800200258AB
:1005800000240258F8B502460023734DDEE001272F
:100590009F400E6806EA0704002C71D04E68012EB9
:1005A00008D04E68022E05D04E68112E02D04E683B
:1005B000122E13D190685F000326BE40B0435F0047
:1005C000CE68BE4030439060506801269E40B043E4
:1005D0000E79C6F300169E4030435060D0685F002D
:1005E0000326BE40B0435F008E68BE403043D060FB
:1005F0004E68022E02D04E68122E13D1DF0802F18F
:10060000200656F827005E07F70E0F26BE40B043BF
:100610005F07FF0E0E69BE403043DF0802F120067F
:1006200046F8270010685F000326BE40B0430E79ED
:1006300006F003065F00BE40304310604E6806F0CF
:100640008056B6F1805F1BD100BF444E366846F03D
:100650000206424F3E603E46366806F002060096AD
:1006600000BF00BF3E4E9F0856F827009E07370F79
:100670000F26BE40B0433B4EB24202D100262EE0D0
:1006800063E0394EB24201D1012628E0374EB24232
:1006900001D1022623E0364EB24201D103261EE0EC
:1006A000344EB24201D1042619E0334EB24201D198
:1006B000052614E0314EB24201D106260FE0304E3D
:1006C000B24201D107260AE02E4EB24201D10826DD
:1006D00005E02D4EB24201D1092600E00A269F070F
:1006E0003F0FBE4030431E4E9F0846F82700286843
:1006F000A0434E6806F48036B6F5803F00D1204313
:1007000028606868A0434E6806F40036B6F5003FDE
:1007100000D1204368604FF0B0463068A0434E6877
:1007200006F48016B6F5801F00D120434FF0B04686
:1007300030607068A0434E6806F40016B6F5001FDE
:1007400000D120434FF0B04670605B1C0E68DE4065
:10075000002E7FF41CAFF8BD80000058F44402580E
:10076000080400580000025800040258000802580B
:10077000000C0258001002580014025800180258C9
:10078000001C02580020025800240258014800684A
:10079000000C70470010005C0148006870470000C2
:1007A00020000024034800680349097808440149EF
:1007B00008607047200000242800002410B50320A2
:1007C00000F0E8F800F080FD10490968C1F303214A
:1007D0000F4A515C01F01F0120FA01F40B48006838
:1007E00000F00F001146085C00F01F0024FA00F032
:1007F00008490860084804600F2000F00FF808B1AD
:10080000012010BD00F088F80020FAE718440258D3
:10081000542A0008300000242C00002470B504463F
:100820001148007808B9012070BD0F4800784FF4D6
:100830007A71B1FBF0F00D490968B1FBF0F528467B
:1008400001F042FA08B10120EEE7102C07D2002295
:100850002146501E00F061F80548046001E00120C7
:10086000E2E70020E0E70000280000242C0000243C
:10087000240000244178154A11600178F9B1121D55
:1008800041681160017B0907C27A41EA0261827AFC
:1008900041EAC241427B41EA8241827B41EA4241D4
:1008A000C27B41EA0241427A41EA0221027A41EAEC
:1008B000420102781143054A0832116005E0002127
:1008C000024A121D1160121D1160704798ED00E080
:1008D000BFF35F8F0548006820F48030034908604B
:1008E00000200249703108607047000024ED00E0EC
:1008F00040F00101074A116006497039096841F466
:100900008031044A703A1160BFF34F8FBFF36F8F8D
:100910007047000094ED00E070472DE9F05F8046DD
:100920000D46164601F064FF074639462A4633460F
:1009300001F00700C0F1070ABAF1040F02D94FF025
:10094000040A01E0C0F1070AD14600F1040ABAF135
:10095000070F02D24FF0000A01E0A0F1030AD446CB
:100960004FF0010A0AFA09FAAAF1010A0AEA020A90
:100970000AFA0CFA4FF0010B0BFA0CFBABF1010B6E
:100980000BEA030B4AEA0B042146404601F038FF0C
:10099000BDE8F09F00BF00F00702064B19684FF654
:1009A000FF031940044B0B4343EA0221014B19603A
:1009B00000BF70470CED00E00000FA0570B504467A
:1009C00015480068C0F3800048B91348006800F07B
:1009D0000700A04201D0012070BD0020FCE70E48B6
:1009E000006820F0070020430B490860FFF7D4FEA1
:1009F000054607E0FFF7D0FE401BB0F57A7F01D92E
:100A00000120E9E7044808380068C0F340300028B6
:100A1000F0D00020E0E700000C48025810B5044672
:100A20000CB9012010BD2068006820F00100216889
:100A30000860204600F0B4F80020606484F84100AB
:100A400000BFEFE7F8B50446FFF7A6FE06460CB96F
:100A50000120F8BD206A402800D000BF94F8410072
:100A600038B9204600F0D4F841F28831204600F031
:100A700081F92068006820F47061A068401E41EA96
:100A8000002021680860A06C3346002220210090DD
:100A9000204601F0C5FB054635BB2179E06840EAF8
:100AA0000160E1690843216A0843216809680F4A27
:100AB0001140084321680860208A616941EA0040CA
:100AC000A169084321684968094A1140084321681F
:100AD00048602068006840F001002168086000203C
:100AE0006064012084F841002846B2E72FFFFF0030
:100AF000FEF8E0FF2DE9F84304460D461646FFF7E1
:100B00004BFE8046A86900B100BFE86900B100BF94
:100B1000286A00B100BF00BF94F84000012802D14C
:100B20000220BDE8F883012084F8400000BF94F85B
:100B3000410001282CD100206064822084F841000B
:100B4000A06C4346002220210090204601F068FB63
:100B50000746F7B92068006820F00800716808436C
:100B600021680860706808280BD130682168086324
:100B700010202168C8602068006840F48010216857
:100B800008604FF040622946204601F011FA00E06B
:100B9000022700BF002084F8400000BF3846C0E7AD
:100BA00010B5044640211748FFF730FC4FF4806130
:100BB0001548FFF72BFC4FF480711348FFF726FC14
:100BC0004FF400711048FFF721FC80210E48FFF719
:100BD0001DFC40210C48FFF719FC0C48006840F44C
:100BE00080400A4908600846006820F48040086098
:100BF00006485830006820F48040044958310860A5
:100C000010BD000000180258001402587C4402581D
:100C100010B586B0044600BF5348006840F48040D9
:100C2000514908600846006800F48040009000BF09
:100C300000BF4D485838006840F480404A49583950
:100C400008600846006820F48040086000BF4648FD
:100C50000C30006840F0400043490C310860084601
:100C6000006800F04000009000BF00BF00BF0846D1
:100C7000006840F0200008600846006800F020008E
:100C8000009000BF00BF00BF0846006840F0200091
:100C900008600846006800F02000009000BF00BF18
:100CA00000BF0846006840F0200008600846006861
:100CB00000F02000009000BF00BF00BF08460068A1
:100CC00040F0200008600846006800F02000009016
:100CD00000BF00BF00BF0846006840F02000086069
:100CE0000846006800F02000009000BF00BF4020D0
:100CF00001900220029001200390032004900A201A
:100D0000059001A91948FFF73DFC4FF48060019060
:100D1000002003900920059001A91548FFF732FC37
:100D20004FF4807001900A20059001A91048FFF748
:100D300029FC4FF4007001900A20059001A90C488D
:100D4000FFF720FC802001900920059001A90848A8
:100D5000FFF718FC402001900920059001A90448E4
:100D6000FFF710FC06B010BDD4440258001802581A
:100D700000140258816470472DE9F04104460D4685
:100D800014B90120BDE8F081BD48006800F00F00F3
:100D9000A8420ED2BA48006820F00F002843B84994
:100DA00008600846006800F00F00A84201D001204A
:100DB000E8E7207800F0040004280ED1B14920694A
:100DC000096801F07001884207D9AE48006820F038
:100DD000700021690843AB490860207800F00800E2
:100DE000082811D1A749091D6069096801F070013F
:100DF000884209D9A348001D006820F0700061698D
:100E00000843A049091D0860207800F01000102850
:100E100011D19C49091DA069096801F4E06188426B
:100E200009D99848001D006820F4E060A1690843D2
:100E30009449091D0860207800F02000202811D175
:100E400090490831E069096801F07001884209D9C8
:100E50008C480830006820F07000E1690843894937
:100E600008310860207800F0020002280ED1854980
:100E7000E068096801F00F01884207D981480068DD
:100E800020F00F00E16808437E490860207800F0F8
:100E90000100002850D07B48006820F47060A168F1
:100EA0000843784908606068022807D175481838F7
:100EB0000068C0F34040F8B9012063E76068032888
:100EC00007D1704818380068C0F34060A0B901200D
:100ED00058E76068012807D16A4818380068C0F3ED
:100EE000002048B901204DE7664818380068C0F373
:100EF000800008B9012045E762480838006820F002
:100F00000700616808435F4908390860FFF744FC3F
:100F1000064608E0FFF740FC801B41F2883188421A
:100F200001D903202EE757480838006800F0380040
:100F30006168B0EBC10FEDD1207800F0020002280B
:100F40000ED15049E068096801F00F01884207D2CC
:100F50004C48006820F00F00E168084349490860E8
:100F60004748006800F00F00A8420ED944480068C6
:100F700020F00F002843424908600846006800F04E
:100F80000F00A84201D00120FCE6207800F0040008
:100F900004280ED13B492069096801F0700188429C
:100FA00007D23848006820F07000216908433549AD
:100FB0000860207800F00800082811D13149091D87
:100FC0006069096801F07001884209D22D48001D4E
:100FD000006820F07000616908432A49091D086013
:100FE000207800F01000102811D12649091DA069B1
:100FF000096801F4E061884209D22248001D0068B6
:1010000020F4E060A16908431E49091D08602078AA
:1010100000F02000202811D11A490831E069096840
:1010200001F07001884209D216480830006820F0AB
:101030007000E169084313490831086000F044F981
:1010400010490968C1F303210F4A515C01F01F01E7
:1010500020FA01F70B48006800F00F001146085C09
:1010600000F01F0027FA00F00849086008480760F0
:1010700008480068FFF7D2FB8046404682E6000041
:101080000020005218440258542A0008300000245E
:101090002C0000242400002410B58148006800F0D2
:1010A0000F0007280ED27E48006820F00F00C01DF8
:1010B0007B4908600846006800F00F00072801D04F
:1010C000012010BDFFF768FB04467648006840F039
:1010D00001007449086006E0FFF75EFB001B022870
:1010E00001D90320EDE76F48006800F004000028F4
:1010F000F2D06C48001D006840F080406949091D2D
:101100000860002067491031086067486749086037
:101110006749086067480068FFF780FB08B1012055
:10112000CFE7FFF739FB044608E0FFF735FB001B6C
:1011300041F28831884201D90320C2E75948103072
:10114000006800F038000028EFD1FFF725FB0446C7
:1011500054480068584908405249086008E0FFF7C1
:101160001BFB001B41F28831884201D90320A8E70C
:101170004C48006800F400300028F0D1FFF70CFB69
:1011800004464848006820F080704649086006E040
:10119000FFF702FB001B022801D9032091E7414819
:1011A000006800F000700028F2D1FFF7F5FA04465D
:1011B0003C48006820F080603A49086006E0FFF78C
:1011C000EBFA001B022801D903207AE735480068B2
:1011D00000F000600028F2D1FFF7DEFA0446314843
:1011E000006820F080502F49086006E0FFF7D4FA2D
:1011F000001B022801D9032063E72A48006800F099
:1012000000500028F2D1274918310860091D0860F4
:10121000091D086029482349283108602848091D0C
:1012200008602848091D08600020091D086025483D
:10123000091D08600020091D08602248091D08607A
:101240000020091D08601748006820F48020154917
:1012500008600020134960310860401E1149683160
:1012600008601048D030006840F480300D49D0311B
:1012700008600B48006800F00F0007280ED90848E6
:10128000006820F00F00C01D05490860084600688E
:1012900000F00F00072801D0012012E7002010E71E
:1012A00000200052004402580090D0032C0000247B
:1012B000300000242400002445EDF6FF0002020265
:1012C0000000FF0180020101F0B5824E366806F091
:1012D000380636B1082E15D0102E15D0182E7DD117
:1012E00014E07C4E103E3668C6F3401646B1794E87
:1012F000103E3668C6F3C107774E26FA07F000E0C5
:101300007548E5E07548E3E07548E1E0714E183650
:10131000366806F003046F4E18363668C6F30511BA
:101320006C4E1C36366806F001056A4E2436366867
:10133000C6F3CC0616FB05F601EE106AB8EE410ABC
:10134000002971D024B1012C50D0022C6DD16DE058
:10135000604E103E3668C6F340163EB35D4E103EFA
:101360003668C6F3C1075C4E26FA07F301EE103A61
:10137000F8EE411A01EE101AB8EE411A81EE812AF8
:101380009FED581AC0EE011A524E20363668C6F349
:10139000080601EE106AB8EE411A31EE811AF7EE36
:1013A000001A31EE211A62EE010A1EE001EE101A57
:1013B000B8EE411ADFED4C1A81EE812A9FED491AF1
:1013C000C0EE011A434E20363668C6F3080601EE19
:1013D000106AB8EE411A31EE811A00E076E0F7EEBD
:1013E000001A31EE211A62EE010A5BE001EE101ADA
:1013F000B8EE411A9FED3D2AC2EE011A9FED391A4F
:1014000080EE012A334E20363668C6F3080601EE18
:10141000106AB8EE411A32EE011AB7EE002A31EE28
:10142000021A61EE810A3DE04EE01DE001EE101A65
:10143000B8EE411ADFED2E1A81EE812A9FED291AAE
:10144000C0EE011A234E20363668C6F3080601EEB8
:10145000106AB8EE411A31EE811AF7EE001A31EE39
:10146000211A62EE010A1DE001EE101AB8EE411ACF
:101470009FED1E2AC2EE011A9FED1A1A80EE012A74
:10148000144E20363668C6F3080601EE106AB8EE30
:10149000411A32EE011AB7EE002A31EE021A61EE5D
:1014A000810A00BF00BF0B4E20363668C6F34626C1
:1014B000721C01EE102AB8EE411AC0EE811ABCEE81
:1014C000E11A11EE100A00E0002001E0034800BF1D
:1014D00000BFF0BD104402580090D00300093D0049
:1014E00040787D01000000460024744C0024744ABA
:1014F00020BCBE4B2DE9F047044614B90120BDE8DD
:10150000F087207800F00100002872D0F7480068CA
:1015100000F03808F5481830D0F80090B8F1100FF6
:1015200006D0B8F1180F0FD109F0030002280BD133
:10153000EE4810380068C0F3404000286ED0606864
:1015400000286BD10120DAE700BF6068B0F5803F6A
:1015500008D1E6481038006840F48030E34910397B
:1015600008602EE0606868B9E0481038006820F430
:101570008030DE49103908600846006820F4802079
:1015800008601EE06068B0F5A02F0DD1D748103874
:10159000006840F48020D54910390860084600688A
:1015A00040F4803008600CE0D0481038006820F427
:1015B0008030CE49103908600846006820F4802049
:1015C000086000BF6068A8B1FFF7E6F8054608E0CC
:1015D000FFF7E2F8401B41F28831884201D903202D
:1015E0008DE7C24810380068C0F340400028EFD0B3
:1015F00014E014E0FFF7D0F8054608E0FFF7CCF858
:10160000401B41F28831884201D9032077E7B7486F
:1016100010380068C0F340400028EFD100BF2078A8
:1016200000F0020002287BD1B048006800F03808C2
:10163000AE481830D0F80090B8F1000F05D0B8F1DE
:10164000180F3AD109F00300B0BBA8481038006861
:10165000C0F3800018B1E06808B901204FE700BF6F
:10166000FFF794F841F20301884219D82069402815
:101670000AD19E480C38006820F47C3040F40030D9
:101680009A490C39086016E098480C38006820F434
:101690007C30216940EA013094490C3908600AE045
:1016A00092480C38006820F0FE40217C40EA01603E
:1016B0008E490C39086067E0FFE7E06888B38B4823
:1016C0001038006820F01900E16808438749103994
:1016D0000860FFF761F8054606E0FFF75DF8401B7C
:1016E000022801D903200AE7804810380068C0F3B7
:1016F00080000028F1D000BFFFF748F841F2030155
:1017000088421BD8206940280CD178480C380068E2
:1017100020F47C3040F4003074490C39086018E043
:1017200033E017E071480C38006820F47C30216900
:1017300040EA01306D490C3908600AE06B480C380A
:10174000006820F0FE40217C40EA016067490C39C6
:10175000086019E065481038006820F0010063490E
:1017600010390860FFF718F8054606E0FFF714F88F
:10177000401B022801D90320C1E65C4810380068EC
:10178000C0F380000028F1D100BF207800F01000E5
:1017900010287CD15548006800F0380853481830AC
:1017A000D0F80090B8F1080F06D0B8F1180F3DD16D
:1017B00009F00300012839D14C4810380068C0F303
:1017C000002020B1E069802801D0012097E600BF09
:1017D000FEF7DCFF41F2030188421AD8206A202874
:1017E0000AD142480C38006820F0F84040F08040B0
:1017F0003E490C39086018E03C480C38006820F07D
:10180000F84094F8201040EA816038490C390860AB
:101810000BE03648001F006820F07C5094F8201040
:1018200040EA01603149091F086067E0E06978B368
:101830002E481038006840F080002C4910390860AC
:10184000FEF7AAFF054606E0FEF7A6FF401B0228AA
:1018500001D9032053E6254810380068C0F3002062
:101860000028F1D000BFFEF791FF41F2030188424A
:101870001CD8206A20280CD11C480C38006820F0A5
:10188000F84040F0804019490C3908601AE036E011
:1018900019E016480C38006820F0F84094F8201041
:1018A00040EA816011490C3908600BE00F48001FC5
:1018B000006820F07C5094F8201040EA01600B4949
:1018C000091F08601AE009481038006820F08000FD
:1018D000064910390860FEF75FFF054608E0FEF78D
:1018E0005BFF401B022803D9032008E6104402587E
:1018F000F3480068C0F300200028F0D100BF207832
:1019000000F00800082836D16069D0B1EC48743086
:10191000006840F00100EA4974310860FEF73CFFBE
:10192000054606E0FEF738FF401B022801D90320D8
:10193000E5E5E34874300068C0F340000028F1D0CA
:1019400019E0DF487430006820F00100DC49743190
:101950000860FEF721FF054606E0FEF71DFF401B6D
:10196000022801D90320CAE5D54874300068C0F3C5
:1019700040000028F1D1207800F02000202830D14C
:10198000A069B8B1CE48006840F48050CC490860E6
:10199000FEF702FF054606E0FEF7FEFE401B0228AA
:1019A00001D90320ABE5C6480068C0F340300028E9
:1019B000F2D016E0C248006820F48050C0490860A8
:1019C000FEF7EAFE054606E0FEF7E6FE401B0228AB
:1019D00001D9032093E5BA480068C0F340300028DD
:1019E000F2D1207800F0040004287DD1B5480068C9
:1019F00040F48070B3490860FEF7CEFE054606E06D
:101A0000FEF7CAFE401B642801D9032077E5AD48E4
:101A1000006800F480700028F2D000BFA0680128A0
:101A200008D1A7487030006840F00100A449703127
:101A300008602DE0A06868B9A1487030006820F007
:101A400001009F49703108600846006820F00400DA
:101A500008601DE0A06805280DD199487030006825
:101A600040F004009649703108600846006840F074
:101A7000010008600CE092487030006820F001001E
:101A80008F49703108600846006820F00400086043
:101A900000BFA068A0B1FEF77FFE054608E0FEF794
:101AA0007BFE401B41F28831884201D9032026E5A4
:101AB000834870300068C0F340000028EFD013E086
:101AC000FEF76AFE054608E0FEF766FE401B41F29F
:101AD0008831884201D9032011E5794870300068C7
:101AE000C0F340000028EFD1606A00287DD0744820
:101AF0001030006800F03800182877D0606A02289B
:101B000075D16F48006820F080706D490860FEF75D
:101B100043FE054606E0FEF73FFE401B022801D9C2
:101B20000320ECE466480068C0F340600028F2D16E
:101B300000BFD4E90A1041EA001061492831096860
:101B400040F2F332914308435D4928310860208E0A
:101B5000401EC0F30800616B491E4FF47E4202EA4A
:101B600041210843218F491ED20102EA0141084365
:101B70003C21095D491E120202EA016108435049F5
:101B80003031086000BF081F006820F00100091F05
:101B900008604B48343000684FF6F8718843A16CF8
:101BA00040EAC10046493431086045482C3000689D
:101BB00020F00C00216C084341492C310860084694
:101BC000006820F00200616C08433D492C31086038
:101BD0000846006840F4803008600846006840F419
:101BE000003008600846006802E066E038E01FE068
:101BF00040F4802008600846006840F0010008605A
:101C00002F48006840F080702D490860FEF7C4FD41
:101C1000054606E0FEF7C0FD401B022801D903205F
:101C20006DE427480068C0F340600028F2D044E02B
:101C30002348006820F0807021490860FEF7ACFD61
:101C4000054606E0FEF7A8FD401B022801D9032047
:101C500055E41B480068C0F340600028F2D12CE036
:101C6000174828300768164830300668606A01282F
:101C700021D007F00301A06A81421CD1C7F30511EE
:101C8000E06A884217D1C6F30801206B401E8142EA
:101C900011D1606B401EC6F3462188420BD1A06B68
:101CA000401EC6F30641884205D1E06B401EC6F3D4
:101CB0000661884201D0012021E400201FE40000D9
:101CC000004402580048025870B504462546681E74
:101CD000B0F1807F01D301200FE0681E4FF0E021BA
:101CE00048610F214FF0FF3000F08AFD00204FF0D7
:101CF000E021886107200861002070BD10B53249DD
:101D0000096801F0004149B12F49096841F00041DB
:101D10002D4A11608169891C816110BD2A490839E9
:101D200009682A4A11622849091F097882F8241093
:101D30002549C91E0978916223490C310968D1628D
:101D40002149891E098811861F49096851631E4966
:101D5000091D096891631C4910310968D1631CA2EF
:101D600000210BE0535C254CA36200BF234BDB69D1
:101D700003F04003002BF9D04B1CD9B22929F1D331
:101D800000211F4A116000BF1D4909680029FBD0CE
:101D90000E4A016811604168516081689160C168B4
:101DA000D160016911614169516181699161C169C4
:101DB000D1610021124A116000BF11490968002950
:101DC000FBD000BFA9E700002CED00E0BC1100240F
:101DD0000D0A456E74657220486172644661756CC7
:101DE000745F48616E646C65722C205379737465FE
:101DF0006D2048616C742E0D0A0000000010014037
:101E0000340000242DE9F0410446082C17DA00269E
:101E1000FF27002508E0284600F064F810B1701C88
:101E2000C6B22F46681CC5B2082DF4DB012E04D1C2
:101E3000A74202D10120BDE8F0810020FBE7082C79
:101E40000BD1002000F04EF828B1012000F04AF834
:101E500008B10120EFE70020EDE7092C0BD10120AC
:101E600000F040F828B1022000F03CF808B1012051
:101E7000E1E70020DFE70020DDE7000008B50024EF
:101E80004FF010400090012080F3108800BFFFF752
:101E900003F900204FF0E02108614861886100BF2C
:101EA00008E04FF0FF310D4840F824100C4840F88E
:101EB0002410641C082CF4D3002080F3108800BF89
:101EC000009845680099086880F3088800BF0020E2
:101ED00080F3148800BFA84700BFFEE780E100E060
:101EE00080E200E001460B4850F831000069094BE0
:101EF00003EBC1039B88184008B9002200E00122CF
:101F0000044800EBC1008079904201D10120704764
:101F10000020FCE7142A00081FB5FEF7D9FC0120B9
:101F20008DF800004FF01050019012208DF808003D
:101F300003208DF80B0000208DF80F008DF80E00A7
:101F40008DF80D008DF8010001208DF80A000020A9
:101F50008DF809008DF80C006846FEF78BFC012017
:101F60008DF800004FF0C04001900F208DF8080060
:101F700003208DF80B0001208DF80F0000208DF854
:101F80000E008DF80D0001208DF8010000208DF865
:101F90000A008DF809008DF80C006846FEF76AFC0F
:101FA0000420FEF7A5FC1FBD00BFFEE77047704789
:101FB00010B54B6A33B1B2F1406F03D08B6A5B1E30
:101FC000046823618B69002B76D00B6AE3B38B68BE
:101FD0000468E361CB69FBB1D1E90B3423434C6B5B
:101FE00023434C6A23438C8A43EA84430C6923438A
:101FF0000C6A2343CC682343CC6923438C69234375
:102000000C682343134304686361B2F1406F02D04C
:102010004B680468A361BEE0D1E90B3423434C6BE9
:1020200023434C6A23438C8A43EA84430C69234349
:102030000C6A2343CC6923438C6923430C682343F4
:10204000134304686361A6E0FFE7CB69EBB1D1E914
:102050000B3423434C6B23434C6A23438C8A43EA5F
:1020600084430C6A2343CC682343CC6923438C69A3
:1020700023430C682343134304686361B2F1406F48
:10208000C9D04B680468A36185E0D1E90B342343D0
:102090004C6B23434C6A23438C8A43EA84430C6A87
:1020A0002343CC6923438C6923430C6823431343A4
:1020B000046863616FE0FFE70B6AC3B38B68046871
:1020C000E361CB69EBB1D1E90B3423434C6B234380
:1020D0004C6A23438C8A43EA84430C6923430C6A89
:1020E0002343CC682343CC6923438C6923431343A4
:1020F00004686361B2F1406F4DD04B680468A3611E
:1021000049E0D1E90B3423434C6B23434C6A23430E
:102110008C8A43EA84430C6923430C6A2343CC69C9
:1021200023438C69234313430468636133E0FFE76F
:10213000CB69DBB1D1E90B3423434C6B23434C6AAD
:1021400023438C8A43EA84430C6A2343CC682343A9
:10215000CC6923438C692343134304686361B2F160
:10216000406F18D04B680468A36114E04B6A93B1C8
:10217000D1E90B3423434C6B23434C6A23438C8AB1
:1021800043EA84430C6A2343CC6923438C69234389
:1021900013430468636110BD00B591B0382103A8F2
:1021A000FEF79FF80020019002904FF48070099094
:1021B0004FF44050069000200B900E900F9010901E
:1021C000EC2003904FF440600A9080030C900620AE
:1021D000089000200290019001AA03A90548FEF78B
:1021E00089FC20B14FF4F97103A0FEF700F911B09A
:1021F00000BD0000701100242E2E5C2E2E5C557345
:1022000065725C6273705C7372635C6273705F7141
:102210007370695F773235713235362E6300000096
:102220002DE9F04104460E4617469846069D12E0F9
:10223000681C80B1FEF7B0FAA0EB0800A84200D8F5
:102240004DB9042084F84100606C40F001006064E6
:102250000120BDE8F08120688068304008B101208D
:1022600000E00020B842E3D10020F2E77047000010
:1022700010B5FEF797FA0448007800B910BD00F0D9
:1022800005F800BFFAE700001C00002410B51B4849
:10229000006840B119480068401E1849086010B92C
:1022A000012017490870002408E004EB4401154A96
:1022B00002EB810000F09BFB601CC4B2042CF4DB39
:1022C00011480068401C10490860084600686FF01B
:1022D0000041884202D100200B49086000F086FBD3
:1022E0000A480078401CC0B2084908700A2803DB7D
:1022F0000020087000F076FB10BD000010000024E4
:1023000014000024E8000024180000241D0000240C
:1023100010B59CB0202114A8FDF7E3FF4C2101A8C3
:10232000FDF7DFFF00240220FEF748FB00BF00207E
:1023300000905048006820F001004E4908600846AF
:10234000006800F0010000904B48006840F44040F5
:10235000494908600846006800F44040009000BF0A
:1023600000BF00BF4448006800F40050B0F5005FB3
:10237000F8D1012001900004029000200490089000
:1023800002200A9002210B9105210C91A0210D91B0
:1023900002210E91109104210F9100211291082128
:1023A00011910021139101A8FFF7A4F804461CB174
:1023B0008B2132A0FEF71BF83F20149003201590CC
:1023C00000201690082017904020189019900001C6
:1023D0001A9040201B90032114A8FEF7CDFC044660
:1023E0001CB1A62125A0FEF702F82A48006840F09B
:1023F00080002849086000BF2648F430006840F09B
:1024000002002449F43108600846006800F0020028
:10241000009000BF00BFFDF7EFFF00BF1D48DC309C
:10242000006840F000501B49DC3108600846006835
:1024300000F00050009000BF00BF00BF08460068D9
:1024400040F0804008600846006800F0804000903E
:1024500000BF00BF00BF0846006840F000400860B1
:102460000846006800F00040009000BF00BF1CB0AC
:1024700010BD00002C040058184802582E2E5C2E67
:102480002E5C557365725C6273705C6273702E6350
:1024900000000000004402583648006840F4700014
:1024A000344908603448006800F00F00072806D25D
:1024B0003148006820F00F00C01D2F4908602F48E8
:1024C000006840F001002D49086000202B491031C0
:1024D00008602A4800682A490840284908602648B8
:1024E000006800F00F00072806D92348006820F094
:1024F0000F00C01D204908600020204918310860E5
:10250000091D0860091D08601E481C492831086023
:102510001D48091D08601D48091D08600020091D8F
:1025200008601A48091D08600020091D0860174846
:10253000091D08600020091D08601048006820F48B
:1025400080200E49086000200C4960310860104866
:1025500000686FF30F00B0F1005F02D201200D4957
:10256000086043F2D2000C490860480301498039F1
:102570000860704788ED00E00020005200440258D7
:102580007FEDF6EA000202020000FF018002010175
:102590000010005C088100510040005270B5002519
:1025A00000264FF08044206900F00205E06800F04A
:1025B00002065DB156B14FF6FD702061E0684FF63E
:1025C000FD710840E0601E4800688047206900F007
:1025D0000405E06800F004065DB156B14FF6FB70EB
:1025E0002061E0684FF6FB710840E0601548006824
:1025F0008047206900F00805E06800F008065DB13A
:1026000056B14FF6F7702061E0684FF6F771084059
:10261000E0600D4800688047206900F01005E06820
:1026200000F010065DB156B14FF6EF702061E06822
:102630004FF6EF710840E06004480068804770BDC5
:102640000000002404000024080000240C000024E2
:1026500010B5024800F00CF810BD0000180100246D
:1026600010B5024800F004F810BD00004409002431
:102670002DE9F04104462068C56920680668206895
:10268000D0F8088005F02000D8B12068406AC7B2B1
:10269000E18AA0684754E08A401C80B2E082E18968
:1026A000884201DB0020E082608BE189884202DA07
:1026B000608B401C6083606A10B13846616A88474D
:1026C00000BF05F0800028B306F0800010B3A08A98
:1026D00060B92068006820F08000216808602068E8
:1026E000006840F040002168086013E0012084F891
:1026F0002800618A6068405C21688862608A401CAA
:1027000080B26082A189884201DB00206082A08AB9
:10271000401EA08205F0400018B306F0400000B350
:10272000A08A68B92068006820F04000216808602D
:10273000206A08B1206A8047002084F8280010E051
:10274000618A6068405C21688862608A401C80B24F
:102750006082A189884201DB00206082A08A401E3D
:10276000A0822068006A40F00100216808622068A9
:10277000006A40F00200216808622068006A40F0A8
:102780000400216808622068006A40F0080021689F
:1027900008622068006A40F0100021680862206822
:1027A000006A40F04000216808622068006A40F436
:1027B0008070216808622068006A40F40070216817
:1027C00008622068006A40F40030216808622068CE
:1027D000006A40F48010216808622068006A40F0B6
:1027E000200021680862BDE8F08100BFFEE700001C
:1027F00002480068C0F30220704700000CED00E0C2
:1028000010B5002804DB0A07130E054A135406E02E
:102810000A07140E034A00F00F031B1FD45410BD07
:1028200000E400E018ED00E002E008C8121F08C153
:10283000002AFAD170477047002001E001C1121F41
:10284000002AFBD17047000070B50546304800EB08
:1028500005142846FFF7D6FA00283ED0207905282F
:1028600002DA0520207152E020790A2803DA207963
:10287000401C20714BE0A07A38B90120A07205EB12
:102880004501491CC8B200F09DF8208900283EDDB2
:10289000E088218988420DDAE088401C80B2E0801F
:1028A0002189884233D105EB4501C91CC8B200F02B
:1028B00089F82CE0E07A002829DD207B401CC0B29A
:1028C0002073E17A884222DB0020207305EB45016A
:1028D000491CC8B200F076F819E02079052802DD1D
:1028E0000520207110E0207918B12079401E207158
:1028F0000AE0A07A012807D10020A07205EB45016B
:10290000891CC8B200F05EF80020E080207370BD22
:102910003800002410B5FFF7FFFAFDF70BFDFDF7B7
:102920004DFFFFF7F5FC00F003F8FFF735FC10BD95
:1029300010B51248124908600846FEF76FF818B142
:102940005A2110A0FDF753FD01200D4948602021B8
:102950000B4881601021C160192101614FF4807121
:10296000416100218161C1610162FEF76BF818B11C
:102970007F2104A0FDF73BFD10BD00000050005278
:10298000701100242E2E5C2E2E5C557365725C62D5
:1029900073705C7372635C6273705F717370695F94
:1029A000773235713235362E6300000010B50024C1
:1029B00004E02046FFF748FF601CC4B20A2CF8DB95
:1029C00010BD00000649C97A054A50541146C97A1B
:1029D000491CC9B2D1720A2901DB0021D1727047AA
:1029E000D800002410B5FFF7E1FF10BD7047416823
:1029F00051B14168491E416031B9012141700178EE
:102A0000012901D1816841607047FFF783FFFFF71B
:102A100035FA0000002002580001000000080258AA
:102A200000200000001C025810000000001802588E
:102A300004000000000402580100000000180258C1
:102A40000800000000180258800000000020025812
:102A5000000800000000000001020304010203045A
:102A600006070809842A0008000000243800000036
:102A700028280008BC2A000838000024C8210000CB
:102A800038280008000000000000000000000000DE
:102A90000000000000000000000000000000000036
:102AA0000000000000000000100000000100000015
:0C2AB0000090D0030090D0030000000054
:040000050800029954
:00000001FF
