:020000040800F2
:10000000504C002069010008512C0008D527000839
:100010004D2C0008B10A00085D38000800000000FF
:10002000000000000000000000000000BD2F0008DC
:100030004D1B000800000000092F00088101000886
:100040008301000883010008830100088301000880
:100050008301000883010008830100088301000870
:100060008301000883010008830100088301000860
:100070008301000883010008830100088301000850
:100080008301000883010008C107000883010008FC
:100090005111000883010008830100088301000852
:1000A0008301000883010008830100088301000820
:1000B0004131000883010008830100088301000822
:1000C0008301000883010008830100088301000800
:1000D00083010008830100088301000883010008F0
:1000E00083010008830100088301000883010008E0
:1000F000830100088301000883010008000000005C
:10010000830100080000000083010008830100084B
:1001100083010008830100088301000883010008AF
:10012000830100088301000883010008830100089F
:1001300083010008000000000000000083010008A7
:10014000830100088301000883010008830100087F
:10015000DFF810D000F0A4FA00480047E14C000896
:10016000AFF30080504C0020064880470648004707
:10017000FEE7FEE7FEE7FEE7FEE7FEE7FEE7FEE757
:10018000FEE7FEE7C12F0008510100082DE9F0410C
:100190000024061B254671F1000605DA012400271C
:1001A000D0EB070067EB0101161E73F1000605DABC
:1001B0000027D2EB0702012567EB030300F08DF85F
:1001C00086460E4617469C46AC4204D00025D0EB2E
:1001D000050E65EB010624B10020D2EB000760EBB1
:1001E000030C704631463A466346BDE8F08140EA6A
:1001F00001039B0703D009E008C9121F08C0042AA5
:10020000FAD203E011F8013B00F8013B521EF9D28B
:100210007047F0B4CA17CB0F50405140C61841F197
:1002200000054FEAC372314628004FF0960303D011
:10023000B623F0BC00F09BB830460021F9E770B55A
:10024000C1F30A5201F000450024C1F3130140F24A
:10025000FF3341F480119A4201DA002070BD40F270
:1002600033439A42A2F2334203DC524200F066F872
:1002700000E090402C43F1D0404270BD00F00042BD
:1002800030F000400AD0C10D01F56071C0F31600D6
:1002900042EA0151C208400711437047002001465D
:1002A000704701F0004330B421F0004150EA0102F0
:1002B00006D00A0DA2F56072C1F31301002A02DC18
:1002C00030BC00207047440F44EAC104C100E0186C
:1002D00030BC00EBC25000F041B82DE9F05F05469C
:1002E000002092469B4688460646814640241BE0F5
:1002F000284641464746224600F020F853465A46D3
:10030000C01A914110D311461846224600F0DAF97E
:100310002D1A67EB01084F4622460120002100F00C
:10032000D1F917EB00094E41201EA4F10104DFDCD6
:10033000484631462A464346BDE8F09F202A04DB62
:10034000203A21FA02F00021704721FA02F3D0404E
:10035000C2F1200291400843194670470029A8BF06
:100360007047401C490008BF20F00100704710B4DE
:10037000B0FA80FC00FA0CF050EA010404BF10BC93
:10038000704749B1CCF1200421FA04F411FA0CF1C0
:1003900018BF012121430843A3EB0C01CB1D4FEAF9
:1003A00000614FEA102042BF002010BC704700EBF4
:1003B000C35010440029A4BF10BC7047401C490022
:1003C00008BF20F0010010BC704710B541000CD0F0
:1003D000C0F3C751962908DC7E2909DC06DB4102FF
:1003E00004D000F0004040F07E5010BD002010BD51
:1003F000C1F19604C4F1200100FA01F1E040FFF7D9
:10040000ADFFA04010BD2DE9FE4F804681EA0300FC
:10041000C00F0C46009021F0004123F00045B8EBDE
:100420000200A94105D24046214690461C460B4693
:10043000024623F00040104347D0270DC7F30A00BF
:10044000C3F30A510290401A019040286BDAC3F3BB
:10045000130040F4801B0098924620B10023D2EB99
:10046000030A63EB0B0B01985946C0F1400250465A
:1004700000F028F906460D4650465946019A00F00C
:1004800030F910EB08006141002487EA115284EA38
:10049000E7731A4340D0009A62B3019A012A4FEAE7
:1004A000075215DC001B61EB02014FF0004202EA2B
:1004B0000752CDE90042001C41F5801132462B461F
:1004C00000F030F903B0BDE8F08F40462146F9E76F
:1004D000001B61EB0201001C41F5801300185B4119
:1004E0002018A2F5001747EB030140EAD570B619B2
:1004F0006D4111E06D084FEA360645EAC0754FEAD6
:100500000752001B61EB0201001C41F580114908F4
:100510004FEA30000019514132462B4603B0BDE886
:10052000F04F00F0F0B80098012240000023D0EB1B
:10053000020263EBE073009821464FEAE074B8EBE7
:10054000000061EB0401E9E783F000435BE781F021
:10055000004158E72DE9F041054621F000400C46E6
:10056000284309D0C4F30A5040F23341884205DDE4
:1005700028462146BDE8F0812846FBE740F2FE31DF
:10058000884210DC0CDB4FEA043040EA155050EA98
:10059000053105D0104804F0004101430020E9E78F
:1005A00000200146E6E7A0F233404642C6F1400291
:1005B0002846214600F086F8074688462846214608
:1005C0003246FFF7BBFE43463A4600F09CF83246FF
:1005D000BDE8F04100F076B80000F03F30B5041EF1
:1005E00071F1000404DB4FF00044404264EB010170
:1005F000141E73F1000405DB1C464FF00043524209
:1006000063EB04038B4208BF824230BD30B5041E49
:1006100071F1000404DB4FF00044404264EB01013F
:10062000141E73F1000405DB1C464FF000435242D8
:1006300063EB0403994208BF904230BD70B5044695
:1006400001F000450020054304D14FF0004564420D
:1006500065EB010103F00045284305D118464FF032
:100660000043524263EB0003101B73EB010002D204
:100670004FF0004009E082EA040283EA01034FF0F0
:1006800000501A4301D14FF0C0404FEA2062EFF30F
:10069000008162F31F6181F3008870BD0020704704
:1006A000064C074D06E0E06840F0010394E80700BF
:1006B00098471034AC42F6D3FFF74EFDD8700008CF
:1006C000F8700008202A04DB203A00FA02F100202A
:1006D00070479140C2F1200320FA03F31943904080
:1006E0007047202A06DBCB17203A41FA02F043EA92
:1006F000E07306E041FA02F3D040C2F120029140DB
:1007000008431946704710B5141E73F1000408DA47
:10071000401C41F1000192185B411A4301D120F0C5
:10072000010010BD2DE9F04D92469B4611B1B1FA82
:1007300081F202E0B0FA80F220329046FFF7C2FF69
:1007400004460F4640EA0A0041EA0B0153465A4666
:10075000084313D0114653EA010019D0C8F14002F2
:100760005046FFF7EBFD05460E46504659464246B9
:10077000FFF7A8FF084305D0012004E020463946D2
:10078000BDE8F08D0020054346EAE0762C43374370
:100790000A986305E40AA0EB08000022FD0A44EA77
:1007A00047540A3002D500200146E9E70105101937
:1007B0006941DDE9084500196941BDE8F04DA2E74E
:1007C0000348016821F00401016002F06BB80000E9
:1007D0000024014010B5274C204603F09EF94FF449
:1007E000A02003F063FA0022A115204603F0D8FAF6
:1007F00001220221204603F0D3FA002221152046CF
:1008000003F0CEFA0021204603F0AFFA0021204683
:1008100003F077F9204603F09EF9012202212046D9
:1008200003F052F9002201231146204603F0D5F9C6
:10083000A2140221204603F0BCF901220221204625
:1008400003F097F901221146204603F03DF90123F8
:1008500003220021204603F035FA4FF460220121E3
:10086000204603F0A6F920460122BDE810401146BB
:1008700003F07FB90024014010B51C4C204603F062
:100880004CF901221102204603F08AFA00220221CB
:10089000204603F085FA00222115204603F080FA55
:1008A0000021204603F061FA0021204603F029F9D7
:1008B00002221146204603F007F901231A460021BF
:1008C000204603F08AF9012302221946204603F04C
:1008D00084F94FF4E0420221204603F06AF92046F1
:1008E0000122BDE81040022103F043B90028014075
:1008F00010B501F06FFD04480078002803D1BDE871
:10090000104002F005BF10BD400000202DE9F0416D
:100910002DED028B594EB068401CB060B0F5FA7FE7
:1009200018DB0020B0607068401C7060DFED548AF6
:10093000544DB7EE008A642895ED001A0EDC31EEB6
:10094000280A10EE100AB0F17E5F01DD30EE480A91
:1009500085ED000ABDEC028BBDE8F0814A4A4B49A7
:1009600041F2EC3CDFED4A1A92ED070AD1ED020AA2
:100970004449484B20EE200A41F288371C68604504
:1009800020EE210AFDEEC00A91ED000A20EE210AB8
:1009900023D810EE900A06B202F0B6FFBDEEC00AF0
:1009A00010EE100A00B2B84200D30020314624F8FD
:1009B0001060401C00F03AFC95ED000A30EE280A69
:1009C00010EE100AB0F17E5F01DD30EE480A85EDD1
:1009D000000ABDEC028BBDE8F08141F25041DFED31
:1009E0002E8A88420ED831EE280AB5EEC00AF1EE02
:1009F00010FA01D230EE080A85ED000ABDEC028B38
:100A0000BDE8F08142F2D87188422BD810EE900AEE
:100A100006B202F079FFBDEEC00A10EE100A00B275
:100A2000B84200D3002034F910108A1902EBD271B9
:100A3000491024F8101041F289323146104400F078
:100A4000F5FB95ED000A30EE280AB5EEC00AF1EE8E
:100A500010FA01D230EE080A85ED000ABDEC028BD7
:100A6000BDE8F0810021084600F0E0FB0120307075
:100A7000BDEC028BBDE8F04102F07EB840000020E2
:100A800017B751398800002068410020B841002084
:100A900000409C457C00002017B751B90349002055
:100AA00048608860087002F033BE000040000020FB
:100AB00001F072BB70B501F08DFC094C002525706A
:100AC000606810B101F020FE656002F07DFD054C0C
:100AD00018B102F01DFE257070BD0120207070BDA0
:100AE00018000020400000202DE9F04F2DED028B72
:100AF00083B0FD49886800EE100AB8EE400ADFEDC9
:100B0000FB0A20EE208AFA4AB0EE081AD2ED080A53
:100B100092ED040A20EE800A20EE010AB6EE001AD9
:100B200020EE010A09780F2980F0DD82DFE801F06C
:100B3000EE08153652729ACAEFECEBEAE9E8E700E4
:100B4000E948002181609FEDEB0A00F1200181ED71
:100B5000000A0221017000F0C6BAE74890ED030ACE
:100B6000E64870EEC00A90ED000A9FEDE51A00EE2F
:100B7000810A80ED000ADFEDDF0AB0EE601A01F0B5
:100B800081FCD94C49F64041A0688842C0F0AB8254
:100B900002F016F90320207000F0A5BAD74890EDB6
:100BA000000AD34880EE201AB0EE000AF0EE080AE0
:100BB00021EE001A81EE200A80ED040A684603F057
:100BC0005FFE6946012000F061FBC7490420087000
:100BD00000F089BAC44C0020A060DFEDC61A04F111
:100BE0001800C0ED001AC0ED011AC148D0ED090A85
:100BF00004F12000B1EE600A80ED000AC0ED010AA8
:100C0000B0EE611AF0EE610A01F03CFC05202070A4
:100C100000F069BAB44C00F0010004F11801B64AC2
:100C200001EB800191ED000AD2ED030A30EE200ABB
:100C300081ED000A04F1200101EB800090ED000A33
:100C4000DFEDAC0AB0EE601A01F01CFCA06844F6BF
:100C500020618842C0F0478202F0B2F8062020707E
:100C600000F041BAA748B0EE001A90ED010AD0EDAD
:100C7000000A30EE600A20EE010A9D4CD4ED091AFC
:100C8000C1EE800A20EE810AF0EE080A80EE201AFA
:100C900084ED051A94ED0E0A01F0D6FB94ED050AD9
:100CA000684603F0EDFD6946022000F0EFFA9FED83
:100CB000910A8D4880ED030A0021816007210170AF
:100CC00000F011BA20EE080AF6EE000A864C20EE7B
:100CD000200A94ED031ADFED870A01F0D3FB18EE2A
:100CE000100AB0F1804FC0F2FE8187490869496956
:100CF000FFF78FFA20610820207000F0F4B9C6E1F8
:100D000048E1DBE085E076E017E000E0EBE1764CDF
:100D100094ED031ADFED7D0A31EE201A84ED031AFB
:100D2000DFED740A01F0AEFB7949E0688842C0F259
:100D3000DA810920207000F0D6B973490869496941
:100D4000FFF767FA684E00EE100AD6ED040A30EE9F
:100D5000600ABDEEC00A10EE104A002C04DD6449A2
:100D60000120C1F88C0004E061494FF0FF30C1F868
:100D70008C005F4D6946D5F88C0003F0F9FE69469A
:100D8000032000F083FA00EE104AB8EEC00ADFED4F
:100D9000610A20EE200AB5EEC00AF1EE10FA06DD77
:100DA00000EE104AB8EEC00A20EE200A07E000EE7E
:100DB000104AB8EEC00ADFED580A20EE200AB0EE65
:100DC000001AC1EE000A10EE900AFFF757FA41EC44
:100DD000100B02F0B5FD51EC100BFFF730FAE86094
:100DE000694603F0C5FE6946042000F04FFA0A2068
:100DF000307000F078B93C489FED3E0A80ED030A60
:100E000000218160418080ED050A0B21017000F016
:100E10006AB93748344AC168B2F90200B0EBC11F61
:100E200039D2D2ED050AB4EEE08AF1EE10FA24DDF3
:100E30009FED3A1A70EE810AC2ED050AD2ED030A5F
:100E40009FED371ADFED371A20EE811A00EE901A67
:100E5000F8EEE00A60EEA10AC1EE201AFDEEE10A0A
:100E600010EE901A284B1B68591ACB0F01EB8341E7
:100E7000536843F82010401C5080D2ED030A9FEDC8
:100E8000231A30EE811A82ED031ADFED1A0A01F0FF
:100E9000F9FA00F028B992ED030ADFED1C0A30EEF2
:100EA000600A82ED030A00219160401E50809FED90
:100EB000110A82ED050A0C20107014E10A4CB4F9F5
:100EC0000200002861DBD4ED050AB4EEE08AF1EE01
:100ED00010FA4DDD9FED111A70EE810AC4ED050A7E
:100EE000D4ED030A20E000001800002017B75138A5
:100EF000B8410020000000006841002038000020B8
:100F000017B7D13830000020D0000020BEB52439FA
:100F1000DB0F494100008036000080B60000803CB5
:100F200000008048DB0FC9401FED031A724920EE14
:100F3000811AD1ED030AF8EEE01A5FED060A61EEC0
:100F4000A00AC1EE201AFDEEE10A10EE901A6B4ADB
:100F50001268511ACA0F01EB8242616851F82030C1
:100F60001A4402EBD272521041F82020401E6080D9
:100F7000D4ED030A1FED1B1A30EEC11A84ED031ADB
:100F80005FED240A01F07EFAADE001F019FF0D20BB
:100F90002070A8E0002001460022DFF85C91D9F81B
:100FA0000CC0B2EBCC1F0BD2554B5C6854F822300E
:100FB000181841EBE37102F10102B2EBCC1FF5D33B
:100FC0004FEACC120023FFF7E1F8C9F89000694618
:100FD000D9F8900003F0CCFD6946052000F056F9E1
:100FE000802547494F683868C0F3CD2800246842FF
:100FF00000EBD0700290E81705EBD5760190002049
:101000000146029A5310B3EB660F20DA3A4AD2F83F
:101010000CC00CFB04F222F07E4A421E02EBCC1BF9
:10102000CCF1000E0AEB0302002A02DA02EBCC122A
:1010300003E0934501D202EBCE1257F8222010189C
:1010400041EBE27103F10103B3EB660FEADB2A46E1
:10105000019BFFF79BF808EB04017F2900D9803939
:10106000254B03EB8101D3F89020801AC1F894003E
:1010700004F10104802CC2D3214800218160418009
:101080001FED640A80ED050A0E2101702BE01C4C57
:10109000B4F9020080281ED294ED050AB4EEC08A8D
:1010A000F1EE10FA1FDDDFED170A30EE200A84EDB5
:1010B000050A114901EB80006946D0F8940003F05D
:1010C00057FDB4F9020069460A3000F0DFF8608885
:1010D000401C608007E00020207007490120C1F813
:1010E000880001F049FD06488168491C816003B011
:1010F000BDEC028BBDE8F08FB8410020D00000208D
:10110000180000206F12833A70B50D4D0024286836
:10111000002804D00B490C7001F0F6FA2C600A4D3F
:10112000686820B94FF4705001F006FB6860074909
:101130000120C1F88C00C1F88840287070BD000003
:101140007C0000204000002018000020B841002052
:1011500000F0FEB830B583B00546324C022120467F
:1011600003F06BF8204602F061FE206840F4004076
:101170002060216811F4004FFBD12B490A6812F05E
:10118000020FFBD06946002003F09CF800208DF888
:10119000000001218DF807108DF805108DF806006C
:1011A0008DF808008DF809108DF8040015F0FF0186
:1011B0002BD001292CD002292DD003292ED0062195
:1011C00001220F23ADF80A308DF80100481E8DF87A
:1011D0000200501E8DF803006946204602F067FFAA
:1011E0000E2002F00BFE002302221946184602F0E0
:1011F000FDFE00231A461946184602F0F7FE0221AA
:10120000204603F01FF803B030BD0D210222D8E7BD
:1012100006210122D5E703210122D2E70221012282
:10122000CFE70000006400400464004030B583B0A4
:1012300002460D46144801780A2040EA81110098C0
:1012400061F31700009000208DF8030000986C46B1
:1012500004EB1060011D104603F08AFC009900EBBE
:1012600011608DF80300009804EB1060011D284602
:1012700003F07EFC009900EB11608DF803006846D6
:1012800003F0A2F803B030BD6400002030B583B095
:101290000D4614490A78072141EA8212009962F347
:1012A0001701009100218DF8031000996C4604EBA2
:1012B0001161091D03F05CFC009900EB11608DF8D1
:1012C00003000098296804EB106041600098042135
:1012D00001EB10608DF80300684603F075F803B069
:1012E00030BD00006400002070B584B0154E164D6E
:1012F000164CD6F88000002808D061682A68511A78
:101300004908814202D9012001F036FCD6F8840058
:1013100098B1A1682A68511A490881420DD92078EC
:101320003F2141EA8011019861F3170001900020EC
:101330008DF8070001A803F047F804B0BDE870403D
:1013400002F08EBDB84100200000002064000020A3
:1013500000B583B0684602F079FF002807D06846E0
:1013600003F0A8FD684602F071FF0028F7D103B032
:1013700000BD000002480068024948607047000054
:1013800000000020640000200248006802498860D4
:101390007047000000000020640000200149087030
:1013A000704700006400002017B583B014480F2177
:1013B000007841EA8011009861F317000090002046
:1013C0008DF8030000986C4604EB1060011D039833
:1013D00004F0FBFE009900EB11608DF8030000980B
:1013E00004EB1060011D049804F0EFFE009900EB7F
:1013F00011608DF80300684602F0E6FF06B010BDEC
:1014000064000020024890ED150A00F0F1BA0000D7
:10141000B84100202DE9F0412DED088BDFF8F8836D
:1014200098ED088AD8ED098A98ED0AAAD8ED0BAA9A
:1014300001F032FADFEDF99AF94F9FEDFABAFA4C62
:10144000FA4D022827D0D8ED010A94ED000AF8EEF3
:10145000E00A00EECB0AF7EE000A10EE100AB0F137
:101460007C5F01DD30EE600A10EE100AB0F13F4FF4
:1014700001D930EE200AD5ED0B0A60EE800A95ED19
:10148000071AB1EE412AB4EEE02AF1EE10FA7DD24D
:10149000B0EE600A09E19FEDE61AA86A30B10128B2
:1014A00035D0022873D0032872D1A8E095ED130A35
:1014B00060EE290AF5EEC00AF1EE10FA01DC60EEEA
:1014C000010A94ED020AD4ED081A30EE610AB1EE79
:1014D000601AB4EEC10AF1EE10FA02DDB0EE402A55
:1014E00001E0B0EE412AB4EEE02AF1EE10FA02DD9E
:1014F000B0EE600A06E0B4EEC10AF1EE10FA01DCCB
:10150000B0EE410A31EE800A84ED080ABCE095EDA8
:10151000140A60EE290AF5EEC00AF1EE10FA01DCB9
:1015200060EE010A94ED011AD4ED071A31EE610A5A
:10153000B1EE602AB4EEC20AF1EE10FA02DDF0EE6E
:10154000402A01E0F0EE422AF4EEE02AF1EE10FA31
:1015500002DDB0EE600A06E0B4EEC20AF1EE10FA67
:1015600001DCB0EE420A71EE800AC4ED070AC0EE5B
:10157000290A95ED010A20EE800A84ED080A3868F0
:1015800010F0020F04D131EE680A02E08BE013E0A4
:1015900067E0B5EEC00AF1EE10FA01DC38EEC10AE0
:1015A000D5ED110AB4EEE00AF1EE10FA6CD238680B
:1015B00040F00200386067E094ED000A94ED061AEE
:1015C00030EE410AD4ED011AD4ED070A71EEE01AAB
:1015D00094ED0A2A22EE000A94ED0B2A02EE210A6B
:1015E000D5ED011A61EE801AC4ED081A40EE290A01
:1015F000C4ED070A00EEA91A84ED061A44E094F837
:10160000240080B1002084F82400D5ED182A95ED3F
:10161000172AD5ED161A94ED071AD4ED060A94EDA3
:10162000000A01F051FE834E96F83C00D0B13868B4
:1016300010F0020F28D1D4ED000A30EEC80AB5EE42
:10164000C00AF1EE10FA01DC38EE600AD5ED120A9C
:10165000B4EEE00AF1EE10FA16D2386840F002005B
:10166000386011E001F0A4FD96ED000A84ED060A51
:1016700096ED010A84ED070A96ED020AD5ED010AFE
:1016800020EE200A84ED080AD4ED070AA86A022891
:10169000FFF6F5AE94ED060A30EE480A95ED0B1A0A
:1016A00041EE000AEBE6B0EE420AB4EEC01AF1EEEB
:1016B00010FA02D2F0EE410A06E0B4EEE02AF1EEB2
:1016C00010FA01D3F0EE420A94ED088ADFED5ABA1F
:1016D000B0EE6B9AAE6A012E09DB30EEE89A95ED1A
:1016E0000C0A00EE098A94ED0C0A30EE088A24DA1E
:1016F00071EE680A95ED0C0A20EE801A72EE680A07
:1017000060EE800AB4EEE08AF1EE10FA02DDB0EE8F
:10171000480A01E0B0EE600AB4EEC10AF1EE10FA38
:1017200002DDF0EE410A06E0B4EEE08AF1EE10FAD6
:1017300001DDF0EE480AB0EE608AE86B38B33F484E
:10174000007820B3D8F8040041F28831484300EE15
:10175000100AB8EE400A20EE0B0A02F0D5F8BDEEF2
:10176000C00A10EE100A00B241F28831884200D35C
:10177000002033499FED331A096831F9100000EE5B
:10178000100AF8EEC00A80EE810A30EE088A0020C6
:10179000D5ED060A95ED020A60EE800AB4EEE08A05
:1017A000F1EE10FA02DD0120B0EE608AB1EE601AAF
:1017B000B4EEC18AF1EE10FA02D20120B0EE418AF5
:1017C00020B1396841F00401396016E0B5EEC08AF5
:1017D000F1EE10FA02DDB0EE481A01E0B1EE481A5F
:1017E000DFED191A60EEA10AB4EEE01AF1EE10FA7C
:1017F00003D2396821F004013960012E02DAC4ED08
:101800000CBA2FE020B3D4ED0C0A9FED101A60EE55
:10181000810AC4ED0C0A25E0D000002017B751382A
:10182000100100200000803688000020B841002010
:1018300017B751B828010020000000004000002028
:101840007C00002000409C456666663FA4707D3F9A
:1018500095ED0D1AD4ED0C0A21EE291A41EE090A74
:10186000C4ED0C0AC8EE000AF0EE6A1AB0EE4A1A8D
:10187000B0EE6B0ABDEC088BBDE8F04100F0B4BCE3
:1018800010B52DED028B184C94ED088A01F004F888
:10189000042807D194ED010ADFED140AB8EEC00A5E
:1018A00020EE208A124880ED008A9FED120A80ED1A
:1018B000010A80ED020A80ED038A80ED040A80EDC2
:1018C000050A80ED068A80ED070A80ED080A80EDA2
:1018D0000C0A002180F824100749012081F83C00FF
:1018E000BDEC028B10BD0000D0000020000080364F
:1018F00088000020000000002801002070B50024AE
:1019000000F0CAFF194D012806D000F0C5FF0228DB
:1019100006D0641E204670BD002028616861F9E78A
:1019200095ED090AB5EEC00AF1EE10FA01DCB1EE50
:10193000400A10EE100AB0F17C5F14DA0C4890F8FF
:101940003C0080B172B60C489FED0A0A80ED000A97
:1019500080ED030A80ED060A00212961696185EDA9
:10196000080A62B6D6E74FF0FF34D3E7D000002074
:1019700028010020000000008800002010B500F0C1
:101980008BFF02282AD116481649806A30B10128F7
:1019900009D002280CD0032816D10EE091ED050ADB
:1019A00081ED020A10E091ED040A81ED010A0BE0DD
:1019B00091ED030A81ED000A06E091ED030A81ED45
:1019C000000A012081F824000748016821F0020183
:1019D00001600648016821F00201016010BD0000AD
:1019E000B841002088000020100100201C010020C8
:1019F00010EE100A0A49884201DB9FED0A0AF0EE58
:101A0000000A094820EE200A80ED0B0A20EE000AA9
:101A1000F5EE000A20EE200A80ED0A0A7047000069
:101A200000409C4500409C458800002010B50C46B5
:101A30000E490968884202D04FF0FF3010BD0146C0
:101A40000B4802F0A3FDA04202D04FF0FF3010BDC2
:101A500001F092FD10B16FF0010010BD01F064FDC6
:101A600010B16FF0010010BD002010BD7800002003
:101A700000C800080020421E810001F1E021C1F8E9
:101A80008021C1F88022401C0828F5DB04494FF46E
:101A9000005048610349086880F308884868004797
:101AA000001001400090010870B50C46074D2968F0
:101AB0000A19B2F5484F06D8224604F04EFC2968B0
:101AC0002144296070BD4FF0FF3070BD78000020C8
:101AD00010B502F073FE10B14FF0FF3010BD024997
:101AE0000020086010BD00007800002010B588B00C
:101AF000134C0021204602F0CAFD1248019000223A
:101B00008DF81C201049039101218DF81D108315BB
:101B10000293031504938DF81E200591401406903E
:101B200001AA0021204602F0D0FD0021204602F04B
:101B30009CFD0021204602F086FD08B010BD00008B
:101B4000000002404C2401400A00002000F024BBA9
:101B5000002029490860486088600021264A1161F8
:101B600051619FED261A104680ED061A9FED231A4B
:101B700080ED071A9FED211A80ED081A9FED1F1ABC
:101B800080ED091A9FED1D1A80ED0A1A9FED1B1AB0
:101B900080ED0B1A9FED191A80ED0E1A4FF4FA60C2
:101BA00000EE100AB8EEC01ADFED151AB4EEE11A15
:101BB000F1EE10FA02D2B8EEC01A01E09FED101A51
:101BC000F0EE410AB0EE001A20EE811A0A4880EDCC
:101BD0000C1A90ED0C1A21EE011AF5EE001A21EE06
:101BE000211A80ED0D1A90ED0D1ADFED061A21EE87
:101BF000211A80ED0F1A7047D0000020000000006D
:101C000000409C4517B7D1372DE9F0472DED068BE5
:101C100000F0C0F978B1D548D0F88C00012804D183
:101C2000D3484068D349086005E0D1484068C0F512
:101C30008020D0490860CF480068C112CB4894305A
:101C400050F82160CB490968012202EBE120C1175D
:101C500000EB5161C911A0EBC112C449943151F894
:101C60002270C4480068C3490968C912A0EBC120AA
:101C7000B91B484306EBE028BE480068A0EB080506
:101C800001E0A5F58025B5F5802FFADC01E005F52A
:101C90008025002DFBDBB74845604068B549896861
:101CA000441AB4484068B349886001E0A4F5802430
:101CB000B4F5003FFADC01E004F5802414F5003FA0
:101CC000FADBAC48D0E90420121940EBE470A949D2
:101CD000C1E90420084690ED060AD0ED070A9FED01
:101CE000A61A01EE200A80ED060A416890ED060A68
:101CF000BDEEC00A10EE100AA1EB000000EE100AC3
:101D0000B8EEC08A05E09FED9D0A38EE400AB0EEBD
:101D1000408A9FED9B0AB4EEC08AF1EE10FAF2DC25
:101D200005E09FED960A38EE000AB0EE408A9FED7E
:101D3000950AB4EEC08AF1EE10FAF2D38D4890ED18
:101D4000060AD0ED0C0A9FED8C1A60EE810A00EEB7
:101D5000880A80ED060A08E0864890ED060ADFED65
:101D6000870A30EE600A80ED060A824890ED060A86
:101D7000DFED820AB4EEE00AF1EE10FAECDC08E0E6
:101D80007C4890ED060ADFED7D0A30EE200A80EDFA
:101D9000060A784890ED060AB5EEC00AF1EE10FA90
:101DA000EED390ED070AD0ED0D0A9FED731A60EEA9
:101DB000810A00EE880A80ED070A4FF0000990EDD5
:101DC000070AB5EEC00AF1EE10FA02DD90ED070A3F
:101DD00004E0684890ED070AB1EE400A6548D0ED8E
:101DE0000F0AB4EEE00AF1EE10FA05D29FED660A92
:101DF00080ED070A4FF00109B9F1000F05D0B6EEEA
:101E0000000A5C4880ED0E0A33E0002C05DD9FEDF2
:101E10005E0A584880ED0E0A2BE0002C05DAB7EE7A
:101E2000000A544880ED0E0A23E0524890ED0E0A55
:101E3000D0ED070A9FED501A01EE200A80ED0E0A40
:101E400090ED0E0AF7EE000AB4EEE00AF1EE10FA99
:101E500003DDB7EE000A80ED0E0A464890ED0E0A4B
:101E6000B5EEC00AF1EE10FA03D29FED470A80EDFD
:101E70000E0A404840683D49D1F89010401A00EEE3
:101E8000100AB8EEC00A3B48D0ED0E0A70EE208A68
:101E900005E09FED3A0A38EEC00AF0EE408A9FED69
:101EA000370AF4EEC08AF1EE10FAF2DC05E09FED9D
:101EB000330A38EE800AF0EE408AF5EEC08AF1EE81
:101EC00010FAF4D32B48D0E904211046FEF7A1F90B
:101ED00009EE100A9FED290AC9EE009A9FED270A24
:101EE000B0EE49AA09EEC0AADFED240A8AEE200A64
:101EF00030EE290A1F4880ED080A90ED070ADFED51
:101F00001F0A80EE201A90ED090A70EE410A90ED4A
:101F1000090A9FED1E1A01EE600A80ED090A9FED85
:101F20001C0A68EE800A114890ED030AB8EEC00A58
:101F300020EE800ADFED110A80EE201A0D4880EDB8
:101F40000A1A90ED090ADFED120A60EE200A07482E
:101F500090ED030AB8EEC00A20EE800A054880ED35
:101F60000B0ABDEC068BBDE8F0870000B8410020ED
:101F7000C0000020D000002017B751380000804872
:101F800000000048000000C800000000ABAAAA3E04
:101F9000DB0FC94018B510207C4C2060002104E004
:101FA0000846491C0A2800D9E1E07948806800F019
:101FB00002000028F4D08320754CE060002104E08A
:101FC0000846491C0A2800D9D1E07148806800F011
:101FD00001000028F4D06E48C068C0B28DF800003F
:101FE000002104E00846491C0A2800D9BFE06848DF
:101FF000806800F002000028F4D0FF20644CE0600C
:10200000002104E00846491C0A2800D9AFE06048D6
:10201000806800F001000028F4D05D48C068C0B2BC
:102020008DF80000002104E00846491C0A2800D968
:102030009DE05748806800F002000028F4D0FF209F
:10204000534CE060002104E00846491C0A2800D9EE
:102050008DE04F48806800F001000028F4D04C4823
:10206000C068C0B28DF80100002104E00846491C98
:102070000A2800D97BE04648806800F0020000286A
:10208000F4D0FF20424CE060002104E00846491CE7
:102090000A2800D96BE03E48806800F00100002863
:1020A000F4D03B48C068C0B28DF802001020374C15
:1020B000241F20603748007A20B13648007A401E3D
:1020C000344C20729DF801009DF8004040EA042243
:1020D00082EA222282EA221282EAA20282EA6202D0
:1020E00002F0010000B137E09DF8020000F0FC03AF
:1020F00083EA231383EAA30383EA630303F0010063
:1021000000B129E09DF80100C0F34000214C20708F
:102110009DF80200C0F3C00060709DF801008010BF
:102120008DF801009DF8020000118DF802009DF865
:10213000000080029DF8014040EA04109DF8024032
:102140002043144C60602046407A18B12046407A03
:10215000401E6072012018BD0E48407AFF2804DA44
:102160000C48407A401C0B4C60720020F3E71020B2
:10217000064C241F20600748007AFF2804DA05482F
:10218000007A401C034C20720020E4E71408014050
:1021900000300140C000002072B60021014803F069
:1021A000FCFFFEE7002C014010B50D4C2078002804
:1021B00015D172B69FED0B0A84ED060A84ED070A6D
:1021C00084ED0A0A84ED0B0A84ED0C0A84ED120AF0
:1021D00084ED130A00F0F4FD0120207062B610BDFA
:1021E000684100200000000010B52DED068B86B080
:1021F000F0EE408AB0EE608AF0EE41AAB0EE61AA3D
:102200006D4C04A905A894ED051AD4ED040A94EDCB
:10221000030A02F02FF902A903A8B0EE6A1ADDED55
:10222000040A9DED050A02F025FE94ED020AF0EE87
:10223000000A20EE200AF0EE080AC0EE202AB7EECF
:10224000000A80EE222A9DED030A38EEC09A9DED29
:10225000020A78EE409AD4ED120A94ED100A49EE83
:10226000000A60EE828AD4ED130A49EE800A20EE5D
:10227000828A28EEA80A08EE080A01F0D1FBF0EEE7
:10228000400A9FED4E1A81EE200A10EE100ADFED93
:102290004C0AB0F17E5F12DA68EE808A28EE008A7E
:1022A00094ED121A9FED470A21EE001A84ED121ADE
:1022B00094ED131A21EE000A84ED130A0FE094ED59
:1022C000110A94ED121A20EE200A09EE001A84ED8C
:1022D000121A94ED131A09EE801A84ED131AB0EE57
:1022E0006A1A0AEE201A694601A8F0EE480AB0EE12
:1022F000680A02F04DFC9DED020A84ED060AD4ED59
:10230000070ADFED311A30EEC01A41EE610AC4ED62
:10231000070ADDED030AC4ED080A94ED091A31EE4F
:10232000602A02EE611A84ED091A68EEA00A48EEEE
:10233000000AC4ED0A0A94ED0B0A70EE600A00EE82
:10234000E10A84ED0B0AD4ED020A20EE800A84ED46
:102350000C0A04F13C02111F081FDDED000A9DED7F
:10236000010A03F0BFFA002822D1D4ED0D0A9FED37
:10237000170A60EE800AFCEEE00A10EE900A80B2C6
:1023800013490860D4ED0E0A60EE800AFCEEE00A04
:1023900010EE900A80B2091D0860D4ED0F0A20EEFD
:1023A000800ABCEEC00A10EE100A80B2091D086057
:1023B00006B0BDEC068B10BD684100204188473F48
:1023C00017B75138A4707D3F0AD7233C00803B45A6
:1023D000342C014010B50B4C2078002811D072B677
:1023E0009FED090A84ED060A84ED070A84ED0A0AC6
:1023F00084ED0B0A84ED0C0A00F0B0FC0020207084
:1024000062B610BD68410020000000000C489FED3E
:102410000B0A80ED010A80ED020A80ED060A80EDCC
:10242000070A80ED0A0A80ED0B0A80ED0C0A0021F4
:102430000170044890ED0E0A00F006B8000000009C
:1024400068410020B841002010EE100A0949884276
:1024500001DB9FED090A09490948D1ED050A60EE43
:10246000800AC0ED100AD1ED040A20EE800A80ED4A
:10247000110A704700409C4500409C45B84100202F
:102480006841002010B52DED048B86B0F0EE408A37
:10249000B0EE608AB0EE419A494C04A905A894EDCB
:1024A000051AD4ED040A94ED030A01F0E3FF02A932
:1024B00003A8B0EE491ADDED040A9DED050A02F00D
:1024C000D9FC9DED022A84ED062AD4ED071ADFED32
:1024D0003D0A31EEC20A40EE601AC4ED071A9DEDC6
:1024E000032A84ED082AD4ED091A31EEC20A40EE1F
:1024F000601AC4ED091A94ED020AF0EE000AB0EE7B
:10250000081A60EE200A80EE810AF7EE000AC0EE9B
:10251000801A61EEA88A21EE888A28EEA80A08EEC1
:10252000080A01F07DFA9FED281AF0EE400A81EECC
:10253000200A10EE100AB0F17E5F03DA68EE808A9E
:1025400028EE008A694601A8B0EE491AF0EE480A62
:10255000B0EE680A02F01CFB04F13C02111F081FD8
:10256000DDED000A9DED010A03F0BCF9002822D13F
:10257000D4ED0D0A9FED150A60EE800AFCEEE00A2C
:1025800010EE900A80B212490860D4ED0E0A60EE97
:10259000800AFCEEE00A10EE900A80B2091D086085
:1025A000D4ED0F0A20EE800ABCEEC00A10EE100A2D
:1025B00080B2091D086006B0BDEC048B10BD0000A0
:1025C000684100200AD7233C4188473F00803B45B3
:1025D000342C014070B5484C4FF40051204602F0B5
:1025E0002BFA631401221021204602F029FA01215E
:1025F000424802F07FFA424C4FF40041204602F07C
:102600001BFA4FF4004303221021204602F018FA6F
:10261000012304220021204602F012FA02230422A0
:102620000021204602F00CFA04231A46002120461D
:1026300002F006FA082304220021204602F000FAE4
:10264000A31503221821204602F0FAF9631503228C
:102650001821204602F0F4F9231503221821204600
:1026600002F0EEF9274D631403221821284602F0E8
:10267000E7F94FF4804303221821284602F0E0F9DD
:102680004FF4004303221821284602F0D9F9E3143D
:1026900003224821204602F0D3F9A3140322182173
:1026A000204602F0CDF91021204602F0C7F9102390
:1026B00003221946204602F0C3F9A0230322182161
:1026C000204602F0BDF9402303220421204602F0F7
:1026D000B7F90121042002F00DFA4023032218214A
:1026E000284602F0ADF92846BDE870408023032259
:1026F000042102F0A5B900000010014000023000E2
:1027000000080140000C0140002811D00838094B96
:102710004168DA6811420BD0D0F800C0BCF1000F5C
:1027200006D1914341605A681144596002F06CBE71
:10273000704700004C0000202DE9F04105460026BE
:10274000224F3868002801D102F036FEF8680542B1
:1027500039D145B1083515F0070F04D005F0070051
:10276000C0F108000544002D2DD0786885422AD894
:1027700017490846046801E0214604466068A842FB
:1027800002D220680028F7D1386884421BD008683C
:1027900000F10806206808606068401B102805D911
:1027A000611948606560084602F02EFE616878682D
:1027B000401A7860BA68904200D2B860F86808435E
:1027C0006060002020603046BDE8F0814C000020B1
:1027D0005C000020FFF7E0BC70B54FF400512B48BF
:1027E00002F080F92A4C4FF40041204602F07AF9B9
:1027F0000121204602F076F90221204602F072F90A
:102800000421204602F06EF90821204602F06AF900
:10281000A115204602F066F96115204602F062F922
:102820002115204602F05EF91A4D6114284602F087
:1028300059F94FF48041284602F054F94FF4004111
:10284000284602F04FF9E114204602F04BF9A1149A
:10285000204602F047F91021204602F043F92021DA
:10286000204602F03FF94021204602F03BF980214A
:10287000204602F037F94021284602F033F9284675
:10288000BDE87040802102F02DB900000010014029
:1028900000080140000C014001480078704700002A
:1028A0001000002070B55F4D68782978884207D005
:1028B00001F0ACFFA87818B16878287001F054FFD7
:1028C000FFF7A2F95848008800EE100AB8EE400A57
:1028D000DFED560A20EE200A554C84ED010AD4EDB6
:1028E000020A30EEC00A9FED531A40EE410AC4EDD1
:1028F000020A51480068514980B2B1F90010401AEB
:1029000000EE100AF8EEC00A9FED4D0A60EE800A54
:10291000C4ED030A4B4800684B4980B2B1F900107E
:10292000401A00EE900AF8EEE00A60EE800AC4ED6C
:10293000040A46480068464980B2B1F90010401ABE
:1029400000EE900AF8EEE00A20EE800A84ED050A17
:102950002878002860D0022805D003285DD00428FC
:102960005AD1FDF7D3FFFEF755FD94ED030AD4EDE0
:10297000040A30EE200AD4ED050A30EE200AB5EE46
:10298000C00AF1EE10FA01DCB1EE400A314D324ED0
:10299000D5ED1D0AB4EEE00AF1EE10FA08DDFFF7FE
:1029A00019FD012000F0E8F8706840F40020706024
:1029B00094ED030A60EE000A94ED040A40EE000A6A
:1029C00094ED050A40EE000A9FED240A60EE800AAD
:1029D00095ED1B0A20EE000AB4EEE00AF1EE10FAC3
:1029E00008D2FFF7F7FC012000F0C6F8706840F449
:1029F0000020706094ED0A0AD5ED1C0AB4EEE00ADE
:102A0000F1EE10FA08DDFFF7E5FC012000F0B4F864
:102A1000706840F40020706070BDBDE87040FEF743
:102A200063B80000100000200A0000207BDC7A3C24
:102A300068410020CDCC4C3D3C24014004000020E6
:102A4000F792D83C3C280140060000204028014075
:102A500008000020B841002010010020ABAA2A3F46
:102A60000748002101704170817006480160416093
:102A70000168C1604168826801614261704700007D
:102A8000100000201001002030B583B00020154D4B
:102A90002968A5F10C042268914202D00120216826
:102AA000296069686268914209D0606820B1FFF7C7
:102AB00091FC012000F060F801206168696048B174
:102AC000206800906068A268014601900292009818
:102AD000FEF76AFC02F07CF803B0BDE83040FEF778
:102AE00003BC00001C0100200448416889B2416019
:102AF0000C30416889B2416070470000100100202D
:102B000017480078002825D01648174990ED010A8B
:102B1000D1ED1A0A1548B4EEE00AF1EE10FA03DD21
:102B2000426842F400324260D1ED190AB4EEE00A84
:102B3000F1EE10FA03D2416841F4802141600C4962
:102B40004A7A322A02D8097A322903D9416841F0F7
:102B50000201416007494AF6AA2008607047000058
:102B60001000002068410020B84100201001002022
:102B7000C0000020003000402DE9F04100242F4D1E
:102B8000297800274FF00108002908D001290ED02C
:102B9000012850D0641EAF702046BDE8F0810128A6
:102BA00002D04FF0FF34F6E785F80180F3E7244EBA
:102BB00001280ED02449234A4FF0C808D1F88810C4
:102BC00002280CD003281AD0042824D04FF0FF3458
:102BD000E1E7FFF7FFFB378085F80180DBE750680E
:102BE00010B16FF00104D6E731B1FFF7DDFAA6F8B6
:102BF000008002206870CEE76FF00204CBE75068D7
:102C000010B16FF00104C6E7FFF7CEFAA6F8008016
:102C100003206870BFE7506810B16FF00104BAE795
:102C200031B1FFF7C1FAA6F8008004206870B2E75E
:102C30006FF00204AFE785F80180ACE710000020D8
:102C40000C00002010010020B8410020FFF7A4BABA
:102C5000FFF7A2BA10B54FF4407002F0F7F8094937
:102C60000020087008484FF480210160074A1021B5
:102C700082F8001401050160054A20211170C90382
:102C8000016010BD12E400E000E100E01CE000E0A3
:102C900014E400E02DE9F05F002400250026002761
:102CA000DFF8A8800121404603F005FA01214046E3
:102CB00003F004FA0028F9D00121404603F0FBF9A3
:102CC000402C1EDADFF88CA0DFF884900AF1040BA8
:102CD0000121404603F0F2F9012810D101214046BC
:102CE00003F0E9F9641CD9F8000080B20544DAF871
:102CF000000080B20644DBF8000080B20744402C9C
:102D0000E6DB95FBF4F001B21348018096FBF4F288
:102D100012B2428097FBF4F31BB283800020A1F231
:102D20008271B1F5C87F00D9401EA2F28271B1F55F
:102D3000C87F01D94FF0FF30A3F28271B1F5C87F8F
:102D400001D94FF0FF30BDE8F09F0000002C01409A
:102D50003C2401403C2801400400002010B5174CE1
:102D600000221146204603F0A5F80022012120464A
:102D700003F0A0F800220221204603F09BF8002275
:102D80001146204602F020FF00220121204602F0D9
:102D90001BFF00220221204602F016FF01212046DF
:102DA00003F089F90121204603F088F90028F9D0C1
:102DB0002046BDE81040012103F07DB9002C014000
:102DC00010B500201A490860091D0860091D086037
:102DD000184C0121204603F06EF90121204603F032
:102DE0006DF90028F9D00121204603F064F9012291
:102DF0000021204603F05EF801221146204603F030
:102E000059F801220221204603F054F8042200213F
:102E1000204602F0D9FE04220121204602F0D4FE11
:102E200020460422BDE81040022102F0CDBE000081
:102E3000342C0140002C014010B52F4C04212046B9
:102E400000F002FF0421204600F02AFF204600F097
:102E500087FE012001F0EAFB204600F024FE01215C
:102E6000204600F08EFF0421204600F019FF0421C7
:102E7000204600F0FFFE214C204600F071FE0120AC
:102E800001F0D4FB204600F00EFE201501F0C6FB39
:102E90001B4C204603F00AF90121204603F089F972
:102EA00040F2DC5117480160001D0160001D016007
:102EB00000221146204602F0FDFF0022012120469B
:102EC00002F0F8FF00220221204602F0F3FF002268
:102ED0001146204602F078FE00220121204602F031
:102EE00073FE00220221204602F06EFE2046BDE85D
:102EF0001040012103F051B9002401400028014095
:102F0000002C0140342C0140FFF746B910B54FF4B6
:102F1000C06002F029FC40F2026002F025FC40F2A1
:102F2000036002F021FC40F2046002F01DFC40F25C
:102F30000B6002F019FC4FF4E06002F015FC40F267
:102F4000096002F011FC40F20A6002F00DFC012061
:102F500002F088FA4FF4A06002F006FC40F219700B
:102F600002F002FC40F20C6002F0FEFBBDE81040F3
:102F700040F20E6002F0F8BB10B588B00E4C20464F
:102F800002F065FC01A802F0A4FC002102914FF4BC
:102F9000827201920391032206926215049210221A
:102FA0000792059101A9204602F07CFC204602F020
:102FB00049FC08B010BD000000300140FFF7ECB83C
:102FC00010B51148016841F4700101600F480168B3
:102FD00041F00101016000214160C162016821F4FA
:102FE000102121F0A85101604FF47F018160016838
:102FF00021F48021016002F0CBFDBDE810400021EA
:103000004FF0006001F02CBF88ED00E0001002409E
:1030100030B58DB0494D284602F080FF08A803F076
:10302000CAF80024ADF820404020ADF82200ADF8E9
:10303000244040F6B8300A90ADF82C408DF82E4070
:1030400008A9284603F042F805A802F05EFF012017
:10305000ADF814000420ADF81600ADF81840ADF836
:103060001A40ADF81C40ADF81E4005AA00212846C4
:1030700002F0CAFD05AA0121284602F0C5FD05AAF5
:103080000221284602F0C0FD05AA0321284602F0CD
:10309000BBFD00221146284602F0D2FE602200212C
:1030A000284602F0A3FE08220021284602F0D8FE9E
:1030B00000220121284602F0C3FE60220121284699
:1030C00002F094FE08220121284602F0C9FE0022E7
:1030D0000221284602F0B4FE60220221284602F0B6
:1030E00085FE08220221284602F0BAFE40F6B332DD
:1030F0000321284602F0A4FE70220321284602F094
:1031000075FE00220321284602F0AAFE01A802F063
:1031100052FDADF80440ADF80640ADF80840ADF8FA
:103120000A40ADF80C40ADF80E40ADF8104001A9D2
:10313000284602F02FFD0DB030BD0000002C0140EC
:1031400010B54FF080416FF001000861FFF7D8FC27
:1031500002480168491C016010BD00000000002009
:1031600000B585B04FF0804002F0D8FE684603F00D
:1031700022F80020ADF80000ADF80200ADF8040020
:103180004EF65F210291ADF80C0069464FF0804089
:1031900002F09CFF0121880702F0FCFF0121880753
:1031A00002F0F4FF4FF0804002F080FF05B000BD58
:1031B000414991F83C0000281CD1886B401C886371
:1031C00000EE100ADFED3D0AB8EE400A20EE200ABC
:1031D00008469FED3B2A90ED031AD0ED040AB5EEA8
:1031E000C00AF1EE10FA06D281ED001AC1ED010A13
:1031F00081ED022A7047D1ED0A1AF6EE002AF4EEAC
:10320000C01AF1EE10FA12DDD1ED061A00EE801AA6
:1032100021EEA22A60EE002A02EE221A81ED001AA7
:1032200041EE800AC1ED010AC1ED021A7047D1EDED
:103230000B0A71EEA00AF4EEC00AF1EE10FA0EDDF0
:1032400030EE610A91ED091AD1ED070A00EE801AFD
:1032500081ED001AC1ED010A81ED022A704791ED5E
:103260000D1A1548B4EEC01AD0ED050AF1EE10FAA9
:1032700012DD30EE410A91ED081A61EE221A20EEBD
:10328000002A41EE820AC1ED000A21EE000A81ED1A
:10329000010A81ED021A7047B4EEC01AF1EE10FA7D
:1032A000F9D8C1ED000A81ED012A81ED022A012041
:1032B00081F83C00704700002801002017B7513802
:1032C000000000000000000010B52DED0A8B84B056
:1032D000B0EE40AAF0EE609AF0EE418AB0EE61CA1C
:1032E000F0EE42AAF0EE62CA3AEE699AF0EE00BA47
:1032F00028EEA8BA6CEEAB0A8BEE200A10EE100A8C
:10330000FCF7BCFF0090019118EE900AFCF7B6FFA5
:10331000039102900199039861F31E0001909DEDC5
:10332000000B51EC100BFCF7BCFF00EE100A39EE5D
:10333000400A10EE100AC00F10B1BFEE008A01E083
:10334000B7EE008A624C28EE2A0A84ED060AB1EE36
:10335000481A61EE2C0AC4ED080A28EE0C0A84ED26
:10336000070A68EE281A20EE082AF4EEC21AF1EED7
:1033700010FA03DD21EE2A1A84ED061A30EE682ACF
:10338000D4ED061A82EE211A84ED0A1AF1EE402AD3
:1033900082EEA02A84ED0C2AF6EE00AA70EE282A0E
:1033A00021EE2A1A22EE2A2A21EE221A02EE001A11
:1033B00028EE092A68EE012AB4EEE22AF1EE10FAAC
:1033C00058D221EEAB0A20EE8B1A20EE200A70EEC6
:1033D000E10A00EE091A81EE200A10EE100AFCF74D
:1033E0004DFF9FED3DBB41EC100BB0EE4B1AF0EEE4
:1033F0006B1A00F04FFA51EC100BFCF752FF00EE85
:10340000100A00F00DFB20EE088A84ED078A78EEA2
:10341000680A94ED061A80EE810A10EE100AFCF795
:103420002DFF41EC110BB0EE4B0AF0EE6B0A00F0F1
:1034300031FA51EC100BFCF734FFA06294ED081A3E
:10344000F1EE480A80EE810A10EE100AFCF716FF32
:1034500041EC110BB0EE4B0AF0EE6B0A00F01AFAD9
:1034600051EC100BFCF71DFF20639FED1D0A84ED4E
:103470000B0A05E079EE410A80EE801A84ED0B1A02
:1034800094ED0A0AD4ED0B0A94ED0C1A70EE200AA2
:1034900070EE810AC4ED0D0AC4ED039AC4ED048AEE
:1034A00084ED05AA60EE000A48EE809A94ED060AC3
:1034B00020EE2A0A40EE209AC4ED099A0020A0636B
:1034C00084F83C0004B0BDEC0A8B10BD0000000085
:1034D00028010020000000000000000000000000A3
:1034E0000000000070B505460E4C204602F0BCFE00
:1034F0000021204602F029FF0021204602F017FF9C
:103500002946204602F072FE0421204602F009FFFF
:103510000821204602F013FF2046BDE8704002F06B
:10352000EDBE00000038014070B501F011FA104CFA
:103530002546104E3C2001F0B5F9284601F0C0F9AF
:1035400020B101F0B5F94FF0FF3070BD05F5806591
:10355000B542EFD301F0ACF92068B0F1FF3F02D0E3
:103560006FF0010070BD241DB442F5D3002070BD82
:1035700000CC010800F4010870B501F0E9F9104C25
:103580002546104E3C2001F08DF9284601F098F9AF
:1035900020B101F08DF94FF0FF3070BD05F5806569
:1035A000B542EFD301F084F92068B0F1FF3F02D0BB
:1035B0006FF0010070BD241DB442F5D3002070BD32
:1035C00000B8010800CC010870B500240F4D286830
:1035D000002804D142F21470FFF7AEF8286042F2DE
:1035E00014720B492868FCF702FE42F21071286839
:1035F00000F0CCFF296801F50051D1F81017814285
:1036000001D04FF0FF34204670BD00007C00002048
:1036100000CC010810B500244FF42672084909486F
:10362000FCF7E5FD4FF42571064800F0AFFF0549B2
:10363000D1F89412814200D0641E204610BD0000D3
:1036400000B80108B84100202DE9F041FFF76CFFF8
:1036500018B14FF0FF30BDE8F08101F079F9134C5B
:1036600042F21071206800F091FF266842F210715A
:10367000885100240E4D40F6C5173C2001F012F988
:1036800056F8241005EB840001F072F928B101F01E
:103690000FF96FF00100BDE8F081641CBC42ECD36F
:1036A00001F006F90020BDE8F08100007C00002058
:1036B00000CC010870B5FFF75FFF10B14FF0FF308D
:1036C00070BD01F045F94FF425710F4800F05EFF21
:1036D0000D49C1F894020D4600240C4E3C2001F027
:1036E000E1F855F8241006EB840001F041F920B10F
:1036F00001F0DEF86FF0010070BD641CA62CEDD364
:1037000001F0D6F8002070BDB841002000B80108D3
:1037100010B50A4C2068002804D142F21470FFF75B
:103720000BF8206000202168002241F2883321F844
:103730001020401C9842FAD310BD00007C000020ED
:103740003848002101609FED380A80ED010A9FEDA5
:10375000370A80ED020A0722C2609FED350A80ED2C
:10376000040A9FED340A80ED050AB2EE040A80EDEA
:10377000060ADFED310AC0ED070AF2EE000AC0EDDD
:10378000080AF0EE080AC0ED090A0122C263032309
:103790008362DFED2A0AC0ED0B0ADFED290AC0EDD6
:1037A0000C0ADFED280AC0ED0D0ADFED270AC0ED97
:1037B0000E0A0164F6EE000AC0ED110ADFED230ADD
:1037C000C0ED120ADFED220AC0ED130ADFED210A77
:1037D000C0ED140AF0EE000AC0ED150AF3EE0E0A71
:1037E000C0ED160A9FED1C1A80ED171A80ED181A0D
:1037F000B2EE081A80ED191AC0ED1A0AF3EE040AA7
:10380000C0ED1B0AF1EE040AC0ED1C0A80ED1D0A92
:103810008267C267C0F88010C0F88410C0F88810B2
:1038200070470000B841002017B7D138DAAC7A3DB4
:103830003D0A173FACC5A739000070420000204385
:10384000CDCC4C3D0AD7A33C00007A440AD7233C98
:10385000CDCCCC3D0000C84200004842FEF79CBCE5
:1038600010B54FF4106001F0D8FE4FF4106001F075
:10387000E3FE0128F9D10121BDE81040322001F01A
:10388000A3B80000014A024900F0FCB8A5490008AD
:103890008000002000B52DED048BB0EE418AF0EEE3
:1038A000618AB0EE409AF0EE609A83B053EC182B28
:1038B00051EC190BFCF7C2FE00F07040B0F1005F54
:1038C0001AD018EE101A18EE900A8DED008B002910
:1038D00018BF0121084320F00040C0F17F6000F1D3
:1038E000E040C00F01BFB0EE480AF0EE680A03B036
:1038F000BDEC048B08BF00BDB0EE490A03B0F0EE8A
:10390000690ABDEC048B00BD10B500212DED028BC2
:10391000B0EE408A4FF48050FCF7C0FE044618EE2B
:10392000100AFCF752FD08EE100A41F2100004EAFA
:103930000001FCF7B3FEB0EE480ABDEC028B10BDEF
:1039400010B52DED020B2DED088B84B09DED0C0B09
:1039500051EC100BFCF7FEFD41EC180B9DED0C0B30
:1039600053EC182B51EC100BFCF7EEFD41EC190B4E
:103970000D989FED290B10F0004F53EC102B51ECDC
:10398000190B9FED21AB9FED22BB0ED0FCF726FE5D
:103990000ED953EC1B2B51EC190BFCF737FE1CD244
:1039A00014E000BF41EC180B17E0FCF717FE06D23D
:1039B00053EC1A2B51EC180BFCF7C6FDF2E753EC55
:1039C0001B2B51EC190BFCF721FE06D853EC1A2BDC
:1039D00051EC180BFCF717FDE4E78DED028B9DED24
:1039E0000C0B18EE901A10EE900A8DED000B61F39F
:1039F0001E0003909DED020B04B0BDEC088B02B0DD
:103A000010BD000000000000000000000000F03FBA
:103A1000000000000000E03F000000000000E0BFE8
:103A200010B52DED028BB1EEC08A18EE100A20F011
:103A30000040C0F1FF40C00F0AD010EE100A20F085
:103A40000040C0F1FF40C00F04BF012000F014F897
:103A5000B0EE480ABDEC028B10BD02E008C8121F90
:103A600008C1002AFAD170477047002001E001C167
:103A7000121F002AFBD170470149086070470000FF
:103A8000840000202DE9F04116460F46044600252B
:103A900003E03946B047641C6D1C20780028F8D13B
:103AA0002846BDE8F081816841F0080181608168A5
:103AB00011F0080FFBD1816841F004018160816839
:103AC00011F0040FFBD17047521E01290DD00229BD
:103AD0000AD1816B21F440118163816B4FF4401353
:103AE00003EA0252114381637047C16A21F47001F5
:103AF000C162C16A4FF4700303EA02521143C1620A
:103B00007047002904D0816841F4006181607047EA
:103B1000816821F400618160704710B5A0F1804098
:103B2000B0F592300CD0B0F5806F13D140F20A306E
:103B300001F037FEBDE8104040F20A3001F022BE2D
:103B400040F2093001F02DFEBDE8104040F209308E
:103B500001F018BE10BD816841F48071816070472A
:103B6000816811F0010F03D1816841F0010181608A
:103B70007047002A0ED011F0010F03D0826842F482
:103B80008012826011F0020F03D0816841F400417D
:103B90008160704711F0010F03D0826822F4801217
:103BA000826011F0020FF4D0816821F4004181603D
:103BB0007047012909D0022906D1816821F4E0412A
:103BC00081608168114381607047816821F46021C0
:103BD0008160816811438160704710B4D0F838C0AB
:103BE000CCF30154D0F838C0091BC91C01EB81018A
:103BF0001F248C402CEA040C02FA01F141EA0C016A
:103C0000816307240A2A0DD2D0F810C002EB4201CA
:103C100004FA01F22CEA020203FA01F111430161F4
:103C200010BC7047122AFBD2D0F80CC0A2F10A01D6
:103C300001EB410104FA01F22CEA020203FA01F15C
:103C40001143C16010BC704711F0010F03D04268EE
:103C500022F04002426011F0020F03D0426822F0CD
:103C60002002426011F0040F03D0416821F080016E
:103C70004160704711F0010F03D0426842F04002EA
:103C8000426011F0020F03D0426842F0200242600D
:103C900011F0040F03D0416841F08001416070478A
:103CA000026822EA010101607047000004490A68C5
:103CB00022F470220A600A6810430860704700000E
:103CC0000424014010B41F2406290CD2D0F834C0BB
:103CD00001EB81018C402CEA040C02FA01F141EA6B
:103CE0000C0141631EE00C290DD2D0F830C0891FB1
:103CF00001EB81018C402CEA040C02FA01F141EA4B
:103D00000C0101630EE010290CD2D0F82CC00C3944
:103D100001EB81018C402CEA040C02FA01F141EA2A
:103D20000C01C16207240A2A0DD2D0F810C002EBA0
:103D3000420104FA01F22CEA020203FA01F11143F2
:103D4000016110BC7047122AFBD2D0F80CC0A2F15E
:103D50000A0101EB410104FA01F22CEA020203FA22
:103D600001F11143C16010BC7047D0F8802022F4EB
:103D70004052C0F88020D0F880201143C0F8801055
:103D8000704711F0010F03D0826842F48002826014
:103D900011F0020F03D0816841F400118160704777
:103DA000002A15D011F4807F03D0426842F480725B
:103DB000426011F4806F03D0426842F48062426036
:103DC00011F0020F03D0816841F002018160704759
:103DD00011F4807F03D0426822F48072426011F4B3
:103DE000806F03D0426822F48062426011F0020FBB
:103DF000EDD0816821F00201816070470A490A68AC
:103E000042F001020A600A6822F47C520A600A68E1
:103E10004FF47C5303EA002010430860086820F048
:103E200001000860704700000066004010B5A0F176
:103E30008041B1F5C84109D040F21A4001F0B1FC0F
:103E4000BDE8104040F21A4001F09CBC40F219401D
:103E500001F0A7FCBDE8104040F2194001F092BC0F
:103E60002DE9F0411B4E30681B4DE8602969814205
:103E70002ED02861194C1A4F10F0020F0FD00021DC
:103E8000384600F080FA0121384600F07CFA022121
:103E9000384600F078FA206840F020002060287B47
:103EA00010F0040F0FD00021384600F06CFA012109
:103EB000384600F068FA0221384600F064FA2068BB
:103EC00040F020002060384600F00CF87020306090
:103ED000BDE8F08118640040640000200C640040DC
:103EE000006400408069C0F30210704730B4817AEA
:103EF000012202FA01F1384B1A6842F001021A60FD
:103F0000DFF8D8C0DCF800208A43CCF80020C48950
:103F1000334A002C1CD114688C431460C488458833
:103F20002404C5EA04044589ED0005F1804505F542
:103F3000C045C5F84046848825040488C4EA0505C0
:103F40004489E40004F1804404F5C044C4F84456B4
:103F5000C489012C1CD114680C4314600288448865
:103F60001204C4EA02024489E40004F1804404F526
:103F7000C044C4F840268288C4881204C4EA0202FD
:103F80004489E40004F1804404F5C044C4F84426A4
:103F90008489144A64B114680C4314600489124A79
:103FA00054B114680C431460007C012808D00CE064
:103FB00014688C431460F1E714688C431460F3E7D1
:103FC000DCF800000843CCF80000186820F001007D
:103FD000186030BC70470000006600401C6600405E
:103FE0000C6600400466004014660040F0B585B0E1
:103FF00005460E4614461F466946012000F062F948
:10400000ADF80A704FF0000CADF80CC00127ADF808
:104010000E708DF810704FF6FF7101EA451001EA3D
:104020004611A4B1012C1DD04FF6FF7303EAC50160
:1040300003EAC603C5F34F3041F00401C6F34F3223
:1040400043F00403022C18D0032C21D0FEE7ADF876
:1040500008C0ADF80000ADF802C0ADF80410ADF82E
:1040600006C01FE0ADF80870ADF80000ADF802C062
:10407000ADF80410ADF806C014E0ADF808C0ADF816
:104080000000ADF80210ADF80420ADF8063009E0EC
:10409000ADF80870ADF80000ADF80210ADF80420DE
:1040A000ADF806306846FFF721FF05B0F0BD2DE9F9
:1040B000F0014FF6FF724FF0000C036823F002038B
:1040C0000360036843F00103036000E0521E43688D
:1040D00013F0010F01D1002AF8D1426812F0010F4C
:1040E00058D0026A4FF0F85312F0010F4FF47026C7
:1040F0004FF4E0574FF4E0044FF4C0454DD04A78F8
:1041000003EA02620B7842EA83738A7806EA02467F
:1041100007EA821232431343CA7804EA025405EADA
:10412000822222431A434B895B1EC3F309031A43BD
:10413000C2610A79012A54D0026822F0800202602A
:104140004A79012A52D0026822F0400202608A793C
:10415000012A50D0026822F020020260CA79012AA6
:104160004ED0026842F0100202600A7A012A4CD056
:10417000026822F008020260497A01294AD00168E7
:1041800021F004010160016821F0010101604FF696
:10419000FF7145E04FF0000C4BE042F0010202627B
:1041A00091F8018003EA086391F8008043EA887877
:1041B0008B7806EA034607EA8313334348EA03068B
:1041C000CB7804EA035405EA832323434C89334321
:1041D000641EC4F309042343C36122F00102026296
:1041E000A7E7026842F080020260A9E7026842F095
:1041F00040020260ABE7026842F020020260ADE7D5
:10420000026822F010020260AFE7026842F0080282
:104210000260B1E7016841F004010160B3E7491EA3
:10422000426812F0010F01D00029F8D109B14FF016
:10423000010CBDE8F00160467047426922EA0101C5
:10424000416170474269114341617047184A1168E2
:1042500011F0030F29D0174909684B0D016863F36A
:10426000170101601449096801F00F01C170134979
:104270000B6803710B681B0A43710B681B0C83717D
:104280000968090EC1710E490B6803720B681B0A9D
:1042900043720B681B0C83720968090EC1721068A7
:1042A00040F020001060012070470020704700009F
:1042B0000C640040B0650040B4650040B865004043
:1042C000BC65004030B400290BD001239C020022C1
:1042D0004FF0020C052855D2DFE800F004121D2A29
:1042E0003E00FEE74A71CA718A714C810A724A70B7
:1042F00081F802C0CA700A714A720A7030BC7047F5
:10430000CB810A740A810A804A808A80CA808A81A5
:104310004A8130BC70478C820A7481F811C08B745A
:104320008A70CA604B700A708A604A6030BC7047FD
:1043300081F84C2081F84D2081F84B2000200B188B
:10434000DA72401CC0B24028F9D38A724A600A72FD
:104350004A720A6030BC704781F84D2081F84E20C7
:1043600081F84C2000200B18DA72401CC0B24028A3
:10437000F9D38A724A600A7281F84B204A720A6045
:1043800030BC7047FEE700290CD0012913D0022968
:1043900007D1816841F400018160816811F4000F48
:1043A000FBD17047816841F080018160816811F024
:1043B000800FFBD17047816841F4004181608168C2
:1043C00011F4004FFBD1704700B529490A6812F07B
:1043D000806F01D000210CE00A6812F0006F01D05C
:1043E000012106E0096811F0805F01D0022100E0A0
:1043F0000321032939D002885205090101F18041C6
:1044000001F5C041C1F88025D1F8842522F0BF0212
:10441000C1F88425D1F884250368C3F303631A43E4
:10442000C1F884250279C37990F805C042EA036295
:1044300083791B0443EA0C231A43C1F88825027AC6
:10444000C37A42EA0362837A407A1B0443EA00207B
:104450001043C1F88C05D1F8800540F00100C1F887
:104460008005FCF791FF012000BD002000BD000089
:104470000864004080ED000A30EEC10ADFED030A57
:1044800020EE200A81ED000A704700003ACD133F6C
:104490002DE9F04104460F46204600F09EF8401EEC
:1044A00022280ADB21464FF0FF3000F061FB211D7E
:1044B000BDE8F041002000F05BBB114E06EB80052B
:1044C000D7B1FEF7E9F901280AD021464FF0FF30B5
:1044D00000F04EFB211DBDE8F041002000F048BB7C
:1044E0006068286096ED0E0AFDF7AEFF96ED150A9E
:1044F000BDE8F041FDF77CBA28686060BDE8F08156
:10450000B84100209FED1E1AF5EE000A40EE010AA8
:10451000BDEEE00A10EE100AF5EEC00AF1EE10FA58
:1045200000D2401E00EE100AB8EEC00A30EEC00AFB
:10453000DFED140A20EE200ABCEEC01A11EE100ABC
:1045400080B2B0F5007F02D3002030EE600A00EEAA
:10455000900AF8EE600A70EE600A0B4901EB8002E7
:1045600092ED000A401C01EB800090ED001AF7EE7E
:10457000001A71EEE01A21EE800A00EE810A7047FF
:1045800083F9223E00000044D463000810B484463E
:104590000020002200290BD9064B1CF8024084EAB7
:1045A000106453F8244084EA0020521C8A42F4D359
:1045B00010BC7047D86C000881B001788DF80010ED
:1045C00041788DF8011081788DF80210C0788DF84F
:1045D00003009DED000A01B0704781B001788DF8AD
:1045E000001041788DF8011081788DF80210C078A4
:1045F0008DF80300009801B0704781B001788DF804
:10460000001041788DF8011081788DF80210C07883
:104610008DF80300009801B07047000002494A6815
:104620001043486070470000002004E081B044F26D
:1046300030314843009000E000BF0098411E0091D7
:10464000FAD201B0704770B505460C46214628469F
:1046500000F07FF840B104EB840005EB8000816836
:1046600041F00101816070BDFEE770B505460C4662
:104670002146284600F06DF840B104EB840005EBBC
:104680008000816841F02001816070BDFEE770B557
:1046900004460D462946204600F05BF8A0B105EB24
:1046A000850004EB8002906820F0010090600020FB
:1046B0009060D060106150616068A9000F2202FA1A
:1046C00001F10843606070BDFEE770B506460D4617
:1046D00014462946304600F03CF8002829D005EB66
:1046E000850006EB800022680261A1684161218A91
:1046F00089B2C160816821F47C51E36862681A4321
:104700006369194311438160217E012912D08168B8
:1047100021F040018160617E012910D0816821F083
:1047200080018160A17E79B1816841F010018160D2
:1047300070BDFEE7816841F040018160EBE7816870
:1047400041F080018160EDE7816821F01001816016
:1047500070BD02460120A2F18043B3F5013302D1BE
:10476000042900D90020704710B5124800780528A8
:1047700015D2DFE800F0141403151900FDF780F8D6
:104780000D48016841F001010160016841F002013A
:104790000160016821F0040101600168C16010BD81
:1047A000BDE81040FCF7B0BCFDF76AF8BDE810406A
:1047B000FCF774B9100000201001002070B500F063
:1047C000C7F8104C2546104E3C2000F06BF82846E8
:1047D00000F076F820B100F06BF84FF0FF3070BDBC
:1047E00005F58065B542EFD300F062F82068B0F1BE
:1047F000FF3F02D06FF0010070BD241DB442F5D31D
:10480000002070BD00C800080090010870B5194C68
:1048100020780125052809D2DFE800F003091124DA
:104820002800FCF7A7FDFCF7AFFDA57070BD12498D
:10483000088810B1401E088070BDA57070BDFDF7DE
:10484000C9FD0E48016821F001010160016821F0F5
:1048500002010160016821F0040101600168C1608A
:10486000A57070BDFCF726F9A57070BDFCF740F887
:10487000A57070BD100000200C0000201001002069
:1048800001B42DED020B9DF8001001709DF8011090
:1048900041709DF8021081709DF80310C1700420D2
:1048A00003B070470149C860704700000020024013
:1048B0000248016941F08001016170470020024017
:1048C00070B505464FF4801000F018F8002811D19B
:1048D000094C206940F0020020616561206940F0C8
:1048E000400020614FF4801000F008F8216921F0A9
:1048F0000201216170BD00000020024010B5044695
:1049000000F00AF8641E012801D1002CF8D101281A
:1049100000D1052010BD000000200C49CA6812F02B
:10492000010F01D001207047CA6812F0100F01D0AA
:1049300004207047CA6812F0040F01D002207047AB
:10494000C96811F0080FFAD0032070470020024018
:104950000448016911F0800F03D003494160034905
:10496000416070470020024023016745AB89EFCDCD
:1049700070B506460D464FF48010FFF7BFFF0028C4
:104980000DD1074C206940F00100206135604FF4E3
:104990008010FFF7B3FF216921F00101216170BD93
:1049A0000020024070B50446064DE1B2284601F0F1
:1049B00057FC0721284601F0A6FC0028F9D0204624
:1049C00070BD00000038014010B4154B1A46154C5C
:1049D00045F2555CC4F800C0D4F80CC00CF0010CD2
:1049E000521E02D0BCF1000FF6D1BCF1000F02D074
:1049F00010BC002070476160E16801F002015B1E9D
:104A000001D00029F8D111B110BC00207047C0F3CB
:104A10000B00A0604AF6AA20206010BC012070475D
:104A2000FFFF0F000030004002494CF6CC40086008
:104A300070470000003000404161704701617047DD
:104A40002DE9F00301F00F0C11F0100F03D0042A30
:104A500018D04CEA020C00220F27012606FA02F4B5
:104A60001C4019D0D0F80080950007FA05F928EA13
:104A700009080CFA05F545EA0805282908D048294F
:104A800008D008E04CF0030CC26B1A43C263E2E7A3
:104A9000446100E004610560521C92B2082ADDD333
:104AA000082206FA02F41C4015D0D0F80480A2F1C6
:104AB0000805AD0007FA05F928EA09080CFA05F51A
:104AC00045EA0805282902D0482902D002E04461BD
:104AD00000E004614560521C92B2102AE1D3BDE8A7
:104AE000F003704741F480328261816182618169A3
:104AF0008069704770B4DFF874C010F0004F02D0C6
:104B0000DCF81C2001E0DCF80420C0F303444FF47F
:104B1000401333EA00054FEA50534FEA031386B2BD
:104B200006FA03F309D010F4801F0FD0032505FA0D
:104B300004F4A24342F0E0620BE022F0E062DCF811
:104B4000044024F0E064CCF8044002E09A4342F0D0
:104B5000E06201B11A4310F0004F03D0CCF81C20E2
:104B600070BC7047CCF8042070BC70470000014056
:104B700003B49DF8000008709DF8010048709DF88E
:104B8000020088709DF80300C870042002B07047CE
:104B900010B5F0EE402AB0EE603AF0EE413A03462E
:104BA0000C46B0EE630A00F00BFEB0EE402AB0EE09
:104BB000630AFFF7A7FC62EE800A43EE420AC3EDE8
:104BC000000A62EE820A43EE000AC4ED000A10BD3C
:104BD000404B986840490A68101A40080A2867D371
:104BE00008689860181D00783C4A4FF400514FF651
:104BF000FF7C012806D0022811D0032824D00428E5
:104C000053D13EE0588830B10A2806D064284CD9E8
:104C1000A3F802C049E0116147E0516145E05888BE
:104C200050B10A280AD014280AD01E280AD06428B5
:104C30003BD9A3F802C038E0116136E0516134E09D
:104C4000116132E0516130E0588870B10A280ED00D
:104C500014280ED01E280ED028280ED032280ED0B0
:104C6000962822D9A3F802C01FE011611DE051610E
:104C70001BE0116119E0516117E0116115E051610C
:104C800013E05888A8B10A2815D0142815D01E287A
:104C900015D0282815D0322815D03C2815D0462804
:104CA00015D0C82801D9A3F802C05888401C5880E4
:104CB00070471161F9E75161F7E71161F5E751615B
:104CC000F3E71161F1E75161EFE71161EDE7516140
:104CD000EBE700000C000020000000200010014065
:104CE00072B6FEF713F9FDF775FCFEF745F9FCF710
:104CF000FDFEFBF76FFDFBF7BFFDFEF789F9FEF741
:104D00002FFA4FF4E130FEF7EDFBFDF765FDFDF7FF
:104D1000A1FFFEF7A5FDFEF77DFC002842D0FEF7BF
:104D20000FFD26A0FEF7AEFDFEF74EFC00283DD09D
:104D3000FEF7EEFC2BA0FEF7A5FD354C94F87800AD
:104D4000FCF72CFBE06FFCF705FAFDF789FEFDF799
:104D50005DFBFEF771F8FCF7FBFEFCF753FBFFF77A
:104D600063FE62B6002200232A4D2B4CA868A042A5
:104D700003DD581CC3B2142B06D80220FFF756FCE3
:104D8000501CC2B2FA2AF1D3FDF784FF20B12348A8
:104D9000416841F0010141600120FDF7EDFEFDF7A2
:104DA00073FEFCE71EA0FEF76DFDBDE72049012064
:104DB000087020A0FEF766FDBFE70000436F6E6637
:104DC0006967206C6F61646564206661696C652049
:104DD00073657420746F2064656661756C740A0D68
:104DE00000000000436F6767696E67206D61702087
:104DF0006C6F61646564206661696C6520736574BD
:104E000020746F2064656661756C740A0D0A0D006C
:104E1000B8410020684100200000A041100100209E
:104E2000436F6E666967206C6F616465640A0D008C
:104E300040000020436F6767696E67206D617020D6
:104E40006C6F616465640A0D0A0D0000034940F04F
:104E5000FD7040F080600860704700000CED00E0DD
:104E600021F07F0121F0604108430149086070474B
:104E700008ED00E010B5F0EE402AB0EE603AF0EE3A
:104E8000413A03460C46B0EE630A00F099FCB0EEDE
:104E9000402AB0EE630AFFF735FB62EE800A43EE6C
:104EA000020AC3ED000A23EE000A02EEC20A84EDF4
:104EB000000A10BD70B5044600252088C0F3841098
:104EC000FB490978884201D0002877D1FCF752FAD3
:104ED000207800F03F00372880F06382DFE800F0A0
:104EE0001C2C3C5C7D9DABEFBBCBEFF0EDECEBEF16
:104EF000EAE9E8E7E6E5E4E3E2E1E0EFEFEFEFEF30
:104F0000EFEFEFEFEFEFEFEFEFEFEFEFEFEFEFEFB1
:104F1000EFEFDFDEDDDCDB00206810F07F4F40F0DC
:104F200040820120FDF728FE211DFFF721FE04200D
:104F3000E070012500F035BA206810F07F4F40F096
:104F400030820220FDF718FE211DFFF711FE04201C
:104F5000E070012500F025BA20680421B1EB106F44
:104F600040F01F82D34E306840B1201DFFF724FB74
:104F7000D148B1EE400A80ED050A05E0201DFFF79B
:104F80001BFBCD4880ED050A306C002840F00982FB
:104F9000FCF7F4FC00F005BA20680421B1EB106FB7
:104FA00040F0FF81C34E306848B1201DFFF704FB7D
:104FB000C148B1EE400A80ED040A06E0F8E1201D88
:104FC000FFF7FAFABC4880ED040A306C002840F084
:104FD000E881FCF7D3FC00F0E4B920680421B1EBD0
:104FE000106F40F0DE81B34E306840B1201DFFF7F6
:104FF000E3FAB148B1EE400A80ED030A05E0201D56
:10500000FFF7DAFAAC4880ED030A306C002840F074
:10501000C881FCF7B3FC00F0C4B9206810F07F4FE2
:1050200040F0BF81A348006C002800F0BA81FCF773
:10503000A5FC00F0B6B9206810F07F4F40F0B181B8
:105040000320FDF799FD211DFFF792FD0420E0707C
:10505000012500F0A6B9206810F07F4F40F0A18133
:105060000120FDF789FD211DFFF782FD0420E0707E
:10507000012500F096B9206810F07F4F40F0918133
:105080000420FDF779FD211DFFF772FD0420E0707B
:10509000012500F086B97AE162E15BE14DE13BE197
:1050A00023E111E1F6E0E9E0DAE0CBE0BCE0A1E0E9
:1050B00086E06BE047E032E021E011E000E0B2E0A2
:1050C000206810F07F4F40F06C810120FDF754FD07
:1050D000211DFFF74DFD0420E070012500F061B9AE
:1050E000206810F07F4F40F05C81FCF707FC211D29
:1050F000FFF73EFD0420E070012500F052B9206862
:1051000010F07F4F40F04D81FDF7EEFC211D002097
:10511000FFF72EFD0420E070012500F042B9206861
:1051200010F07F4F40F03D81644D2868211D01F053
:105130004CF8686804F1080101F047F80820E070B5
:10514000012500F02EB9206810F07F4F40F0298132
:105150005848016861B15A49D0ED020A201D91ED0D
:10516000070AB1EE400A20EE200AFFF789FB09E0AA
:105170005349D0ED020A201D91ED070A20EE200AC6
:10518000FFF77EFB0420E07001250AE1206810F0A3
:105190007F4F48D14748006840B14A4890ED090A1E
:1051A000201DB1EE400AFFF76BFB05E0454890ED8E
:1051B000090A201DFFF764FB0420E0700125F0E0E0
:1051C000206810F07F4F2ED13A48006840B13D482A
:1051D00090ED080A201DB1EE400AFFF751FB05E0F3
:1051E000384890ED080A201DFFF74AFB0420E070C4
:1051F0000125D6E0206810F07F4F14D12D480068BB
:1052000040B12F4890ED070A201DB1EE400AFFF78C
:1052100037FB05E02A4890ED070A201DFFF730FB19
:105220000420E0700125BCE0206810F07F4F5BD1C6
:10523000234890ED020A201DFFF722FB0420E070B6
:105240000125AEE0206810F07F4F4DD11C4890ED55
:105250000B0A201DFFF714FB0420E0700125A0E0DD
:10526000206810F07F4F3FD1154890ED0C0A201DAB
:10527000FFF706FB0420E070012592E02068082675
:10528000B6EB106F30D10121201DFFF701F9E67058
:10529000012586E020680421B1EB106F24D10021A4
:1052A000201DFFF7F5F80820E070012579E00000E7
:1052B00064000020B8410020880000201001002078
:1052C00068410020D0000020206810F07F4F68D196
:1052D000FEF7F0F90546FEF7B7F92844211DFFF760
:1052E00047FC0420E07001255BE0206810F07F4F50
:1052F00057D1FDF7D1FA012808D04FF0FF30211D1A
:10530000FFF736FC0420E07001254AE0FEF718FAAA
:10531000FEF7FEF90020F2E7206810F07F4F40D141
:10532000211D0320FFF724FC04F108010120FFF7F1
:105330001FFC0820E070012533E0206810F07F4F4B
:105340002FD1FCF7C5FB211DFFF712FC0420E070F4
:10535000012526E02068010E201DFCF7A5FB20E0BA
:1053600020680821B1EB106F1BD104F10800FFF792
:1053700044F90546201DFFF740F92946FCF756FB86
:10538000211DFFF7F5FB0420E070012509E02068EE
:1053900010F07F4F05D107484AF6AA210160FCF7BB
:1053A00069FB002D04D02046BDE87040FFF70CB823
:1053B00070BD0000003000404FF48041104810F0F4
:1053C000070F06D0C01D20F007000D49411AC1F596
:1053D00080410C4A1060002353600144083921F0D9
:1053E0000701103A11604B600B600B1A43600160BB
:1053F0004068906050604FF00040D06070470000FF
:10540000680100205C00002010B4144900E011463F
:105410000A688242FBD34B6803EB010C844503D13D
:1054200040681844486008460C68D0F804C00CEB8B
:105430000003A3420CD10A4B1B689A4206D0526863
:10544000624442600A681268026002E0036000E0A1
:105450000260814200D0086010BC70475C000020F0
:105460004C000020134A516821F4404121F0805142
:10547000D26A22F000520C2817D2DFE800F00606AC
:105480000606160916091010101041EA80310CE0CA
:1054900020F0040041EA803040F0805105E020F027
:1054A0000C0041EA803142F0005202484160C26281
:1054B000704700000010024030B488B084460020DD
:1054C00046A18C684B680A68C968069405930492E3
:1054D000079143A14A6809680392029140A14A6872
:1054E000096801920091414C6168C1F38102404911
:1054F000002A41D0012A3FD0022A3DD1626802F43D
:105500008032B2F5803F0DD04B106168C1F3834209
:10551000616811F0005F01D042F010020F2A21D221
:10552000921C20E0E26A02F0804202B13149E26A54
:1055300002F48032B2F5803F0DD1E26AC2F3031269
:10554000531CE26AC2F30322921C112A00D11422D6
:10555000B1FBF3F15143E26A02F00F02521CB1FBBE
:10556000F2F3D2E7521C03FB02F10F2A04D103EB42
:105570004301490001EB53016268C2F3031204AB1B
:105580009A5C21FA02F26368C3F3022302ADEB5C7A
:1055900022FA03F36468C4F3C2241DF8044022FA1B
:1055A00004F4BCF1000F0CD0BCF1010F0DD0BCF124
:1055B000020F0ED0BCF1030F00D1204608B030BC62
:1055C0007047084608B030BC7047104608B030BC81
:1055D0007047184608B030BC70470000000000005B
:1055E0000000000001020304060708090010024041
:1055F00000127A00006CDC02810901F1804101F5A2
:105600000431096800F01F00012202FA00F0014293
:1056100001D00120704700207047810901F18041CD
:1056200001F504310A6800F01F00012303FA00F0BD
:10563000104308607047000030B501460023002485
:105640000020484D1C2971D007DCA9B310290FD0C8
:10565000182962D01A2968D16DE0B1F5006F18D011
:10566000B1F5106F4BD0A1F54051103978D137E02A
:105670004FF6FF7503E01120FFF7BEFF5B1C08B972
:10568000AB42F8D11120FFF7B7FF002868D0012402
:1056900066E06FF07C4504E040F60100FFF7ACFFE8
:1056A0005B1C08B9AB42F7D140F60100FFF7A4FF3D
:1056B000002855D0012453E003E00120FFF79CFFB0
:1056C0005B1C10B9B3F5A06FF7D10120FFF794FF71
:1056D00058B3012444E043F21100FFF78DFF5B1C37
:1056E00008B9AB42F7D143F21100FFF785FFE0B1F3
:1056F000012435E040F60110FFF77EFF5B1C08B97E
:10570000AB42F7D140F60110FFF776FF68B10124F4
:1057100026E01920FFF770FF5B1C08B9AB42F8D1F7
:105720001920FFF769FF00B1012419E010E01B20E8
:10573000FFF762FF5B1C08B9AB42F8D11B20FFF7F3
:105740005BFF68B101240BE01D20FFF755FF5B1CD8
:1057500008B9AB42F8D11D20FFF74EFF00B101247C
:10576000204630BDFFFF0F00810901F1804101F5A6
:1057700004310A6800F01F00012303FA00F010430F
:1057800008607047810901F1804101F504310A6820
:1057900000F01F00012303FA00F022EA0000086075
:1057A0007047810901F1804101F504310A6800F078
:1057B0001F00012303FA00F0104308607047000047
:1057C000DFED1D0A60EE200ABDEEE01A11EE100AB0
:1057D000B5EEC00AF1EE10FA00D2401E00EE100A3B
:1057E000B8EEC00A30EEC00ADFED140A20EE200A3F
:1057F000BCEEC01A11EE100A80B2B0F5007F02D3E1
:10580000002030EE600A00EE900AF8EE600A70EEBA
:10581000600A0B4901EB800292ED000A401C01EB8B
:10582000800090ED001AF7EE001A71EEE01A21EEFA
:10583000800A00EE810A704783F9223E000000448E
:10584000D4630008016841F040010160704710B561
:10585000A0F18040B0F560500FD0B0F5806F16D049
:10586000B0F5784F1DD14FF44370FFF79AFFBDE8B4
:1058700010404FF44370FFF785BF40F20E40FFF732
:1058800090FFBDE8104040F20E40FFF77BBF40F2B2
:105890000F40FFF786FFBDE8104040F20F40FFF7D2
:1058A00071BF10BD026802F441520B681A434B6885
:1058B0001A438B681A43CB681A430B691A434B6926
:1058C0001A43896911430160C16921F40061C16112
:1058D00070470021016041608160C1604161816168
:1058E000704700009FED781A20EE811ADFED771ADD
:1058F000F5EEC00A60EEA11AF1EE10FA16DBB5EE75
:10590000C00AF1EE10FA08DBB4EEC01AF1EE10FA9C
:1059100001DD022320E001231EE0F4EEC01AF1EEC7
:1059200010FA01DD032317E0022315E0B5EEC00AEB
:10593000F1EE10FA08DBF4EEC01AF1EE10FA01DD18
:10594000052309E0062307E0B4EEC01AF1EE10FAD1
:1059500001DD042300E00523DFED5B4AB0EE402AC1
:1059600000EEE42A9FED5A1AF0EE402AF0EE401ABB
:1059700020EE813AB1EE401A40EEA42A50EEA41A6D
:1059800000EEE41AF7EE003AB6EE004A9FED510A37
:10599000072B20EE800A6AD2DFE803F0690415269F
:1059A0003748590033EEC20A30EE430A20EE040AAB
:1059B00080ED000A30EE020A81ED000A30EE030AA3
:1059C00082ED000A53E033EEE20A30EE610A20EE87
:1059D000040A81ED000A30EE210A80ED000A30EE63
:1059E000220A82ED000A42E033EEC30A30EE410A99
:1059F00020EE040A81ED000A30EE030A82ED000A6F
:105A000030EE010A80ED000A31E073EEE10A70EE3B
:105A1000C00A60EE840AC2ED000A30EE800A81ED11
:105A2000000A30EE210A80ED000A20E033EEC10AC0
:105A300030EE420A20EE040A82ED000A30EE010A3E
:105A400080ED000A30EE020A81ED000A0FE073EEED
:105A5000C00A70EEE20A60EE840AC0ED000A70EE41
:105A6000A20AC2ED000A30EE800A81ED000A90ED34
:105A7000000AB5EEC00AF1EE10FA1EDB10EE100AB5
:105A8000B0F17E5F19DC91ED000AB5EEC00AF1EECF
:105A900010FA12DB10EE100AB0F17E5F0DDC92ED11
:105AA000000AB5EEC00AF1EE10FA06DB10EE100A9D
:105AB000B0F17E5F01DC012000E0002008B1002091
:105AC00070474FF0FF3070473ACD133F3ACD13BFC8
:105AD0003ACD933F3ACD93BF00202A490A6842F459
