:020000040800F2
:10000000A08F0020B10200082F430008F50300086C
:100010002B43000807040008A96400080000000042
:10002000000000000000000000000000A5530008D0
:10003000170400080000000031430008A95300081D
:10004000CB020008CB020008CB020008CB0200085C
:10005000CB020008CB020008CB020008CB0200084C
:10006000CB020008CB020008CB020008CB0200083C
:10007000CB020008CB020008CB020008CB0200082C
:10008000CB020008CB020008CB020008CB0200081C
:10009000CB020008CB020008CB020008CB0200080C
:1000A000CB020008CB020008CB020008CB020008FC
:1000B000ED550008CB020008CB020008CB02000877
:1000C000CB020008CB020008CB020008CB020008DC
:1000D000CB020008CB020008CB020008CB020008CC
:1000E000CB020008CB02000800000000CB02000891
:1000F000CB020008CB020008CB020008CB020008AC
:10010000CB020008CB020008CB020008CB0200089B
:10011000CB020008CB020008CB020008CB0200088B
:10012000CB020008CB020008CB020008CB0200087B
:10013000CB020008CB020008CB020008CB0200086B
:1001400000000000000000000000000000000000AF
:10015000CB020008CB020008CB020008CB0200084B
:10016000CB020008CB020008CB020008CB0200083B
:10017000CB020008CB020008CB0200080000000000
:10018000CB020008CB0200086D570008CB02000824
:10019000CB020008CB020008CB020008CB0200080B
:1001A000CB020008CB020008CB020008CB020008FB
:1001B000CB020008CB020008CB020008CB020008EB
:1001C000CB020008CB020008CB020008CB020008DB
:1001D000CB020008CB020008CB020008CB020008CB
:1001E000CB020008CB020008CB020008CB020008BB
:1001F000CB020008CB020008CB020008CB020008AB
:10020000CB020008CB020008CB020008CB0200089A
:10021000CB020008CB020008CB020008CB0200088A
:10022000CB020008CB020008CB020008000000004F
:10023000CB020008CB02000800000000CB0200083F
:10024000CB020008CB020008CB020008CB0200085A
:10025000CB020008CB020008CB020008CB0200084A
:10026000CB020008CB020008CB020008CB0200083A
:10027000CB020008CB020008CB02000800000000FF
:10028000CB02000800000000CB02000800000000C4
:1002900000000000CB020008DFF810D000F098F852
:1002A00000480047F5770008AFF30080A08F0020DA
:1002B0000648804706480047FEE7FEE7FEE7FEE700
:1002C000FEE7FEE7FEE7FEE7FEE7FEE7595500081A
:1002D000990200082DE9F05F0546002092469B46F2
:1002E00088460646814640241BE02846414647464C
:1002F000224600F05CF853465A46C01A914110D38A
:1003000011461846224600F043F82D1A67EB010803
:100310004F4622460120002100F03AF817EB000971
:100320004E41201EA4F10104DFDC484631462A4636
:100330004346BDE8F09F40EA01039B0703D009E074
:1003400008C9121F08C0042AFAD203E011F8013BC1
:1003500000F8013B521EF9D27047D2B201E000F81A
:10036000012B491EFBD270470022F6E710B5134659
:100370000A4604461946FFF7F0FF204610BD034623
:1003800011F8012B00F8012B002AF9D1184670470B
:10039000202A04DB203A00FA02F100207047914045
:1003A000C2F1200320FA03F3194390407047202A3A
:1003B00004DB203A21FA02F00021704721FA02F30F
:1003C000D040C2F120029140084319467047000016
:1003D000064C074D06E0E06840F0010394E8070092
:1003E00098471034AC42F6D3FFF75AFF64800008F8
:1003F000848000081EF0040F0CBFEFF30880EFF3B9
:10040000098003F0D3BD00BFFEE710B504F0F4FD92
:1004100004F0A4FD10BD704710B506F0FDFB06F01A
:1004200045F804F0D7FC04F065FD06F0B3FF044680
:100430001CB904A006F0E8F803E0214606A006F087
:10044000E3F810BDCDE2B2BF534452414DB2E2CA0F
:10045000D4CDA8B9FD0D0A00CDE2B2BF534452413C
:100460004DB3F6B4EDA3ACB4EDCEF3B5A5D4AAB8B4
:10047000F6CAFDA3BA25640D0A00000070B5ADF5FB
:10048000806D34A006F0C0F807F016F828B93DA03A
:1004900006F0BAF80DF5806D70BD3FA006F0B4F817
:1004A000002004E0C6210DF80010411C88B2B0F510
:1004B000806FF7DB06F0A2FB04464FF48062002158
:1004C000684607F043F806F099FB0546281B4FF4F1
:1004D000205191FBF0F62A1B33464FF4806133A084
:1004E00006F092F8002004E000210DF80010411CF5
:1004F00088B2B0F5806FF7DB06F080FB04464FF45E
:1005000080620021684606F0E2FF06F077FB0546B0
:10051000281B4FF4205191FBF0F62A1B33464FF471
:1005200080612FA006F070F8002609E01DF8060093
:10053000C62803D037A006F067F804E0701C86B226
:10054000B6F5806FF2DB00BF37A006F05DF800BFA4
:10055000A0E700000D0A2A2A2A2A2A2A2A2A2A2A59
:100560002A2A2A2A2A2A2A2A2A2A2A2A2A2A2A2AEB
:100570002A2A2A2A2A2A2A2A2A2A2A2A2A2A2A2ADB
:100580002A0D0A000D0ABCECB2E2B2BBB5BD45456E
:1005900050524F4D210D0A000D0ABFAACABCB6C168
:1005A000D0B4454550524F4D2E0D0A00CAFDBEDD58
:1005B000B3A4B6C83A202564D7D6BDDA2C20D0B46F
:1005C000BAC4CAB13A2025646D732C20D0B4CBD9FB
:1005D000B6C83A2025644B422F730D0A0000000074
:1005E000CAFDBEDDB3A4B6C83A202564D7D6BDDAAD
:1005F0002C20B6C1BAC4CAB13A2025646D732C2030
:10060000B6C1CBD9B6C83A2025644B422F730D0A28
:1006100000000000454550524F4DCAFDBEDDD3D00D
:10062000CECACCE2210D0A00454550524F4DBCECDC
:10063000B2E2CDEAB1CFA3ACB6C1D0B4314B62794E
:100640007465CEDECECACCE22E0D0A0010B504F0E1
:100650005BF9044614A005F0D7FF21461EA005F063
:10066000D3FF2AA005F0D0FF06F0D6FA4FF480623F
:10067000002134A005F0C8FF07F0CCF84FF48062E9
:1006800000213DA005F0C0FF07F0DCF946A005F011
:10069000BBFF552007F072F920214EA005F0B4FFF2
:1006A00007F02CF910BD00000D0A2A2A2A2A2A2A4E
:1006B0002A2A2A2A2A2A2A2A2A2A2A2A2A2A2A2A9A
:1006C0002A2A2A2A2A2A2A2A2A2A2A2A2A2A2A2A8A
:1006D0002A2A2A2A2A0D0A000D0ABCECB2E2B5BD6C
:1006E000B4AED0D0466C6173682C204944203D20C4
:1006F000253038582C20D0CDBAC53A20574D323548
:10070000513235364A560D0A0000000020C8DDC1BE
:10071000BF203A2033324DD7D6BDDA2C20C9C8C706
:10072000F8B4F3D0A1203A2034303936D7D6BDDA28
:100730002C20D2B3B4F3D0A1A3BA323536D7D6BD6C
:10074000DA0D0A000D0AA1BE31202D20B6C1515389
:10075000504920466C6173682C20B5D8D6B73A3022
:10076000782558202CB3A4B6C83A2564D7D6BDDA6C
:10077000A1BF0D0A000000000D0AA1BE32202D20ED
:10078000D0B4515350466C6173682C20B5D8D6B79D
:100790003A307825582CB3A4B6C83A2564D7D6BDCC
:1007A000DAA1BF0D0A0000000D0AA1BE33202D20E2
:1007B000D0B45153504920466C617368C7B0313092
:1007C0004B42BFD5BCE42C20C8AB30783535A1BF37
:1007D0000D0A00000D0AA1BE34202D20B6C1D5FBA4
:1007E000B8F65153504920466C6173682C2025643B
:1007F0004DD7D6BDDAA1BF0D0A00000070B5ADF52A
:10080000006D06F03DFC36A005F0FEFE4048006895
:100810004049884205D040A005F0F6FE0DF5006D78
:1008200070BD43A005F0F0FE002004E085210DF826
:100830000010411C88B2B0F5006FF7DB06F0DEF95E
:100840000446002007F064F94FF400620021684676
:1008500007F096F906F0D2F90546281B4FF420510F
:1008600091FBF0F62A1B33464FF4006136A005F0E9
:10087000CBFE002004E000210DF80010411C88B2DE
:10088000B0F5006FF7DB06F0B9F904464FF40062EB
:100890000021684607F0F6F906F0B0F90546281B76
:1008A0004FF4205191FBF0F62A1B33464FF40061C0
:1008B00032A005F0A9FE002609E01DF806008528F3
:1008C00003D03BA005F0A0FE04E0701C86B2B6F594
:1008D000006FF2DB00BF3CA005F096FE00BF9DE775
:1008E0000D0A2A2A2A2A2A2A2A2A2A2A2A2A2A2AA5
:1008F0002A2A2A2A2A2A2A2A2A2A2A2A2A2A2A2A58
:100900002A2A2A2A2A2A2A2A2A2A2A2A2A0D0A00AE
:100910006044002021AAEF000D0ABCECB2E2B2BB99
:10092000B5BD4E414E4420466C617368210D0A00EE
:100930000D0ABFAACABCB6C1D0B44E414E4420462F
:100940006C6173682E0D0A00CAFDBEDDB3A4B6C883
:100950003A202564D7D6BDDA2C20D0B4BAC4CAB1A7
:100960003A2025646D732C20D0B4CBD9B6C83A2078
:1009700025644B422F730D0A00000000CAFDBEDD46
:10098000B3A4B6C83A202564D7D6BDDA2C20B6C1A8
:10099000BAC4CAB13A2025646D732C20B6C1CBD934
:1009A000B6C83A2025644B422F730D0A00000000A0
:1009B0004E414E4420466C617368CAFDBEDDD3D003
:1009C000CECACCE2210D0A004E414E4420466C6155
:1009D0007368BCECB2E2CDEAB1CFA3ACB6C1D0B47F
:1009E000324B62797465CEDECECACCE22E0D0A009F
:1009F00001B9704700BFFEE770B504461D460023ED
:100A0000B5F5804F13D154F822300C480340D1E99A
:100A1000000640EA06108E6840EA06208E8940EA09
:100A200006408E693043034344F8223003E06FF000
:100A3000704044F82200002070BD00000000F0CF9C
:100A400010B502460023086852F820301B480340C6
:100A5000D1E901042043CC6820430C6920434C6950
:100A600020438C692043CC6920430C6A20434C6AA4
:100A700020438C6A2043CC6A20430C6B20438C6B50
:100A800020434C6B204303438868082801D143F07E
:100A90004003086842F82030086BB0F5801F05D18C
:100AA000086818B110680C6B20431060086818B112
:100AB00010684C6B20431060002010BD8004C0FF04
:100AC00030B5034614460022601C53F8202002F083
:100AD0004042D1E9000540EA05108D6840EA052052
:100AE0008D8940EA0545088A401E45EA0055087D83
:100AF000801E45EA00608D6928430243601C43F86C
:100B00002020186800F4801038B1586820F4700272
:100B1000088A401E42EA00525A60002030BD30B5BB
:100B20000246002300240868012816D013686FF3DA
:100B30000E03D1E901052843CD6828430D692843F8
:100B40004D6928438D692843CD6928430D6A2843A0
:100B50004D6A28430343136019E0136823F4F843F4
:100B6000D1E9070528434D6A2843034354686FF3CE
:100B70000E04D1E901052843CD6828430D692843B7
:100B80004D6928438D692843044313605460002055
:100B900030BD0246506940EA410050610020704774
:100BA00018B5034600200090D1E9000420438C686A
:100BB000641E40EA4410CC6840EA4420009000984B
:100BC0001861002018BD000070B5034615460022CC
:100BD0000024012D1FD09A6802F070420868401E60
:100BE0004E68761E40EA06168868401E46EA0026D1
:100BF000C868401E46EA0036088A401E46EA00469B
:100C0000888A401E46EA0056087E401E46EA00607A
:100C100002439A6022E09A6811480240C868401E68
:100C20000603888A401E46EA00500243DC6804F04E
:100C300070440868401E4E68761E40EA06168868B2
:100C4000401E46EA0026088A401E46EA0046087E04
:100C5000401E46EA006004439A60DC60002070BDDC
:100C6000FF0F0FFF70B5044600F002FA0646254656
:100C7000681C10B104480078054400BF00F0F8F982
:100C8000801BA842FAD370BD4400002003480068CE
:100C900040F001000149086070470000200400583E
:100CA000F0B50C4600250022002300219DE001261E
:100CB00006FA01F504EA0502AA427DD106684FEA68
:100CC000410C032707FA0CF73E430660CF0800F1FA
:100CD000200656F827604F074FEAD76C0F2707FA10
:100CE0000CF7BE434FEAD10C00F1200747F82C6007
:100CF00086684FEA410C032707FA0CF7BE4386606B
:100D0000476801268E40B7434760C6684FEA410CEA
:100D1000032707FA0CF7BE43C660364E8F0856F815
:100D200027308E07370F0F26BE403340324EB04279
:100D300001D100262DE0314EB04201D1012628E03C
:100D40002F4EB04201D1022623E02E4EB04201D1F7
:100D500003261EE02C4EB04201D1042619E02B4E92
:100D6000B04201D1052614E0294EB04201D1062639
:100D70000FE0284EB04201D107260AE0264EB042CD
:100D800001D1082605E0254EB04201D1092600E038
:100D90000A268F073F0FBE409E4225D18E07370F90
:100DA0000F2606FA07F3134E8F0856F827609E4366
:100DB000104F4FEA910C00E016E047F82C60184EF7
:100DC000366896434FF0B047C7F880603E46D6F885
:100DD00084609643C7F884603E46366896433E601A
:100DE0003E46766896437E60491C1029FFF45FAF4B
:100DF000F0BD00000804005800000258000402582A
:100E000000080258000C0258001002580014025842
:100E100000180258001C02580020025800240258F2
:100E200080000058F8B502460B4600210026002439
:100E30000020824D00BFFCE0012707FA01F61F6881
:100E400007EA0604B4427CD15F68022F02D05F68D3
:100E5000122F1AD14FEAD10C02F1200757F82C00BB
:100E60004F074FEAD76C0F2707FA0CF7B8434FEA42
:100E7000417C4FEADC6C1F6907FA0CF738434FEAF4
:100E8000D10C02F1200747F82C0010684FEA410C02
:100E9000032707FA0CF7B8431F7907F003074FEA57
:100EA000410C07FA0CF7384310605F68012F08D037
:100EB0005F68022F05D05F68112F02D05F68122F84
:100EC00017D190684FEA410C032707FA0CF7B84393
:100ED0004FEA410CDF6807FA0CF73843906050681E
:100EE00001278F40B8431F79C7F300178F4038435D
:100EF0005060D0684FEA410C032707FA0CF7B8435B
:100F00004FEA410C9F6807FA0CF73843D0605F68DE
:100F100007F08057B7F1805F95D100BF484F3F6819
:100F200047F00207DFF818C1CCF8007067463F6849
:100F300007F00207009700BF00BF424F4FEA910C35
:100F400000E075E057F82C008F074FEA177C0F2759
:100F500007FA0CF7B8433C4FBA4201D100272DE005
:100F60003A4FBA4201D1012728E0394FBA4201D1A4
:100F7000022723E0374FBA4201D103271EE0364F44
:100F8000BA4201D1042719E0344FBA4201D10527F2
:100F900014E0334FBA4201D106270FE0314FBA4275
:100FA00001D107270AE0304FBA4201D1082705E0F6
:100FB0002E4FBA4201D1092700E00A274FEA817C6F
:100FC0004FEA1C7C07FA0CF738431E4F4FEA910C8E
:100FD00047F82C002868A0435F6807F48037B7F50E
:100FE000803F00D1204328606868A0435F6807F411
:100FF0000037B7F5003F00D1204368604FF0B0479D
:101000003868A0435F6807F48017B7F5801F00D1E8
:1010100020434FF0B04738607868A0435F6807F41A
:101020000017B7F5001F00D120434FF0B04778609C
:10103000491C1029FFF400AFF8BD000080000058E3
:10104000F4440258080400580000025800040258F2
:1010500000080258000C02580010025800140258F0
:1010600000180258001C02580020025800240258A0
:1010700001480068704700003C00002003480068F9
:101080000349097808440149086070473C00002082
:101090004400002010B5032000F0E2F80F2000F01B
:1010A00007F808B1012010BD00F08CF80020FAE725
:1010B00070B504460E4800784FF47A71B1FBF0F039
:1010C0000C490968B1FBF0F5284602F0FCFD08B1B7
:1010D000012070BD102C07D200222146501E00F0C6
:1010E00082F80548046001E00120F2E70020F0E703
:1010F0004400002048000020400000204178154AAC
:1011000011600178F9B1121D41681160017B090776
:10111000C27A41EA0261827A41EAC241427B41EAF3
:101120008241827B41EA4241C27B41EA0241427AEA
:1011300041EA0221027A41EA420102781143054A5A
:101140000832116005E00021024A121D1160121DD3
:101150001160704798ED00E000BF00BF00BFBFF313
:101160005F8F00BF00BF00BF0548006820F48030DB
:101170000349086000200249703108607047000090
:1011800024ED00E040F001010D4A11600C49703976
:10119000096841F480310A4A703A116000BF00BF0B
:1011A00000BFBFF34F8F00BF00BF00BF00BF00BF35
:1011B00000BFBFF36F8F00BF00BF00BF70470000CC
:1011C00094ED00E0704701460846002809DB00F076
:1011D0001F0301229A4043099B0003F1E023C3F857
:1011E000002100BF70472DE9F05F80460D4616468E
:1011F00005F01AFA074639462A46334601F0070039
:10120000C0F1070ABAF1040F02D94FF0040A01E055
:10121000C0F1070AD14600F1040ABAF1070F02D261
:101220004FF0000A01E0A0F1030AD4464FF0010A92
:101230000AFA09FAAAF1010A0AEA020A0AFA0CFAF7
:101240004FF0010B0BFA0CFBABF1010B0BEA030B9C
:101250004AEA0B042146404605F0EEF9BDE8F09F4E
:1012600000BF00F00702064B19684FF6FF03194054
:10127000044B0B4343EA0221014B196000BF704746
:101280000CED00E00000FA052DE9F84304460E4697
:1012900015461F464FF00108FFF7EAFE8146B06988
:1012A00000B100BFF06900B100BF306A00B100BFFB
:1012B00000BF94F84000012802D10220BDE8F88365
:1012C000012084F8400000BF94F8410001283CD17F
:1012D00000206064422084F841004B460022202117
:1012E0002046009703F068FB8046B8F1000F2ED12E
:1012F000286821688862686821684862A86821684F
:10130000C8622068006820F44000296941F4800127
:10131000084321680860E868B0624FF00062314617
:10132000204603F039F94B46012208212046009758
:1013300003F042FB8046B8F1000F08D10820216875
:10134000C860012084F8410001E04FF0020800BFAE
:10135000002084F8400000BF4046AFE72DE9F84385
:1013600004460D4616460127FFF782FE8046A8690F
:1013700000B100BFE86900B100BF286A00B100BF3A
:1013800000BF94F84000012802D10220BDE8F88394
:10139000012084F8400000BF94F84100012828D1C2
:1013A00000206064022084F841004346002220218E
:1013B0002046009603F000FB0746DFB900222946CD
:1013C000204603F0E9F8686A78B943460122022111
:1013D0002046009603F0F0FA07465FB90220216824
:1013E000C860012084F8410004E0012084F8410035
:1013F00000E0022700BF002084F8400000BF38460C
:10140000C4E710B504460CB9012010BD00BF94F824
:101410004000012801D10220F7E7012084F84000B4
:1014200000BF2068006820F00100216808602046A5
:1014300000F088F80020606484F8410000BF84F860
:10144000400000BF00BFE0E7F8B504460125FFF704
:101450000FFE06460CB90120F8BD206A402800D0D6
:1014600000BF00BF94F84000012801D10220F3E73B
:10147000012084F8400000BF94F8410050B90020DA
:1014800084F84000204600F095F841F2883120466B
:1014900000F0B3F92068006820F47061A068401E75
:1014A0004FF4706292FAA2F2B2FA82F290400143D3
:1014B00020680160A06C3346002220210090204665
:1014C00003F07AFA054695BB4FF07F4191FAA1F1FE
:1014D000B1FA81F160688840E1680843E169084336
:1014E000216A084321680968144A114008432168A9
:1014F00008604FF4F81191FAA1F1B1FA81F1206975
:10150000884061690843A1690843216849680C4A19
:1015100011400843216848602068006840F00100DD
:101520002168086000206064012084F8410000BF49
:10153000002084F8400000BF28468DE72FFFFF0001
:10154000FEF8E0FF10B5044640211748FFF7A8FB5E
:101550004FF480611548FFF7A3FB4FF480711348E7
:10156000FFF79EFB4FF400711048FFF799FB8021B5
:101570000E48FFF795FB40210C48FFF791FB0C4804
:10158000006840F480400A4908600846006820F47A
:101590008040086006485830006820F480400449C4
:1015A0005831086010BD000000180258001402589D
:1015B0007C44025810B586B0044600BF534800680A
:1015C00040F48040514908600846006800F48040BB
:1015D000009000BF00BF4D485838006840F480407C
:1015E0004A49583908600846006820F4804008607D
:1015F00000BF46480C30006840F0400043490C31C1
:1016000008600846006800F04000009000BF00BF7E
:1016100000BF0846006840F02000086008460068E7
:1016200000F02000009000BF00BF00BF0846006827
:1016300040F0200008600846006800F0200000909C
:1016400000BF00BF00BF0846006840F020000860EF
:101650000846006800F02000009000BF00BF00BFF7
:101660000846006840F0200008600846006800F066
:101670002000009000BF00BF00BF0846006840F097
:10168000200008600846006800F02000009000BFBD
:1016900000BF40200190022002900120039003200F
:1016A00004900A20059001A91948FFF7BBFB4FF4ED
:1016B00080600190002003900920059001A9154841
:1016C000FFF7B0FB4FF4807001900A20059001A94C
:1016D0001048FFF7A7FB4FF4007001900A20059017
:1016E00001A90C48FFF79EFB80200190092005907E
:1016F00001A90848FFF796FB4020019009200590BA
:1017000001A90448FFF78EFB06B010BDD44402586F
:1017100000180258001402582DE9F84F04460E46EE
:1017200017460025FFF7A4FC80462068D0F81890E3
:10173000206800F1200A00BF94F84000012802D17F
:101740000220BDE8F88F012084F8400000BF94F823
:101750004100012849D100206064002E3FD02220A2
:1017600084F8410020680069401CA063206800697B
:10177000401C606326632068406920F0406040F0B0
:101780008060216848612068C0F8189012E04346E4
:10179000012206212046009703F00EF9054605B107
:1017A0000BE09AF80010226B501C20631170A06BA4
:1017B000401EA063A06B0028E9D100BF5DB943467D
:1017C000012202212046009703F0F6F8054615B9DC
:1017D00002202168C860012084F8410006E0606CA6
:1017E00040F008006064012500E0022500BF0020F1
:1017F00084F8400000BF2846A3E7816470472DE9C4
:10180000F84304460E4617460025FFF731FC804694
:10181000206800F1200900BF94F84000012802D19F
:101820000220BDE8F883012084F8400000BF94F84E
:101830004100012844D100206064002E3AD01220DB
:1018400084F8410020680069401CE062206800695B
:10185000401CA06266622068406920F040602168F8
:10186000486112E04346012204212046009703F01C
:10187000A3F8054605B10BE0616A481C6062087870
:1018800089F80000E06A401EE062E06A0028E9D1C1
:1018900000BF5DB94346012202212046009703F0B4
:1018A0008BF8054615B902202168C860012084F82C
:1018B000410006E0606C40F008006064012500E033
:1018C000022500BF002084F8400000BF2846A8E79A
:1018D00010B501F067F90949096801F470614FF426
:1018E000807292FAA2F2B2FA82F2D140044A515CBA
:1018F000C840044908600846006810BD18440258F2
:10190000548000084800002010B501F003F9074991
:10191000096801F07001102292FAA2F2B2FA82F282
:10192000D140034A515CC84010BD00002044025819
:101930005480000870B501460022012000230024D5
:101940009FED811AB0EE410A9FED7F1AF0EE410A39
:101950007E4D2D6805F003027C4D2D68C5F30530E2
:101960007A4D2D1D2D6805F01003784D14352D6826
:10197000C5F3CC0515FB03F501EE105AB8EE411A7C
:10198000B0EE410A22B1012A4DD0022A7DD169E090
:101990006E4D283D2D68C5F340152DB36B4D283D88
:1019A0002D68C5F3C1066A4D25FA06F4B4FBF0F5BF
:1019B00001EE105AF8EE411A9FED661A80EE012AE8
:1019C000624D10352D68C5F3080501EE105AB8EECA
:1019D000411A32EE011AB7EE002A31EE021A21EE58
:1019E000811AF0EE410A1DE0594DB5FBF0F501EE0C
:1019F000105AF8EE411A9FED571A80EE012A534D06
:101A000010352D68C5F3080501EE105AB8EE411ADD
:101A100032EE011AB7EE002A31EE021A21EE811AD7
:101A2000F0EE410A5EE04C4DB5FBF0F501EE105AC8
:101A3000B8EE412A9FED471AC0EE011A434D10350A
:101A40002D68C5F3080501EE105AB8EE411A31EEC3
:101A5000811AF7EE001A31EE211A22EE011AF0EE89
:101A6000410A3FE03D4DB5FBF0F501EE105AF8EEAE
:101A7000411A9FED381A80EE012A344D10352D6839
:101A8000C5F3080501EE105A00E00CE0B8EE411A6B
:101A900032EE011AB7EE002A31EE021A21EE811A57
:101AA000F0EE410A1EE02C4DB5FBF0F501EE105AA8
:101AB000B8EE412A9FED271AC0EE011A234D1035CA
:101AC0002D68C5F3080501EE105AB8EE411A31EE43
:101AD000811AF7EE001A31EE211A22EE011AF0EE09
:101AE000410A00BF00BF194D10352D68C5F34625CA
:101AF0006D1C01EE105AB8EE411AC0EE811ABCEE10
:101B0000E11A81ED001A114D10352D68C5F3064517
:101B10006D1C01EE105AB8EE411AC0EE811ABCEEEF
:101B2000E11A81ED011A094D10352D68C5F30665DE
:101B30006D1C01EE105AB8EE411AC0EE811ABCEECF
:101B4000E11A81ED021A70BD00000000284402581D
:101B50000090D0030000004600093D0040787D0160
:101B600070B5014600220120002300249FED811A58
:101B7000B0EE410A9FED7F1AF0EE410A7E4D2D68CE
:101B800005F003027C4D2D68C5F305507A4D2D1DDF
:101B90002D6805F48073784D1C352D68C5F3CC0590
:101BA00015FB03F501EE105AB8EE411AB0EE410AEA
:101BB00022B1012A4DD0022A7DD169E06E4D283D27
:101BC0002D68C5F340152DB36B4D283D2D68C5F329
:101BD000C1066A4D25FA06F4B4FBF0F501EE105A81
:101BE000F8EE411A9FED661A80EE012A624D183513
:101BF0002D68C5F3080501EE105AB8EE411A32EE11
:101C0000011AB7EE002A31EE021A21EE811AF0EE27
:101C1000410A1DE0594DB5FBF0F501EE105AF8EE02
:101C2000411A9FED571A80EE012A534D18352D6841
:101C3000C5F3080501EE105AB8EE411A32EE011A4A
:101C4000B7EE002A31EE021A21EE811AF0EE410AB7
:101C50005EE04C4DB5FBF0F501EE105AB8EE412AAE
:101C60009FED471AC0EE011A434D18352D68C5F394
:101C7000080501EE105AB8EE411A31EE811AF7EE5E
:101C8000001A31EE211A22EE011AF0EE410A3FE06D
:101C90003D4DB5FBF0F501EE105AF8EE411A9FEDFF
:101CA000381A80EE012A344D18352D68C5F3080521
:101CB00001EE105A00E00CE0B8EE411A32EE011AC3
:101CC000B7EE002A31EE021A21EE811AF0EE410A37
:101CD0001EE02C4DB5FBF0F501EE105AB8EE412A8E
:101CE0009FED271AC0EE011A234D18352D68C5F354
:101CF000080501EE105AB8EE411A31EE811AF7EEDE
:101D0000001A31EE211A22EE011AF0EE410A00BF4C
:101D100000BF194D18352D68C5F346256D1C01EE21
:101D2000105AB8EE411AC0EE811ABCEEE11A81EDEC
:101D3000001A114D18352D68C5F306456D1C01EECE
:101D4000105AB8EE411AC0EE811ABCEEE11A81EDCC
:101D5000011A094D18352D68C5F306656D1C01EE95
:101D6000105AB8EE411AC0EE811ABCEEE11A81EDAC
:101D7000021A70BD00000000284402580090D003F1
:101D80000000004600093D0040787D012DE9F0414A
:101D9000044600250026206800F00060B0F1006FC6
:101DA00030D1606E48B1B0F5801F0DD0B0F5001F86
:101DB00010D0B0F5401F15D113E0F948006840F489
:101DC0000030F74908600FE00221201D02F0B0FE4C
:101DD000054609E0022104F1240002F041FF054616
:101DE00002E001E0012500BF00BF55B9EC482430F6
:101DF000006820F44010616E0843E949243108600E
:101E000000E02E43208800F48070B0F5807F2DD153
:101E1000606D05281AD2DFE800F0030A10171800D9
:101E2000DF48006840F40030DD49086010E0002120
:101E3000201D02F07DFE05460AE0002104F1240089
:101E400002F00EFF054603E002E001E0012500BFBD
:101E500000BF55B9D2482430006820F00700616DFA
:101E60000843CF492431086000E02E43208800F465
:101E70000070B0F5007F33D1A06D802817D003DC4F
:101E800040B140281CD10CE0C02817D0B0F5807FAD
:101E900016D114E0C248006840F40030C049086020
:101EA00010E00021201D02F043FE05460AE000215B
:101EB00004F1240002F0D4FE054603E002E001E054
:101EC000012500BF00BF55B9B5482430006820F493
:101ED000E070A16D0843B2492431086000E02E4350
:101EE000208800F48060B0F5806F38D1D4F8A40069
:101EF000B0F5800F19D004DC50B1B0F5001F1DD132
:101F00000DE0B0F5C00F17D0B0F5000F16D114E0FA
:101F1000A348006840F40030A149086010E00021A7
:101F2000201D02F005FE05460AE0002104F1240010
:101F300002F096FE054603E002E001E0012500BF45
:101F400000BF5DB996482C30006820F46000D4F8DA
:101F5000A410084392492C31086000E02E432088E9
:101F600000F40060B0F5006F38D1D4F8A800B0F1EB
:101F7000007F19D004DC50B1B0F1807F1DD10DE09D
:101F8000B0F1407F17D0B0F1806F16D114E08448D3
:101F9000006840F400308249086010E00021201DF4
:101FA00002F0C6FD05460AE0002104F1240002F01B
:101FB00057FE054603E002E001E0012500BF00BF37
:101FC0005DB977482C30006820F0E060D4F8A810A4
:101FD000084373492C31086000E02E43206800F06C
:101FE0000070B0F1007F27D1A06CA0B1102804D000
:101FF000202809D030280FD10CE06948006840F44F
:1020000000306749086009E00221201D02F090FDC0
:10201000054603E002E001E0012500BF00BF55B91D
:102020005F482030006820F03000A16C08435C4914
:102030002031086000E02E43208800F48050B0F585
:10204000805F36D1E06DB0F5005F19D004DC50B18F
:10205000B0F5805F1DD10DE0B0F5405F17D0B0F551
:10206000804F16D114E04E48006840F400304C49CF
:10207000086010E00021201D02F05AFD05460AE02C
:10208000002104F1240002F0EBFD054603E002E02C
:1020900001E0012500BF00BF55B941482430006868
:1020A00020F4E040E16D08433D492431086000E040
:1020B0002E43208800F40050B0F5005F34D1206E2C
:1020C000B0F5403F1DD007DC68B1B0F5803F0BD0C4
:1020D000B0F5003F18D10DE0B0F5802F12D0B0F56B
:1020E000A02F11D10FE011E00121201D02F020FDF1
:1020F00005460BE0012104F1240002F0B1FD054684
:1021000004E003E002E001E0012500BF00BF55B993
:1021100023482430006820F4E020216E0843204941
:102120002431086000E02E43208800F48040B0F5A0
:10213000804F38D1D4F8AC00B0F1405F1DD007DC3F
:1021400068B1B0F1805F0BD0B0F1005F18D10DE045
:10215000B0F1804F12D0B0F1A04F11D10FE011E0DB
:102160000121201D02F0E4FC05460BE0012104F1F1
:10217000240002F075FD054604E003E002E001E002
:10218000012500BF00BF6DB905482C30006820F064
:10219000E040D4F8AC10084301492C31086002E05B
:1021A0002C4402582E43208800F40040B0F5004F24
:1021B00026D1E06E98B1B0F1805F03D0B0F1005F3E
:1021C0000ED106E0FA48006840F40030F849086093
:1021D00008E00121201D02F0ABFC054602E001E011
:1021E000012500BF00BF55B9F1482430006820F038
:1021F0004050E16E0843EE492431086000E02E4370
:10220000206800F08070B0F1807F27D1606CA0B1B1
:10221000012804D0022809D003280FD10CE0E4489B
:10222000006840F40030E249086009E00221201D06
:1022300002F07EFC054603E002E001E0012500BF5C
:1022400000BF55B9DA482030006820F00300616C07
:102250000843D7492031086000E02E43206800F48D
:102260008000B0F5800F7DD1D248006840F48070C6
:10227000D0490860FEF7FCFE074606E0FEF7F8FED0
:10228000C01B642801D9032505E0CA48006800F492
:1022900080700028F2D000BF8DBBC5484430006874
:1022A00000F44070B4F8B01001F44071884214D0CA
:1022B000BF484430006820F44078BD48443000688E
:1022C00040F48030BA49443108600846006820F480
:1022D000803008600846C0F80080D4F8B000B0F53F
:1022E000807F15D1FEF7C4FE074609E0FEF7C0FE69
:1022F000C01B41F28831884202D9032507E038E04B
:10230000AB4844300068C0F340000028EED000BF66
:102310004DBB00BFB4F8B00000F44070B0F5407F92
:102320000ED1A3481C38006820F47C51A24AD4F88E
:10233000B000104041EA10109D491C39086007E0C8
:102340009B481C38006820F47C5099491C3908606F
:10235000974844300068B4F8B010C1F30B0108434B
:10236000934901E006E002E04431086002E02E43B8
:1023700000E02E43207800F0010068B3A06F182819
:1023800019D005DC48B1082808D0102816D10BE078
:10239000202811D0282811D10FE011E00121201DA3
:1023A00002F0C6FB05460BE0012104F1240002F017
:1023B00057FC054604E003E002E001E0012500BF10
:1023C00000BF55B97A482830006820F03800A16F66
:1023D000084377492831086000E02E43207800F058
:1023E0000200022828D1606F062815D2DFE800F02D
:1023F00003040A11121311E00121201D02F098FBC1
:1024000005460BE0012104F1240002F029FC0546F9
:1024100004E003E002E001E0012500BF00BF55B980
:1024200063482830006820F00700616F0843604966
:102430002831086000E02E43207800F004000428D2
:102440002AD1D4F89000062815D2DFE800F0030462
:102450000A11121311E00121201D02F069FB05464B
:102460000BE0012104F1240002F0FAFB054604E030
:1024700003E002E001E0012500BF00BF5DB94C4868
:102480002C30006820F00700D4F890100843484929
:102490002C31086000E02E43207800F02000202836
:1024A00036D1D4F88C00B0F1405F1DD007DC68B1A4
:1024B000B0F1805F0BD0B0F1005F18D10DE0B0F14A
:1024C000804F12D0B0F1A04F11D10FE011E00021E8
:1024D000201D02F02DFB05460BE0022104F1240033
:1024E00002F0BEFB054604E003E002E001E0012546
:1024F00000BF00BF5DB92E482830006820F0E040E2
:10250000D4F88C1008432A492831086000E02E4393
:10251000207800F04000402836D1D4F89800B0F57B
:10252000406F1DD007DC68B1B0F5806F0BD0B0F5FF
:10253000006F18D10DE0B0F5805F12D0B0F5A05F4C
:1025400011D10FE011E00021201D02F0F1FA054643
:102550000BE0022104F1240002F082FB054604E0B6
:1025600003E002E001E0012500BF00BF5DB91048B3
:102570002C30006820F4E050D4F8981008430C493F
:102580002C31086000E02E43207800F08000802885
:102590003BD1D4F89C00B0F5C04F24D00EDCA0B1E4
:1025A000B0F5005F12D0B0F5804F1FD114E00000ED
:1025B0002C44025800480258FFFCFF0FB0F5004FB2
:1025C00012D0B0F5204F11D10FE011E00021201DF5
:1025D00002F0AEFA05460BE0022104F1240002F0FD
:1025E0003FFB054604E003E002E001E0012500BFF7
:1025F00000BF4DB9B248006820F46040D4F89C1088
:102600000843AF49086000E02E43207800F008003E
:10261000082816D1D4F88000B0F5805F06D10221D9
:1026200004F1240002F01CFB06430AE0A448001F4A
:10263000006820F44050D4F880100843A049091FD6
:102640000860207800F01000102814D1D4F894000D
:10265000B0F5807F06D1022104F1240002F000FBD6
:10266000064308E09648006820F44070D4F89410BF
:10267000084393490860206800F40020B0F5002F5B
:1026800026D1D4F8A00030B1B0F5803F09D0B0F524
:10269000003F0ED10CE00021201D02F049FA054652
:1026A00009E0022104F1240002F0DAFA054602E012
:1026B00001E0012500BF00BF4DB98148006820F44A
:1026C0004030D4F8A01008437D49086000E02E4354
:1026D000206800F48020B0F5802F2DD1D4F884003C
:1026E000B0F5801F06D0B0F5001F0CD0B0F5401F2C
:1026F00011D10FE072482C38006840F40030704966
:102700002C39086009E0012104F1240002F0A8FA44
:10271000054602E001E0012500BF00BF5DB9684841
:10272000001F006820F44010D4F884100843644966
:10273000091F086000E02E43206800F48030B0F5E7
:10274000803F24D1E06C18B1B0F5803F0FD108E094
:102750005B482C38006840F4003059492C39086037
:1027600007E00221201D02F0E3F9054601E0012502
:1027700000BF00BF55B952480C38006820F48030C3
:10278000E16C08434E490C39086000E02E43206894
:1027900000F00050B0F1005F05D1022104F12400E7
:1027A00002F05EFA0643206800F40030B0F5003F06
:1027B00027D1E06FA0B1B0F5807F06D0B0F5007FE3
:1027C0000CD0B0F5407F0CD109E03D482C380068B2
:1027D00040F400303A492C39086004E003E002E09C
:1027E00001E0012500BF00BF55B93548001F006852
:1027F00020F44070E16F08433149091F086000E090
:102800002E43206800F48010B0F5801F09D12C48B9
:102810000838006820F00040216F08432849083933
:102820000860206800F08050B0F1805F0AD1244831
:102830004838006820F48040D4F8B4100843204998
:1028400048390860206800F40010B0F5001F09D175
:102850001B480838006820F08070A16E08431849B2
:1028600008390860206800F08040B0F1804F11D135
:1028700000BF13484838006820F400401049483928
:10288000086008460068D4F8B81008430C49483975
:10289000086000BF206800F00040B0F1004F09D18F
:1028A00007480C38006820F04050216D0843044967
:1028B0000C39086016B90020BDE8F0810120FBE763
:1028C0005844025870B504460D4600268D480068ED
:1028D00000F00700A8420ED28A48006820F00700E6
:1028E0002843884908600846006800F00700A842AD
:1028F00001D0012070BD207800F00200022807D12D
:102900008148006820F00F00E16808437E490860B4
:10291000207800F00100002851D07B48006820F4A6
:102920007060A1680843784908606068022807D190
:10293000754818380068C0F34040F8B90120D9E75D
:102940006068032807D1704818380068C0F34060F9
:10295000A0B90120CEE76068012807D16A4818387D
:102960000068C0F3002048B90120C3E76648183862
:102970000068C0F3800008B90120BBE7624808384E
:10298000006820F00700616808435F490839086063
:10299000FEF76EFB06466068022811D108E0FEF7DC
:1029A00067FB801B41F28831884201D90320A1E7EF
:1029B00055480838006800F038001028EFD13AE098
:1029C0006068032811D108E0FEF752FB801B41F23A
:1029D0008831884201D903208CE74B4808380068C9
:1029E00000F038001828EFD125E06068012811D1E7
:1029F00008E0FEF73DFB801B41F28831884201D997
:102A0000032077E740480838006800F038000828BD
:102A1000EFD110E008E0FEF72BFB801B41F288317C
:102A2000884201D9032065E737480838006800F07C
:102A300038000028EFD13348006800F00700A842B2
:102A40000ED93048006820F0070028432D4908605F
:102A50000846006800F00700A84201D0012049E7BD
:102A6000207800F00400042807D12748006820F0EF
:102A700070002169084324490860207800F00800AC
:102A8000082809D12048001D006820F07000616905
:102A900008431D49091D0860207800F01000102827
:102AA00009D11948001D006820F4E060A1690843BD
:102AB0001549091D0860207800F02000202809D160
:102AC00011480830006820F07000E16908430E49A1
:102AD0000831086000F066F80B49096801F470617C
:102AE0004FF4807292FAA2F2B2FA82F2D140074A0F
:102AF000515CC840064908600F20FEF7D9FA002053
:102B0000F8E60000002000521844025854800008E3
:102B10004800002010B5FEF7DBFE0949096801F006
:102B20000F01012292FAA2F2B2FA82F2D140054AD2
:102B3000515CC840044908600846006810BD0000A8
:102B400018440258548000084C00002010B5FFF7CC
:102B5000E1FF0749096801F07001102292FAA2F220
:102B6000B2FA82F2D140034A515CC84010BD000065
:102B70001C4402585480000810B5FFF7CBFF0749EA
:102B8000096801F4E0614FF4807292FAA2F2B2FA9D
:102B900082F2D140024A515CC84010BD1C44025828
:102BA0005480000870B5012500EE905A00220121E2
:102BB00000230024DFED861AB0EE610ADFED841AEF
:102BC000B0EE611A0020834D2D6805F0380535B14F
:102BD000082D15D0102D15D0182D7CD114E07D4D69
:102BE000103D2D68C5F3401545B17A4D103D2D6857
:102BF000C5F3C106784D25FA06F000E07648E5E019
:102C00007648E3E07648E1E0724D18352D6805F02E
:102C10000302704D18352D68C5F305116D4D1C3537
:102C20002D6805F001036B4D24352D68C5F3CC05E7
:102C300015FB03F501EE905AF8EE611AB0EE610A49
:102C400022B1012A4FD0022A7DD16BE0614D103DA7
:102C50002D68C5F340152DB35E4D103D2D68C5F3AD
:102C6000C1065D4D25FA06F4B4FBF1F501EE905A6C
:102C7000B8EE612ADFED5B1AC0EE212A554D2035F2
:102C80002D68C5F3080501EE905AF8EE611A72EE50
:102C9000A11AF7EE002A71EEA21A62EE211AB0EE26
:102CA000611A1FE04C4DB5FBF1F501EE905AB8EEFC
:102CB000612ADFED4C1AC0EE212A464D20352D68E1
:102CC000C5F3080501EE905AF8EE611A72EEA11AEA
:102CD000F7EE002A00E077E071EEA21A62EE211A08
:102CE000B0EE611A5EE03D4DB5FBF1F501EE905A94
:102CF000B8EE612ADFED3B1AC0EE212A354D2035B2
:102D00002D68C5F3080501EE905AF8EE611A72EECF
:102D1000A11AF7EE002A71EEA21A62EE211AB0EEA5
:102D2000611A3FE02E4DB5FBF1F501EE905AB8EE79
:102D3000612ADFED2C1AC0EE212A264D20352D68A0
:102D4000C5F3080500E00EE001EE905AF8EE611AB6
:102D500072EEA11AF7EE002A71EEA21A62EE211AA3
:102D6000B0EE611A1EE01D4DB5FBF1F501EE905A73
:102D7000F8EE612ADFED1B1A80EE212A154D203571
:102D80002D68C5F3080501EE905AF8EE611A72EE4F
:102D9000211AB7EE002A71EE821A62EEA11AB0EE85
:102DA000611A00BF00BF0B4D20352D68C5F34625C5
:102DB0006D1C00EE905AF8EE601A81EE212AFCEEAE
:102DC000C21A11EE900A01E0044800BF00BF70BDB6
:102DD00000000000104402580090D00300093D009C
:102DE00040787D010000004670B50446002520783B
:102DF00000F00100002872D0F948006800F03800A7
:102E000010280CD0F648006800F03800182812D1BD
:102E1000F3481830006800F0030002280BD1F04896
:102E200010380068C0F3404000286DD0606800286A
:102E30006AD1012070BD00BF6068B0F5803F08D145
:102E4000E7481038006840F48030E54910390860E0
:102E50002EE0606868B9E2481038006820F48030DD
:102E6000DF49103908600846006820F480200860B7
:102E70001EE06068B0F5A02F0DD1D9481038006869
:102E800040F48020D649103908600846006840F4B4
:102E9000803008600CE0D2481038006820F48030A0
:102EA000CF49103908600846006820F48020086087
:102EB00000BF6068A0B1FEF7DBF8054608E0FEF74A
:102EC000D7F8401B41F28831884201D90320B1E78D
:102ED000C34810380068C0F340400028EFD013E02A
:102EE000FEF7C6F8054608E0FEF7C2F8401B41F2BF
:102EF0008831884201D903209CE7B948103800681E
:102F0000C0F340400028EFD1207800F002000228F2
:102F100047D1B348006800F0380058B1B0480068A5
:102F200000F0380018283ED1AD481830006800F095
:102F30000300B8BBAA4810380068C0F3800018B17D
:102F4000E06808B9012075E7A5481038006820F04E
:102F50001900E1680843A24910390860FEF788F8B3
:102F6000054606E0FEF784F8401B022801D903203D
:102F700060E79B4810380068C0F380000028F1D05B
:102F800097480C38006820F47C304FF47C3292FA79
:102F9000A2F2B2FA82F221699140084390490C39B9
:102FA00008604AE0FFE7E06868B38D4810380068C1
:102FB00020F01900E1680843894910390860FEF7DC
:102FC00057F8054606E0FEF753F8401B022801D9E2
:102FD00003202FE7824810380068C0F380000028E3
:102FE000F1D07F480C38006820F47C304FF47C32FC
:102FF00092FAA2F2B2FA82F221699140084378492A
:103000000C39086019E076481038006820F001009B
:10301000734910390860FEF72BF8054606E0FEF705
:1030200027F8401B022801D9032003E76C48103819
:103030000068C0F380000028F1D1207800F0100073
:10304000102877D16648006800F0380008280CD0B6
:103050006348006800F03800182823D16048183011
:10306000006800F0030001281CD15D48103800689A
:10307000C0F3002020B1E069802801D00120D9E60A
:1030800057480C38006820F0F8404FF0F84292FAA8
:10309000A2F2B2FA82F2216A9140084350490C39F7
:1030A000086047E0E06958B34D481038006840F0C8
:1030B00080004B4910390860FDF7DAFF054606E04D
:1030C000FDF7D6FF401B022801D90320B2E6444891
:1030D00010380068C0F300200028F1D040480C38B8
:1030E000006820F0F8404FF0F84292FAA2F2B2FAEB
:1030F00082F2216A9140084339490C39086019E08D
:1031000037481038006820F08000354910390860D1
:10311000FDF7AEFF054606E0FDF7AAFF401B0228BB
:1031200001D9032086E62E4810380068C0F300203D
:103130000028F1D1207800F00800082836D1606915
:10314000D0B127486430006840F001002449643160
:103150000860FDF78DFF054606E0FDF789FF401B7F
:10316000022801D9032065E61D4864300068C0F3D9
:1031700040000028F1D019E019486430006820F0C0
:103180000100174964310860FDF772FF054606E04B
:10319000FDF76EFF401B022801D903204AE61048C4
:1031A00064300068C0F340000028F1D1207800F0BE
:1031B0002000202834D1A069D8B10948103800680F
:1031C00040F48050064910390860FDF751FF05466C
:1031D00008E0FDF74DFF401B022803D9032029E634
:1031E00010440258AF480068C0F340300028F0D0C7
:1031F00016E0AC48006820F48050AA490860FDF74A
:1032000037FF054606E0FDF733FF401B022801D9D2
:1032100003200FE6A3480068C0F340300028F2D135
:10322000207800F0040004287DD19F48006840F415
:1032300080709D490860FDF71BFF054606E0FDF71D
:1032400017FF401B642801D90320F3E59648006866
:1032500000F480700028F2D000BFA068012808D1D7
:1032600090487030006840F001008E49703108606D
:103270002DE0A06868B98B487030006820F001002C
:103280008849703108600846006820F00400086032
:103290001DE0A06805280DD182487030006840F01C
:1032A00004008049703108600846006840F0010061
:1032B00008600CE07B487030006820F0010079491C
:1032C000703108600846006820F00400086000BF04
:1032D000A068A0B1FDF7CCFE054608E0FDF7C8FEEA
:1032E000401B41F28831884201D90320A2E56D4894
:1032F00070300068C0F340000028EFD013E0FDF705
:10330000B7FE054608E0FDF7B3FE401B41F28831E9
:10331000884201D903208DE5624870300068C0F30F
:1033200040000028EFD1606A00287CD05D48103052
:10333000006800F03800182876D0606A022874D13E
:103340005848006820F0807056490860FDF790FEEC
:10335000054606E0FDF78CFE401B022801D903203C
:1033600068E550480068C0F340600028F2D100BF13
:10337000D4E90A1041EA00104A492831096840F2AC
:10338000F33291430843474928310860208E401E9C
:10339000C0F30800616B491E4FF47E4202EA4121EE
:1033A0000843218F491ED20102EA014108433C2112
:1033B000095D491E120202EA0161084339493031B0
:1033C000086000BF081D00684FF6F87188434FF68B
:1033D000F87292FAA2F2B2FA82F2A16C914008431A
:1033E0003049343108602F482C30006820F00C0040
:1033F000216C08432B492C3108600846006820F0F6
:103400000200616C084327492C31086008460068B7
:1034100040F4803008600846006840F400300860DE
:103420000846006802E03BE038E01FE040F48020FE
:1034300008600846006840F001000860194800680C
:1034400040F0807017490860FDF712FE054606E05F
:10345000FDF70EFE401B022801D90320EAE41148C3
:103460000068C0F340600028F2D019E00D48006801
:1034700020F080700B490860FDF7FAFD054606E074
:10348000FDF7F6FD401B022801D90320D2E40548D0
:103490000068C0F340600028F2D101E00120C9E4D7
:1034A0000020C7E4004402580048025870B50446A2
:1034B0000D460CB9012070BD94F82C0028B90020ED
:1034C00084F82D00204600F019F8022084F82C0022
:1034D000211D2068FDF723FB2946D4E90002FDF7F2
:1034E00073FB0548006840F0004003490860012074
:1034F00084F82C000020DEE700400052704770B5D1
:1035000004460D4694F82C00022800D170BD02201C
:1035100084F82C0029462068FDF73BFB012084F845
:103520002C000020F2E770B504460D46164694F8CC
:103530002C00022800D170BD022084F82C003246F5
:1035400029462068FDF72CFB2868022803D10520B6
:1035500084F82C0002E0012084F82C000020EAE727
:1035600070B50446002500260CB9012070BD606AC4
:1035700000B900BFA06AB0F5800F00D100BF8E492E
:10358000206888420CD08D492068884208D08C4938
:103590002068884204D0E0680F2801D90120E5E7BF
:1035A000204601F0D2FE064683492068884209D0B1
:1035B00082492068884205D081492068884201D02C
:1035C000082E0DD87C492068884207D07B492068A6
:1035D000884203D07A492068884203D1102E01D94D
:1035E0000120C3E7A06AB0F5800F1DD172492068A1
:1035F00088420DD071492068884209D070492068FE
:10360000884205D0206BB0F5702F01D90120ADE7BD
:10361000206B10B9A089050400E0256BE068B0EBD1
:10362000154F01D90120A1E794F8810028B90020A5
:1036300084F88000204600F0C5F8022084F881005C
:103640002068006820F0010021680860A069B0F1DE
:10365000806F0BD16068B0F5800F07D1A06B28B9DF
:103660002068006840F4805021680860A16AE06921
:1036700008432843E16B0843E168084321688860F8
:10368000616A606B0843A16B0843A1690843216923
:10369000084361690843216A084361680843E16C93
:1036A0000843A1680843A16C0843A16D0843216841
:1036B000C860A06AB0F5800F4DD1206C012806D1FA
:1036C0002068006840F400402168086005E0206838
:1036D000006820F4004021680860606C012806D171
:1036E0002068006840F480402168086005E0206898
:1036F000006820F48040216808602F4920688842D3
:103700000AD02E492068884206D02D492068884278
:1037100002D0B5F5702F0ED027492068884207D017
:1037200026492068884203D025492068884209D16B
:10373000B5F5F81F06D12068006840F400502168F4
:10374000086005E02068006820F4005021680860E7
:103750002168E06A0864606888B9A06A38B920689E
:10376000806820F4C05040F40060216888602068C0
:10377000806820F4C06040F4806021688860206820
:10378000006D20F0010021680865606800F4800089
:10379000B0F5800F07D12068C06820F00040616D4F
:1037A00008432168C8600020C4F88400012084F820
:1037B00081000020DAE600000030014000380040BF
:1037C000003C004010B586B0044600BF2A4800689F
:1037D00040F01000284908600846006800F010001A
:1037E000009000BF00BF00BF0846006840F0100016
:1037F00008600846006800F01000009000BF00BF9D
:1038000000BF0846006840F01000086008460068E5
:1038100000F01000009000BF00BF00BF164810303D
:10382000006840F4005014491031086008460068F0
:1038300000F40050009000BF00BF0420019002205F
:1038400002900390012004900520059001A90B48E7
:10385000FDF7E8FA202001900520059001A907480E
:10386000FDF7E0FA402001900520059001A90348EA
:10387000FDF7D8FA06B010BDE04402580010025817
:103880002DE9F84F0446884691461D460A9E0027BA
:10389000BA4600BF94F88000012802D10220BDE89A
:1038A000F88F012084F8800000BFFDF7E1FB074698
:1038B00094F88100012812D06068B0F5800F05D11E
:1038C000A06818B994F88100042808D04FF0020AC3
:1038D00000BF002084F8800000BF5046DFE7B8F149
:1038E000000F03D0B9F1000F00D045B94FF0010A25
:1038F00000BF002084F8800000BF5046CFE794F856
:103900008100042802D0052084F881000020C4F83A
:103910008400C4F86490A4F86A50A4F86850C4F80D
:103920005C80A4F86250A4F860502067606720684B
:1039300040686FF30F0028432168486020680068E2
:1039400040F00100216808606068B0F5800F05D183
:103950002068006840F4007021680860E0680F2863
:103960004CD942E0B4F8620088B12068406900F0A8
:10397000020002280BD1E06D006821680862E06D4A
:10398000001DE065B4F86200401EA4F86200B4F8BF
:103990006A0088B12068406948F20801084058B1BF
:1039A0002068006B616E0860606E001D6066B4F890
:1039B0006A00401EA4F86A00701CB0B1FDF758FB05
:1039C000C01BB04211D3204601F041FC00BF0020D3
:1039D00084F8800000BFD4F8840040F48070C4F8FC
:1039E0008400012084F8810059E7B4F862000028BF
:1039F000B8D1B4F86A000028B4D10FE1E068072814
:103A000071D966E0B4F8620020B32068406900F024
:103A1000020002281ED1B4F8620001280ED9E06B22
:103A200060B1E06D006821680862E06D001DE0652E
:103A3000B4F86200801EA4F862000BE0E06D00881C
:103A400021680884E06D801CE065B4F86200401EC7
:103A5000A4F86200B4F86A0010B32068406900F46A
:103A60006040E8B12068406900F4004060B120681F
:103A7000006B616E0860606E001D6066B4F86A00DD
:103A8000801EA4F86A000BE02068008E616E08803A
:103A9000606E801C6066B4F86A00401EA4F86A007C
:103AA000701CB0B1FDF7E4FAC01BB04211D3204640
:103AB00001F0CDFB00BF002084F8800000BFD4F8E7
:103AC000840040F48070C4F88400012084F88100F0
:103AD000E5E6B4F86200002894D1B4F86A00002842
:103AE00090D19BE0FFE790E0B4F8620058B3206803
:103AF000406900F00200022833D1B4F862000328C4
:103B00000FD9E06B40280CD9E06D0068216808628D
:103B1000E06D001DE065B4F86200001FA4F86200CB
:103B20001FE0B4F8620001280ED9E06B60B1E06DCF
:103B3000008821680884E06D801CE065B4F86200AC
:103B4000801EA4F862000CE0E06D0078216881F826
:103B50002000E06D401CE065B4F86200401EA4F84F
:103B60006200B4F86A0048B32068406900F460401D
:103B700020B32068406900F4004060B12068006B09
:103B8000616E0860606E001D6066B4F86A00001F18
:103B9000A4F86A0020E02068406900F4C040B0F555
:103BA000005F0CD92068008E616E0880606E801CFA
:103BB0006066B4F86A00801EA4F86A000CE0206811
:103BC00090F83000616E0870606E401C6066B4F85A
:103BD0006A00401EA4F86A00701CB0B1FDF748FAF4
:103BE000C01BB04211D3204601F031FB00BF0020C2
:103BF00084F8800000BFD4F8840040F48070C4F8DA
:103C00008400012084F8810049E6B4F862000028AD
:103C10007FF46AAFB4F86A000028F9D13B4600226D
:103C200008212046009601F09DFB28B1D4F88400BD
:103C300040F02000C4F88400204601F008FB00BFDB
:103C4000002084F8800000BF012084F88100D4F8AF
:103C5000840008B1012022E6002020E670B5044669
:103C60000E4615460CB9012070BD94F8450028B9E0
:103C7000002084F84400204600F024F804F10801F4
:103C80002068FCF7DDFE3146A2682068FCF718FFCB
:103C90002946E36AD4E90102FCF7AEFEA168206878
:103CA00050F8210040F00100A268216841F822008C
:103CB0000348006840F00040014908600020D3E755
:103CC00000400052704770B504462546681EB0F1AA
:103CD000807F01D301200FE0681E4FF0E021486192
:103CE0000F214FF0FF3002F0A7FC00204FF0E02141
:103CF000886107200861002070BD10B504460CB92A
:103D0000012010BD94F83D0028B9002084F83C0043
:103D1000204600F00CF8022084F83D00211D2068A8
:103D200001F0BEFC012084F83D000020E9E7704767
:103D30000146022081F83D000868008840F001003B
:103D40000A681080012081F83D000020704710B5FE
:103D500004460CB9012010BDA06900B100E000BF0D
:103D600094F8790028B9002084F87800204600F003
:103D70002AF8242084F879002068006820F00100E7
:103D800021680860204601F0A9FD012800D1E2E782
:103D9000606B10B1204601F0F1FC2068406820F40F
:103DA0009040216848602068806820F02A002168DF
:103DB00088602068006840F00100216808602046A3
:103DC00001F051FDC7E7704700B59BB04C2108A832
:103DD000FCF7CAFA1C2101A8FCF7C6FA184808909B
:103DE00018480990052001900220029003900120BC
:103DF0000490022005900690002007900A90002170
:103E00000B910C9120210D9100210E910F91109199
:103E10004FF4805111910021129113911491159139
:103E20001691179101AA01A908A8FFF717FF20B161
:103E30004FF4927104A0FCF7DBFD1BB000BD000045
:103E400000400052044100522E2E5C2E2E5C557311
:103E500065725C6273705C7372635C6273705F66E0
:103E60006D635F696F2E630000B587B000BF3E4889
:103E7000006840F008003C4908600846006800F00F
:103E80000800019000BF00BF00BF0846006840F076
:103E9000100008600846006800F01000019000BFA4
:103EA00000BF00BF0846006840F0400008600846B8
:103EB000006800F04000019000BF00BF00BF08464E
:103EC000006840F0800008600846006800F080004C
:103ED000019000BF00BF00BF0846006840F480703A
:103EE00008600846006800F48070019000BF00BFC1
:103EF00000BF1D480C38006840F480501A490C3946
:103F000008600846006800F48050019000BF00BFC0
:103F10000220039001200490032005900C200690BD
:103F20004CF2B370029002A91048FCF77BFF4FF6E9
:103F30008070029002A90E48FCF774FF03200290E3
:103F400002A90C48FCF76EFF4FF47F40029002A9D3
:103F50000948FCF767FF40F2CF60029002A90748CA
:103F6000FCF760FF07B000BDE0440258000C0258A7
:103F70000010025800180258001C02580020025875
:103F800029B9084A12688243064B1A6004E0054AC0
:103F900012680243034B1A60024A1268024B1A600D
:103FA00070470000200000200010006010B532496A
:103FB000096801F0004149B12F49096841F0004109
:103FC0002D4A11608169891C816110BD2A49083917
:103FD00009682A4A11622849091F097882F82410C1
:103FE0002549C91E0978916223490C310968D162BB
:103FF0002149891E098811861F49096851631E4994
:10400000091D096891631C4910310968D1631CA21C
:1040100000210BE0535C254C238500BF234BDB695B
:1040200003F04003002BF9D04B1CD9B22929F1D35E
:1040300000211F4A116000BF1D4909680029FBD0FB
:104040000E4A016811604168516081689160C168E1
:10405000D160016911614169516181699161C169F1
:10406000D1610021124A116000BF1149096800297D
:10407000FBD000BFA9E700002CED00E0607F00202E
:104080000D0A456E74657220486172644661756CF4
:10409000745F48616E646C65722C2053797374652B
:1040A0006D2048616C742E0D0A0000000010014064
:1040B0005000002000B5B5B00120019000201F90F5
:1040C00001A8FDF763FE00BF3448006840F001001E
:1040D000324908600846006800F00100009000BF07
:1040E00000BF00BF0846006840F0010008600846B5
:1040F000006800F00100009000BF00BF00BF27482B
:104100000830006840F080402449083108600846C3
:10411000006800F08040009000BF00BF4FF40040F6
:1041200030900220319001203290032033900B20F8
:10413000349030A91A48FCF775FE4FF48070309027
:104140000B20349030A91648FCF76CFE06220021A3
:104150005220FDF748F85220FDF735F80C230022D5
:104160004FF4E1310F4803F0C7F80E4820300068E3
:1041700040F040000B49203108600A4818300088A0
:1041800040F008000749183108800648006840F0F0
:1041900020000449086035B000BD0000E04402582A
:1041A00000000258007800402DE9F0410446082C38
:1041B00017DA0026FF27002508E0284600F030F82F
:1041C00010B1701CC6B22F46681CC5B2082DF4DBB6
:1041D000012E04D1A74202D10120BDE8F0810020C8
:1041E000FBE7082C0BD1002000F01AF828B10120C1
:1041F00000F016F808B10120EFE70020EDE7092CE8
:104200000BD1012000F00CF828B1022000F008F8D2
:1042100008B10120E1E70020DFE70020DDE7000032
:1042200001460B4850F831000069094B03EBC1030C
:104230009B88184008B9002200E00122044800EBE6
:10424000C1008079904201D1012070470020FCE735
:10425000B47F00081FB5FCF77FFF01208DF8000038
:104260004FF01050019012208DF8080003208DF8B7
:104270000B0001208DF80F008DF80E0000208DF846
:104280000D008DF8010001208DF80A0000208DF846
:1042900009008DF80C006846FCF730FF01208DF80E
:1042A00000004FF0C04001900F208DF8080003205F
:1042B0008DF80B0001208DF80F0000208DF80E0006
:1042C0008DF80D0001208DF8010000208DF80A0006
:1042D0008DF809008DF80C006846FCF70FFF0120EF
:1042E0008DF800004FF04040019018208DF8080034
:1042F00003208DF80B0001208DF80F008DF80E00C3
:1043000000208DF80D0002208DF8010001208DF8AD
:104310000A0000208DF809008DF80C006846FCF7B3
:10432000EDFE0420FCF72EFF1FBD00BFFEE7704727
:10433000704700002DE9F04117480468001D05682A
:10434000001D0668154800681549B0FBF1F73946AD
:1043500014A002F059F923462A4631461DA002F066
:1043600053F922A002F050F930A13AA002F04CF922
:104370003DA13EA002F048F941A144A002F044F959
:1043800047A002F041F952A002F03EF917A002F056
:104390003BF9BDE8F081000000E8F11F4800002073
:1043A00040420F00435055203A2053544D33324879
:1043B000373530584248362C205446424741323631
:1043C000352C20D6F7C6B53A2025644D487A0D0A1B
:1043D00000000000554944203D2025303858202554
:1043E00030385820253038580A0D00002A2A2A2A49
:1043F0002A2A2A2A2A2A2A2A2A2A2A2A2A2A2A2A1D
:104400002A2A2A2A2A2A2A2A2A2A2A2A2A2A2A2A0C
:104410002A2A2A2A2A2A2A2A2A2A2A2A2A2A2A2AFC
:104420002A2A2A2A2A2A2A2A2A0A0D004837353017
:104430002DCDE2B2BF534452414D2C4E4F522C4E23
:10444000414E442C454550524F4DD0D4C4DCB2E2CD
:10445000CAD400002A20C0FDB3CCC3FBB3C62020C1
:10446000203A2025730D0A00312E30002A20C0FD8D
:10447000B3CCB0E6B1BE2020203A2025730D0A004F
:10448000323032342D31322D323200002A20B7A2A0
:10449000B2BCC8D5C6DA2020203A2025730D0A0008
:1044A0002A2048414CBFE2B0E6B1BE20203A205657
:1044B000312E332E30202853544D333248377878FC
:1044C0002048414C20447269766572290D0A00002B
:1044D0002A20436F70797269676874207777772E26
:1044E00061726D666C792E636F6D20B0B2B8BBC01F
:1044F000B3B5E7D7D30D0A0010B594B00446382100
:1045000006A8FBF731FF18216846FBF72DFF4FF493
:1045100080700C904FF44050099000200E90119044
:10452000129013900520069000200D904FF080709F
:104530000F9000200B90012001900020009004902B
:1045400001200390102002908004059042F2107325
:104550006A4606A90548FCF797FE20B140F2CD1146
:1045600003A0FCF745FA14B010BD0000885D0020E0
:104570002E2E5C2E2E5C557365725C6273705C73BC
:1045800072635C6273705F717370695F77323571EB
:104590003235362E6300000030B54B6A33B1B2F1CC
:1045A000406F03D08B6A5B1E046823618B69002B0C
:1045B00071D00B6A002B48D08B680468E361CB692B
:1045C0002BB3D1E90B3423434C6B23434C6A234375
:1045D0004FF4F80595FAA5F5B5FA85F54C69AC40A8
:1045E00023430C6923430C6A2343CC682343CC69DF
:1045F00023438C6923430C6823431343046863619A
:10460000B2F1406F02D04B680468A361E8E0D1E9E1
:104610000B3423434C6B23434C6A23434FF4F8057C
:1046200095FAA5F5B5FA85F54C69AC4023430C69BC
:1046300023430C6A2343CC6923438C6923430C68CE
:104640002343134304686361CAE0CB6923B3D1E910
:104650000B3423434C6B23434C6A23434FF4F8053C
:1046600095FAA5F5B5FA85F54C69AC4023430C6A7B
:104670002343CC682343CC6923438C6923430C68D0
:104680002343134304686361B2F1406FBED04B68AB
:104690000468A361A4E01BE0D1E90B3423434C6B15
:1046A00023434C6A23434FF4F80595FAA5F5B5FA70
:1046B00085F54C69AC4023430C6A2343CC69234302
:1046C0008C6923430C68234313430468636187E0C8
:1046D0000B6AEBB38B680468E361CB691BB3D1E968
:1046E0000B3423434C6B23434C6A23434FF4F805AC
:1046F00095FAA5F5B5FA85F54C69AC4023430C69EC
:1047000023430C6A2343CC682343CC6923438C693D
:104710002343134304686361B2F1406F60D04B6878
:104720000468A3615CE0D1E90B3423434C6B234361
:104730004C6A23434FF4F80595FAA5F5B5FA85F5CB
:104740004C69AC4023430C6923430C6A234300E0CB
:1047500007E0CC6923438C692343134304686361F6
:104760003EE0CB690BB3D1E90B3423434C6B2343BD
:104770004C6A23434FF4F80595FAA5F5B5FA85F58B
:104780004C69AC4023430C6A2343CC682343CC6977
:1047900023438C692343134304686361B2F1406F80
:1047A0001ED04B680468A3611AE04B6AC3B1D1E91B
:1047B0000B3423434C6B23434C6A23434FF4F805DB
:1047C00095FAA5F5B5FA85F54C69AC4023430C6A1A
:1047D0002343CC6923438C692343134304686361F7
:1047E00030BD000010B58EB0044638216846FBF796
:1047F000BBFD134800F060F94FF4807006904FF451
:1048000040500390002008900B900C900D902120B8
:1048100000904FF48060079001940020099005906B
:1048200042F2107269460648FCF798FD18B1FB2168
:1048300004A0FCF7DDF80248FFF75EFE0EB010BDE5
:10484000885D00202E2E5C2E2E5C557365725C6296
:1048500073705C7372635C6273705F717370695FB5
:10486000773235713235362E6300000070B58EB068
:1048700004460D46164638216846FBF775FD4FF491
:10488000807006904FF440500390002008900B90E9
:104890000C900D90EC2000900620059040020790AF
:1048A000800309900A96019542F2107269460B48FE
:1048B000FCF754FD20B140F27D1109A0FCF798F8F7
:1048C00042F2107221460548FCF726FF20B140F263
:1048D000831103A0FCF78CF80EB070BD885D00203A
:1048E0002E2E5C2E2E5C557365725C6273705C7349
:1048F00072635C6273705F717370695F7732357178
:104900003235362E6300000010B590B0382102A871
:10491000FBF72AFD4FF4807008904FF4405005904B
:1049200000200A900D900E900F909F200290002082
:1049300009904FF080700B900020079003200C909E
:1049400042F2107202A91148FCF708FD20B140F2B2
:1049500015210FA0FCF74CF842F2107201A90B4888
:10496000FCF7DAFE20B140F21A2109A0FCF740F86A
:104970009DF8040000049DF8051040EA01209DF810
:10498000061040EA0104204610B010BD885D0020EA
:104990002E2E5C2E2E5C557365725C6273705C7398
:1049A00072635C6273705F717370695F77323571C7
:1049B0003235362E630000002DE9F04104460E46E4
:1049C00017469846069D12E0681C80B12DB1FCF791
:1049D0004FFBA0EB0800A84209D9042084F841004D
:1049E000606C40F0010060640120BDE8F081206847
:1049F0008068304008B1012000E00020B842E3D1D7
:104A00000020F2E770B58EB004460D4616463821F8
:104A10006846FBF7A9FC1D4800F04EF84FF4807083
:104A200006904FF440500390002008900B900C909B
:104A30004FF080500D9034200090002005904FF4EE
:104A4000806007904FF0407009900A96019542F2FD
:104A5000107269460D48FCF781FC20B140F24B1101
:104A60000BA0FBF7C5FF42F2107221460748FCF786
:104A7000C6FE20B14FF4A97105A0FBF7B9FF0348AA
:104A8000FFF73AFD01200EB070BD0000885D0020E8
:104A90002E2E5C2E2E5C557365725C6273705C7397
:104AA00072635C6273705F717370695F77323571C6
:104AB0003235362E6300000010B58EB00446382122
:104AC0006846FBF751FC4FF4807006904FF440505D
:104AD0000390002008900B900C900D900620009001
:104AE000002007900990059042F21072694605482F
:104AF000FCF734FC20B140F2A31103A0FBF778FFD0
:104B00000EB010BD885D00202E2E5C2E2E5C5573DD
:104B100065725C6273705C7372635C6273705F7108
:104B20007370695F773235713235362E630000005D
:104B30002DE9F04104460E4600274848006800F081
:104B40000300032802D10120BDE8F0814348283842
:104B5000006820F08060414928390860FCF788FA35
:104B6000054606E0FCF784FA401B022801D9032021
:104B7000EAE73A4828380068C0F3C0600028F1D15D
:104B800000BF3648006820F47C30216840EA0130DC
:104B900032490860A088401EC0F30800A168491E81
:104BA0004FF47E4202EA41210843A189491ED20105
:104BB00002EA01410843217C491E120202EA016116
:104BC000084326491031086000BF2448001D0068D2
:104BD00020F0C000616908432049091D08600846AB
:104BE000006820F02000A16908431C49091D0860E5
:104BF0002EB90846006840F40020086012E0012E3B
:104C000008D11648001D006840F480101349091DA2
:104C1000086007E01148001D006840F400100F49CB
:104C2000091D08600D482838006840F080600B4975
:104C300028390860FCF71CFA054606E0FCF718FA6C
:104C4000401B022801D903207EE704482838006869
:104C5000C0F3C0600028F1D0384675E728440258F8
:104C60002DE9F04104460E4600274848006800F050
:104C70000300032802D10120BDE8F0814348283811
:104C8000006820F08050414928390860FCF7F0F9AD
:104C9000054606E0FCF7ECF9401B022801D9032089
:104CA000EAE73A4828380068C0F340700028F1D19C
:104CB00000BF3648006820F07C70218840EA01502F
:104CC00032490860A088401EC0F30800A168491E50
:104CD0004FF47E4202EA41210843A189491ED201D4
:104CE00002EA01410843217C491E120202EA0161E5
:104CF000084326491831086000BF2448001D006899
:104D000020F44060616908432049091D0860084695
:104D1000006820F40070A16908431C49091D08605F
:104D20002EB90846006840F48000086012E0012EA9
:104D300008D11648001D006840F400001349091D01
:104D4000086007E01148001D006840F080700F49BE
:104D5000091D08600D482838006840F080500B4954
:104D600028390860FCF784F9054606E0FCF780F96D
:104D7000401B022801D903207EE704482838006838
:104D8000C0F340700028F1D0384675E72844025837
:104D900000B587B000BF0D48006840F002000B4925
:104DA00008600846006800F00200019000BF00BFE4
:104DB000012003900020049003200590042002901D
:104DC00002A90348FCF72EF807B000BDE0440258E2
:104DD000000402582DE9FC5F4FF0404401F00EFF43
:104DE00081463248406801904FF4802841E001CC70
:104DF000009001CC009001CC009001CC009001CC3F
:104E0000009001CC009001CC009001CC009001CC2E
:104E1000009001CC009001CC009001CC009001CC1E
:104E2000009001CC009001CC009001CC009001CC0E
:104E3000009001CC009001CC009001CC009001CCFE
:104E4000009001CC009001CC009001CC009001CCEE
:104E5000009001CC009001CC009001CC009001CCDE
:104E6000009001CC009001CC009001CC0090A8F102
:104E70000108B8F1000FBAD10C4846680198371AFA
:104E800001F0BCFE0546A5EB09004FF4FA4191FB89
:104E9000F0FA0748B7FBF0FBA5EB090153465A4669
:104EA00004A001F0B1FBBDE8FC9F0000001000E091
:104EB000801A0600A1BE33324D42CAFDBEDDB6C126
:104EC000BAC4CAB1A1BF3A20B7BDCABDD2BB3A2548
:104ED000646D732020B7BDCABDB6FE3A25646D73FC
:104EE0002C20B6C1CBD9B6C83A2025644D422F73C9
:104EF0000D0A000070B54FF04045002403E007485C
:104F000045F82400641CFF2CF9D94FF48063DA03C0
:104F10004FF0404102A001F077FB70BD5555AAAAA1
:104F2000CEEFC0EDB5D8D6B7A3BA30782530385813
:104F30002020B4F3D0A13A202564D7D6BDDA2020B2
:104F4000CFD4CABE3A202564D7D6BDDA2020CAFD08
:104F5000BEDDC8E7CFC23A200D0A000010B500231D
:104F6000234C236000BF00BF00BFBFF34F8F00BFC3
:104F700000BF00BF231F1868C0F34E3100BFC0F34D
:104F8000C90200BF43F6E07303EA41134FF0404407
:104F900004EA82742343174C236000BF00BF131E32
:104FA000A2F10102EED10B1EA1F10101E7D100BF78
:104FB00000BF00BFBFF34F8F00BF00BF00BF0C4B4F
:104FC000703B1B6843F48033094C703C236000BF86
:104FD00000BF00BFBFF34F8F00BF00BF00BF00BFC7
:104FE00000BF00BFBFF36F8F00BF00BF00BF10BD89
:104FF00084ED00E060EF00E000BF00BF00BFBFF342
:105000004F8F00BF00BF00BF00BF00BF00BFBFF396
:105010006F8F00BF00BF00BF00201449086000BFB1
:1050200000BF00BFBFF34F8F00BF00BF00BF00BF76
:1050300000BF00BFBFF36F8F00BF00BF00BF0C48B1
:10504000006840F400300A49086000BF00BF00BF9C
:10505000BFF34F8F00BF00BF00BF00BF00BF00BF46
:10506000BFF36F8F00BF00BF00BF704750EF00E07D
:1050700014ED00E000B587B000BF4948006840F07B
:105080000800474908600846006800F008000190E1
:1050900000BF00BF00BF0846006840F01000086075
:1050A0000846006800F01000019000BF00BF00BF7C
:1050B0000846006840F0200008600846006800F0DC
:1050C0002000019000BF00BF00BF0846006840F00C
:1050D000400008600846006800F04000019000BFF2
:1050E00000BF00BF0846006840F080000860084626
:1050F000006800F08000019000BF00BF00BF0846BC
:10510000006840F4807008600846006800F4807011
:10511000019000BF00BF00BF21480C38006840F478
:1051200080501F490C3908600846006800F4805020
:10513000019000BF00BF02200390012004900320D3
:1051400005900C2006904CF20370029002A91548BD
:10515000FBF768FE4FF68370029002A91248FBF736
:1051600061FE4FF63F00029002A91048FBF75AFE7D
:1051700048F23310029002A90D48FBF753FE4FF698
:105180002C70029002A90B48FBF74CFE40F2FF6026
:10519000029002A90848FBF745FE07B000BD0000D9
:1051A000E0440258000C0258001002580014025843
:1051B00000180258001C02580020025838B5054655
:1051C0000C4600200090012020601020606001202B
:1051D000A0600020E0604FF6FF7221462846FEF7EF
:1051E000A2F90120FBF73EFD022020601020606044
:1051F0000120A0600020E0604FF6FF7221462846A3
:10520000FEF791F903202060102060600820A06064
:105210000020E0604FF6FF7221462846FEF783F932
:105220004FF40C700090042020601020606001207A
:10523000A0600098E0604FF6FF7221462846FEF716
:1052400072F940F207612846FEF759F938BD026845
:1052500051690268926942F0080203689A61026823
:10526000926942F0100203689A610268126822F0A3
:10527000010203681A600268126940F26B339A43B4
:1052800003681A610268926822F4404203689A60D7
:1052900090F88120042A0ED001F020025AB1D0F8F3
:1052A000842042F08002C0F884200268926942F0B3
:1052B000200203689A6190F88120032A21D001F02E
:1052C00040025AB1D0F8842042F00402C0F8842091
:1052D0000268926942F0400203689A61826AB2F5FC
:1052E000800F0ED101F080025AB1D0F8842042F034
:1052F0000202C0F884200268926942F080020368CA
:105300009A6101F400725AB1D0F8842042F001028F
:10531000C0F884200268926942F4007203689A61BE
:1053200001F480725AB1D0F8842042F00802C0F82B
:1053300084200268926942F4807203689A610022B4
:10534000A0F86220A0F86A20704710B50146012439
:10535000C86B04EB5013C868421CD01DC20802FB86
:1053600003F010BD2DE9F04106460C46174698465D
:10537000069D0BE0681C48B12DB1FBF779FEA0EB50
:105380000800A84202D90320BDE8F08130684069D6
:105390002040A04201D1012000E00020B842E9D025
:1053A0000020F1E77047000010B5FBF767FE0448E6
:1053B000007800B910BD00F005F800BFFAE7000062
:1053C0001C00002010B51B48006840B11948006857
:1053D000401E1849086010B90120174908700024C0
:1053E00008E004EB4401154A02EB810001F0B8FF2C
:1053F000601CC4B2042CF4DB11480068401C104946
:105400000860084600686FF00041884202D1002021
:105410000B49086001F05CFF0A480078401CC0B2EC
:10542000084908700A2803DB0020087001F04CFFCF
:1054300010BD000010000020140000202C5500209A
:10544000180000201D00002010B59CB000243A4830
:10545000006820F004003849086000BF0020009078
:1054600035480C30006840F4404033490C31086046
:105470000846006800F44040009000BF00BF00BF35
:105480002D480C30006800F40050B0F5005FF7D1F3
:105490000120019000040290002004900890022056
:1054A0000A9002210B9105210C91A0210D9102215E
:1054B0000E91109104210F91002112910821119158
:1054C00001A8FDF791FC04461CB193211BA0FBF73A
:1054D0008FFA3F201490032015900020169008208A
:1054E000179040201890199000011A9040201B90AE
:1054F000042114A8FDF7E6F904461CB1AE210FA063
:10550000FBF776FA1348006840F080001149086004
:1055100000BF1048F430006840F002000D49F4313B
:1055200008600846006800F00200009000BF00BF5D
:10553000FBF7ACFB1CB010BD0C4802582E2E5C2EA5
:105540002E5C557365725C6273705C6273702E635F
:1055500000000000004402582048006840F4700039
:105560001E4908601E48006840F001001C490860A0
:1055700000201B491031086019480068194908408B
:10558000174908600020164918310860091D086095
:10559000091D0860124928310860091D0860091DAD
:1055A0000860091D0860091D0860091D0860091DC3
:1055B0000860091D08600A48006820F48020084936
:1055C0000860002006496031086001200649086033
:1055D000C0060249803908607047000088ED00E08D
:1055E000004402587FEDF6EA0881005170B50025AD
:1055F00000264FF08044206900F00205E06800F0CA
:1056000002065DB156B14FF6FD702061E0684FF6BD
:10561000FD710840E0601E4800688047206900F086
:105620000405E06800F004065DB156B14FF6FB706A
:105630002061E0684FF6FB710840E06015480068A3
:105640008047206900F00805E06800F008065DB1B9
:1056500056B14FF6F7702061E0684FF6F7710840D9
:10566000E0600D4800688047206900F01005E068A0
:1056700000F010065DB156B14FF6EF702061E068A2
:105680004FF6EF710840E06004480068804770BD45
:105690000000002004000020080000200C00002072
:1056A00010B500220288294B98420ED0B0F1804FED
:1056B0000BD0274B984208D0264B984205D0264B5A
:1056C000984202D0254B984203D122F070024B68D9
:1056D0001A431E4B984217D0B0F1804F14D01C4B88
:1056E000984211D01B4B98420ED01B4B98420BD0C6
:1056F0001A4B984208D01A4B984205D0194B984241
:1057000002D0194B984203D122F44072CB681A435D
:1057100022F080034C6943EA040202808B68C36272
:105720000B880385094B98420BD00C4B984208D04C
:105730000B4B984205D00B4B984202D00A4B984233
:1057400001D10B8A03860123436110BD0000014093
:105750000004004000080040000C0040000401402C
:1057600000400140004401400048014010B502489B
:1057700000F0BCFD10BD00005C55002090F8341016
:1057800001F0010139B10168496821F40031826BEF
:1057900011430268516090F8341001F0020139B1F0
:1057A0000168496821F48031C26B1143026851607D
:1057B00090F8341001F0040139B10168496821F40E
:1057C0008021026C11430268516090F8341001F09E
:1057D000080139B10168496821F40041426C114364
:1057E0000268516090F8341001F0100139B101687D
:1057F000896821F48051826C11430268916090F8AD
:10580000341001F0200139B10168896821F4005198
:10581000C26C11430268916090F8341001F04001AD
:1058200099B10168496821F48011026D1143026841
:105830005160016DB1F5801F07D10168496821F4FD
:10584000C001426D11430268516090F8341001F0BC
:10585000800139B10168496821F40021826D11434A
:1058600002685160704738B5044600250020E067A3
:10587000FBF7FEFB05462068006800F008000828DA
:105880000CD16FF07E402B4600224FF400110090A7
:10589000204600F0F5FC08B1032038BD2068006800
:1058A00000F0040004280CD16FF07E402B4600224B
:1058B0004FF480010090204600F0E2FC08B1032084
:1058C000EBE7202084F8790084F87A0000BF0020FC
:1058D00084F8780000BF00BFDFE700002DE9F04F3B
:1058E00089B0044600254FF08008A946AA4600204A
:1058F0000890FA492068884201D1012000E0002088
:1059000000B100E000BFA06AB0F1005F00D100BFAD
:105910002169A068084361690843E16940EA01051B
:10592000A06A054320680068ED49084028432168C3
:1059300008602068406820F44050E168084321680E
:105940004860A569E5492068884201D1012000E04E
:10595000002008B9206A0543A06AB0F1005F03D1B6
:10596000D4E90B010843054320688068DD490840FD
:105970002843216888602068C06A20F00F00616AAF
:1059800008432168C86200BFD7492068884224D1F3
:10599000D648006800F03800182814D005DC48B15B
:1059A00008280AD0102817D10AE020280ED028286D
:1059B00012D10EE04FF001080EE04FF004080BE0AA
:1059C0004FF0400808E04FF0080805E04FF01008DD
:1059D00002E04FF0200800BF17E1C5492068884267
:1059E0001DD1C248006800F00700062816D2DFE883
:1059F00000F00306090C0F124FF000080EE04FF004
:105A000004080BE04FF0400808E04FF0080805E0FC
:105A10004FF0100802E04FF0200800BFF5E0B54954
:105A2000206888421DD1B148006800F007000628B0
:105A300016D2DFE800F00306090C0F124FF0000841
:105A40000EE04FF004080BE04FF0400808E04FF084
:105A5000080805E04FF0100802E04FF0200800BFF2
:105A6000D3E0A549206888421DD1A048006800F015
:105A70000700062816D2DFE800F00306090C0F1213
:105A80004FF000080EE04FF004080BE04FF0400824
:105A900008E04FF0080805E04FF0100802E04FF072
:105AA000200800BFB1E09549206888421DD18F4889
:105AB000006800F00700062816D2DFE800F00306B1
:105AC000090C0F124FF000080EE04FF004080BE035
:105AD0004FF0400808E04FF0080805E04FF01008CC
