:020000040800F2
:10000000603600241104000801A60008F99C0008CD
:10001000F9A500080917000859C3000800000000EE
:1000200000000000000000000000000019B00008FF
:10003000F11C00080000000031A9000879B0000898
:100040002B0400082B0400082B0400082B040008D4
:100050002B0400082B0400082B0400082B040008C4
:100060002B0400082B0400082B04000811170008BB
:100070002B0400082B0400082B0400082B040008A4
:100080002B0400082B0400082B040008091D00089D
:10009000191D00082B0400082B0400082B0400087D
:1000A0002B0400082B0400082B0400082B04000874
:1000B0002B0400082B0400082B0400082B04000864
:1000C0002B0400082B0400082B0400082B04000854
:1000D0002B0400082B0400082B0400082B04000844
:1000E0002B0400082B040008000000002B0400086B
:1000F0002B0400082B0400082B0400082B04000824
:100100002B0400082B0400082B0400082B04000813
:100110002B0400082B0400082B04000881B30008FE
:100120002B0400082B0400082B0400082B040008F3
:100130002B0400082B0400082B0400082B040008E3
:1001400000000000000000000000000000000000AF
:100150002B0400082B0400082B0400082B040008C3
:100160002B0400082B0400082B0400082B040008B3
:100170002B0400082B0400082B04000800000000DA
:100180002B0400082B0400082B0400082B04000893
:100190002B0400082B0400082B0400082B04000883
:1001A0002B0400082B0400082B0400082B04000873
:1001B0002B0400082B0400082B0400082B04000863
:1001C0002B0400082B0400082B0400082B04000853
:1001D0002B0400082B0400082B0400082B04000843
:1001E0002B0400082B0400082B0400082B04000833
:1001F0002B0400082B0400082B0400082B04000823
:100200002B0400082B0400082B0400082B04000812
:100210002B0400082B0400082B0400082B04000802
:100220002B0400082B0400082B0400080000000029
:100230002B0400082B040008000000002B04000819
:100240002B0400082B0400082B0400082B040008D2
:100250002B0400082B0400082B0400082B040008C2
:100260002B0400082B0400082B0400082B040008B2
:100270002B0400082B0400082B04000800000000D9
:100280002B0400082B0400082B04000800000000C9
:10029000000000002B04000800F002F800F0A8F8AD
:1002A00014A696E8000CB244B344DA4501D100F03C
:1002B0009FF8BAE80F000FA696E83000A5EB0405FA
:1002C00004EB0607AAEB0704A7F101074FEA15158F
:1002D0004FEA3414A4F10104AC4201D300F088F8D1
:1002E00013F0010F18BFFB1A43F0010300F001F8EF
:1002F000DBE718473CCC00005CCC0000103A24BF80
:1003000078C878C1FAD8520724BF30C830C144BF7A
:1003100004680C6070470000704700000023002450
:1003200000250026103A28BF78C1FBD8520728BF05
:1003300030C148BF0B6070476E2900F019827029E8
:1003400000F05D8366290CF0248565290CF0218579
:1003500067290CF01E8561290CF01D8503681B0AB6
:1003600028BF41F08001692900F0C681642900F0AE
:10037000C381752900F0C0816F2900F0EB827829D4
:1003800000F02983E92900F08582E42900F08282C7
:10039000F52900F07F82EF2900F0E882F82900F0CB
:1003A00028830368DB0928BF41F08001632901F03D
:1003B0002980732901F02E80E32901F03980F32987
:1003C00001F03E80002070471FB50CF0D5FC01F015
:1003D0008DF80400002000210CF0B8FC401C606087
:1003E000002000210CF09CFCE0601FBD10B510BD8A
:1003F00001F04EF81146FFF7E7FF0CF015F801F099
:100400002BF903B4FFF7F2FF03BC01F073F900000E
:100410000948804709480047FEE7FEE7FEE7FEE798
:10042000FEE7FEE7FEE7FEE7FEE7FEE704480549D4
:10043000054A064B7047000021B2000899020008E7
:100440006006002460360024602600246026002414
:1004500053EA020C00F069802DE9F04B4FF00006E2
:10046000002B1FBFB3FA83F503FA05F424FA05F64F
:100470005E4012BF1643B2FA82F502FA05F4C5F1E6
:1004800020051EBF22FA05FC44EA0C04203556EA7A
:10049000044C4FEA144418BF641C4FF000084FF09E
:1004A0000009904271EB030C39D3002919BFB1FA4E
:1004B00081F701FA07F6B0FA80F700FA07F6C7F1FC
:1004C00020071EBF20FA07FC46EA0C062037B6FBC1
:1004D000F4FCA7EB0507103F07F01F0BCBF120063C
:1004E0002CFA06F60CFA0BFB44BFB3460026202F6D
:1004F000A4BF5E464FF0000B5BEA060C08BF4FF04E
:10050000010B19EB0B0948EB0608ABFB027C06FB61
:1005100002CC0BFB03CCC01B71EB0C01C1E70B46FB
:10052000024641464846BDE8F08B13B5084318BF64
:100530004FF0FF300146AFF30080BDE81C4070472C
:100540007CB51D4616460C00009007D04142A142E2
:1005500002D32044401E01E04FF0FF30064B7B44A5
:100560002A4669460190304600F01BF9002C02D063
:10057000009A002111707CBD6702000010B5203A7E
:10058000C0F00B80B1E81850A0E81850B1E818503E
:10059000A0E81850203ABFF4F5AF5FEA027C24BF10
:1005A000B1E81850A0E8185044BF18C918C0BDE8F9
:1005B00010405FEA827C24BF51F8043B40F8043BC2
:1005C00008BF7047D20728BF31F8023B48BF11F877
:1005D000012B28BF20F8023B48BF00F8012B7047D1
:1005E0004FF0000200B5134694469646203922BFCC
:1005F000A0E80C50A0E80C50B1F12001BFF4F7AF17
:10060000090728BFA0E80C5048BF0CC05DF804EBF8
:10061000890028BF40F8042B08BF704748BF20F866
:10062000022B11F0804F18BF00F8012B7047704764
:100630007047704770B5044685690068C10601D5EA
:10064000302600E02026C00707D070BDD4E9012184
:1006500030469047206A401C20626D1EF6D570BD62
:1006600070B5044685690078C00707D170BDD4E92C
:10067000012120209047206A401C20626D1EF6D583
:1006800070BD09684A0501D540B27047C905FCD55F
:1006900000B2704709684A0501D5C0B27047C90564
:1006A000FCD580B2704770B50C460546012A05D0CE
:1006B0002878800600D5EA69002302E0012305E0DE
:1006C0005B1C934202D2E05C0028F9D1A869E618CD
:1006D000C01AA861286A184428622846FFF7AAFFB2
:1006E00004E0D5E9012114F8010B9047B442F8D396
:1006F0002846FFF7B5FF70BD2DE9F04106460024FE
:1007000010687529314616A510D0FFF7BAFF0028EA
:1007100002DA404213A507E031688A0701D512A525
:1007200002E0490704D511A5012401E0FFF7B2FF5B
:1007300000210A2206F1240709E0B0FBF2FCB0FB1D
:10074000F2F302FB1C00303078541846491C002894
:10075000F3D123462A463046BDE8F04100F063BAA3
:10076000000000002D0000002B0000002000000011
:1007700011680268006A530501D508700AE0D305C4
:1007800001D5088006E0130603D5C217C1E90002AF
:1007900000E008600120704701694A1C0261087886
:1007A000704700B58FB0CDE90131002105910549B1
:1007B0007944CDE903101146684600F02BF90FB0DB
:1007C00000BD0000E5FFFFFFD1E900239A4202D2FD
:1007D000531C0B60107070472DE9FF5F15468A4669
:1007E0000446DFF8AC80F8440027D8E900103E4604
:1007F000CDE9001010E03AF816106A4602A800F0A1
:1008000023FE411C07D02178890603D5E2693918F7
:1008100091420DD80744761C2078800602D5E06905
:10082000B84205DDAE42E6DB3AF816000028E2D118
:10083000A069C01BA0612046FFF7FCFED8E90010AC
:10084000CDE90010002017E03AF818106A4602A817
:1008500000F0FAFDB0F1FF3F81460BD000250DF10D
:10086000080B05E0D4E901211BF8050090476D1C39
:100870004D45F7D308F10100B0428046E4DB206A21
:10088000384420622046FFF7EBFEBDE8FF9F0000E2
:10089000B2C500002DE9F0418046D21D22F00702CA
:1008A0000025D2E90002F52915A614D0011E72F127
:1008B000000106DA0023D0EB030063EB020211A66D
:1008C00008E0D8F800108B0701D50FA602E0490711
:1008D00001D50EA601251146002408F1240704E0E5
:1008E00000F05CF930323A55641C50EA0102F7D14D
:1008F0002B46324621464046BDE8F04100F093B910
:10090000000000002D0000002B000000200000006F
:1009100030B4002100F1240408E002F00705D208F9
:10092000303542EA4372DB086554491C52EA03053C
:10093000F3D10468002310A2250708D504F0200491
:100940000C4304D0C46901230CA2641EC46130BCF2
:1009500000F069B910B5044621461068FFF79AFE09
:1009600002462046BDE810400023D1E7D21D22F008
:100970000701D1E90023CBE70000000030000000B0
:10098000F0B40D460188090502D5214C7C4402E0F3
:100990001F4C7C440E34002100F1240608E002F0D4
:1009A0000F071209E75D42EA03721B097754491CDD
:1009B00052EA0307F3D102780023120704D5702D01
:1009C00006D009B1022311342246F0BC00F02BB945
:1009D00001231034F8E770B504460D46214610682F
:1009E000FFF758FE024629462046BDE87040002326
:1009F000C6E7D21D22F00703D3E90023C0E703684E
:100A0000126843F0200303600823C3610023B7E7A3
:100A100014C400002DE9F05F894604464FF0000A37
:100A2000DFF874B1FB44C0F820A02046E168884795
:100A3000002874D0252806D0D4E901219047206AE7
:100A4000401C2062F1E700265F462046E1688847A7
:100A50002028054607DB312D05D2781910F8200C27
:100A600008B10643F1E7B00701D526F00406C4F843
:100A70001CA00027C4F818A02A2D09D028460CF085
:100A800047F938B304EB8708303DC8F8185019E02F
:100A900059F8041B204604EB87029161E1688847FE
:100AA000012F054618D1E069002820DA26F020063B
:100AB0001DE0D8F8180000EB800005EB400030384E
:100AC000C8F818002046E168884705460CF020F970
:100AD0000028EED1012F0AD02E2D08D12046E16842
:100AE00088477F1C0546022F46F02006C4DBA0691C
:100AF000002803DA404246F00106A061F00701D069
:100B000026F010066C2D0BD0682D09D04C2D39D055
:100B10006A2D35D0742D35D07A2D33D016E038E0DB
:100B2000E1682F4620468847B842054609D16C2F18
:100B300026D04FF48060E16806432046884705468A
:100B400004E06C2F1AD04FF4807006430DB3A5F16A
:100B50004100192802D8203546F400664A46294645
:100B6000204626604E46FFF7E7FB80B101280BD0F8
:100B7000F61D26F0070000F1080956E74020E4E7DB
:100B80008020D8E70020D6E706F104094DE7284683
:100B900052E7206ABDE8F09FA4C3000030B5B0F171
:100BA0000A0271F100034FEA900E4EEA817EB0EB2B
:100BB0000E0061EB91014FEA101E4EEA017E10EB30
:100BC0000E0041EB11114FEA102E4EEA016E10EBB0
:100BD0000E0041EB11214FEA104E4EEA014E10EB90
:100BE0000E0041EB1141401841F100014FEAD000E5
:100BF00040EA41704FEAD1014FEA810444EA90741F
:100C000010EB800544EB01046D1944EB0404521B06
:100C1000A3414FF0000348BF0A3200D530BD401C4D
:100C200041F1000130BD2DE9F0470D46994692464D
:100C3000044600F124080168880604D5E06921F023
:100C40001001216000E00120A84201DD471B00E007
:100C50000027A1697A1902EB0900081AA06120781F
:100C6000C00602D42046FFF7E5FC002608E0D4E9E0
:100C700001211AF806009047206A401C761C206269
:100C80004E45F4DB2078C0060AD52046FFF7D2FC9B
:100C900006E0D4E9012130209047206A401C206200
:100CA000381EA7F10107F4DC07E0D4E9012118F8A8
:100CB00005009047206A401C2062281EA5F101050E
:100CC000F3DC2046FFF7CCFC2078000602D502209A
:100CD000BDE8F0870120FBE72DE9FF4F0C461E46DB
:100CE0004FF0FF378BB0D2E90001DDF860800A9049
:100CF0008A46C1F30A5505B93D46002108464FF022
:100D00000000BAF1000F00F4400005DA00EB8000AB
:100D10004FF4400101EA50004FEA9059B9F1010F38
:100D200000DDB9460A9850EA4A000ED044F6105049
:100D3000A5F2FF3545432F14B8F1000F1ED07542C0
:100D4000291E1EDDC9F100021CE0B8F1010F4FF0B1
:100D5000000001D0302103E0F24305E02154401CA3
:100D6000B042FBDB30460022002121540B99C1F830
:100D70000880C1E900200FB0BDE8F08FBD1B6D1CDD
:100D8000DEE74A4600DA694206A800F0F3FB06AB4C
:100D900093E8070003AB83E8070050460A990BF07D
:100DA000D7FB8DE80700A0F500501F38009003988E
:100DB000002D0ADD42F21F014A460844002303A920
:100DC000039068460BF040FE09E0A0F500504A464B
:100DD0001F38002303A9039068460BF04AFE8DE8F4
:100DE00007000004000C03D04FF0FF30410800E082
:100DF0001046B8F1000F03D00022009215461EE005
:100E0000751E05D4FFF7CAFE303262556D1EF9D546
:100E1000B3460122084302D000227F1C04E0207860
:100E2000302801D100227F1E002A099784D01DE0BE
:100E3000112D07DAFFF7B2FE303262556D1C50EA11
:100E40000102F5D1084302D00098C8B10EE000219C
:100E5000681E05E0235C625C63542254401E491CFA
:100E60008142F7DBAB46A81B401E0990002004F826
:100E70000B000B98099AC0F80880C0E9002B7AE7AC
:100E800011264FF0000857E72DE9F04F8846044639
:100E9000D21D22F0070191B0D1E90001CDE90A018C
:100EA0000BF01EFF02460B98C00F01D02D2007E06B
:100EB0002068810701D52B2002E0202101EAC00033
:100EC000032A099001D0072A05DB03464146204644
:100ED00000F010FB0BE12078800601D5E06900E00E
:100EE0000620B8F1650F814606D0B8F1660F18D01C
:100EF000B8F1670F70D131E00020B9F1110F009007
:100F000001DB112301E009F101030AAA01A90CA8E0
:100F1000FFF7E2FEDDE90C70002609F101058346CA
:100F200047E001204B4600904FF000470AAA01A974
:100F30000CA8FFF7D1FEDDE90DB00C995D46002647
:100F400010B909F101000D18B9EB050003D4C0F187
:100F5000FF3609F10105A5EB09002BE0B9F1010FFE
:100F600001DA4FF001090020B9F1110F0090484655
:100F700001DD112300E003460AAA01A90CA8FFF72E
:100F8000ABFEDDE90C704D46002683462078000755
:100F90000AD4AB4500DA5D4601A8012D04DD4119F4
:100FA00011F8011C302907D04F4502DA17F1040F60
:100FB00004DA012082460FE06D1EEEE7002F02DC0E
:100FC000ED1B3E4403E0781CA84200DD7D1CB81BED
:100FD00000F1010A4FF000472078000703D4AA452A
:100FE00001DB4FF0FF3A0021B7F1004F0DF143084C
:100FF0008DF8431024D002202B23002F01DA7F42EA
:101000002D230A21021EA0F1010000DC5FB197FB35
:10101000F1FC97FBF1F201FB1C7C17460CF1300C44
:1010200008F801CDEEE7A8F1010003702188090559
:1010300001D5452100E06521A0F1010800F8011C5F
:1010400009980FA9A1EB0807FF1D00B10120411964
:1010500001EBEA70A1693844081A401EA0612078AB
:10106000C00602D42046FFF7E5FA099828B1D4E972
:1010700001219047206A401C20622078C00622D5BA
:101080002046FFF7D7FA1EE0002E04DBB34502DD51
:1010900001A8805D00E03020D4E901219047206A5A
:1010A000401C2062761CAAF101005FEA000A0AD106
:1010B00000F01CFAC0680168405CD4E90121904747
:1010C000206A401C2062281EA5F10105DCDC07E037
:1010D000D4E9012118F8010B9047206A401C2062D6
:1010E000381EA7F10107F3DC2046FFF7B9FA032009
:1010F00011B041E62DE9F04F04460D46D21D22F015
:10110000070089B0D0E90097484639460BF0E8FD62
:101110000246F80F01D02D2307E02068810701D592
:101120002B2302E0202101EAC0038DF820300BB10F
:10113000012000E00020032A824601D0072A04DBB8
:101140002946204600F0D6F93FE12078800601D4F8
:101150000D2500E0E569C7F30A560D2D49DA002197
:101160004FEA175B08464FF00000002F00F44000E4
:1011700007DA00EB80004FF4400100EBD07001EA89
:1011800060008115012901DD4FF0FF3100224FEA97
:10119000850CBCF1180F06D31346ACF118004FF0C4
:1011A0008052C24003E04FF4801323FA0CF30CF199
:1011B0000C0CBCF1200F04D3ACF1200C09FA0CF09C
:1011C00001E007FA0CF000294FF0004801DD18B9E2
:1011D0000FE00ED140450CD319EB02095F4121B954
:1011E000404502D19F4329EA0209BBEB175F00D0BB
:1011F000761C2088000502D57B48784402E07A48B6
:101200007844193808AA302302F80A30037C0AF11E
:101210000101002E0AF1020A53546A4602DC4FF023
:10122000300101E04FF031014FF001088DF800105E
:1012300002D0A6F2FF3603E059EA470100D06B4E18
:10124000002D02DC2178090704D54FF002082E2179
:101250008DF80110C44600210BE0C7F303433F01A2
:10126000C35C491C6D1E02F80830052908F101080D
:1012700001DA002DF1DC00210CE000EB1973491CB0
:101280001B786D1E082902F808304FEA091908F189
:10129000010801DA002DF0DC21688B0602D516E08A
:1012A000A8F10108E04505DD02EB080313F8013C55
:1012B000302BF5D0B8F1000F09DD02EB080313F86D
:1012C000013C2E2B03D1090701D4A8F10108002D00
:1012D00005DD3E2102F808106D1E08F10108407C72
:1012E000002E02F8080008F1010804DA2D207642E9
:1012F00002F8080002E02B2002F808000A214FF44F
:101300007A70864208F101080BDB96FBF0F330336C
:1013100002F8083096FBF0F308F1010800FB1366B1
:1013200001E0642E0CDB642096FBF0F3303302F80E
:10133000083096FBF0F308F1010800FB136601E0AA
:101340000A2E06DB96FBF1F0303002F8080008F1B7
:10135000010896FBF1F001FB1060303002F8080044
:10136000A16908F1010808EB050202EB0A00081A5E
:10137000A0612078C00602D42046FFF75BF9216AFD
:1013800008AE01EB0A00206204E0D4E9012116F85E
:10139000010B9047BAF1010AF7D22078C00602D5B6
:1013A0002046FFF747F96E4609E016F8010B3E2884
:1013B0000FD0D4E901219047206A401C2062B8F187
:1013C0000108F2D22046FFF74BF909B00320BDE82F
:1013D000F08F206A2844206203E0D4E90121302004
:1013E00090476D1EEBD3F8E7F2BB000002FCFFFF55
:1013F00010B5436913B1AFF3008001E0FFF753F973
:10140000012010BD127800F124010A7000224A70F8
:101410000122EDE711684FF0FF32E9E710B54369AB
:1014200013B1AFF3008001E0FFF7D6F9012010BD42
:10143000128800F1240182840022C2840122EDE797
:1014400011684FF0FF32E9E72DE9F04116460C46EE
:10145000054600F043F8036893F80101012807D01E
:10146000FF2C12D8185D80B101202C70BDE8F081EE
:10147000D3F807013246214603F20713C71828465E
:10148000BC46BDE8F041002360474FF0FF30EDE778
:10149000754600F0EBF8AE4605006946534620F06D
:1014A0000700854618B020B5FEF7C0FFBDE8204014
:1014B0004FF000064FF000074FF000084FF0000B10
:1014C000AC46ACE8C009ACE8C009ACE8C009ACE87F
:1014D000C00921F007018D467047000010B500F0EB
:1014E00005F8001D10BD00BF65B80000004870473A
:1014F000300000242DE9F0411F4604460326016810
:10150000072A01F4006004DB08B116A505E016A562
:1015100003E008B115A500E015A521F0100020603A
:10152000A069C01EA0610FB1401EA0612046FFF758
:1015300081F84FB1D4E9012138469047206A401C18
:101540002062C01C206206E0206AFAE7D4E901218B
:1015500015F8010B9047761EF8D22046FFF780F869
:10156000BDE8F0814E414E006E616E00494E46006E
:10157000696E66002DE9F047814616468AB0354807
:1015800078440DC88DE80D0032487844801C03ACC7
:101590000DC884E80D0041F69B300844372190FBCC
:1015A000F1F290FBF1F5A5F1800501FB12041B3C63
:1015B00002D56442012000E00020DFF898A08046B8
:1015C0000027FA44AAF1BE0A0EE0E0070AD032462C
:1015D000684607EB470101230AEB81010BF049FA4A
:1015E0008DE8070064107F1C002CEED1194F7F445A
:1015F000AE3F19E0E80715D007EB04100DF1180A0B
:1016000090E80E008AE80E00C068F04201D19819F7
:1016100008903246012306A903A80BF02AFA03AB6F
:1016200083E807006D10641C002DE3D14FF0010327
:1016300032466946B8F1000F03A802D00BF004FA55
:1016400001E00BF016FAC9E90001C9F808200AB058
:10165000BDE8F087FCB8000010B50446AFF3008089
:101660002046BDE81040FEF7CCBE000000487047A1
:10167000100000240000000030B44FF0013C50F88E
:10168000042BCCFA52F451F8043BD51A20D1FCB902
:1016900050F8042BCCFA52F451F8043BD51A17D168
:1016A000B4B950F8042BCCFA52F451F8043BD51AD3
:1016B0000ED16CB950F8042BCCFA52F451F8043B1B
:1016C000D51A05D1002CDAD030BC4FF0000070479D
:1016D00029BAB1FA81F111F01801D1F1200084404A
:1016E000F2D1CA40CB4012F0FF0213F0FF0330BC2E
:1016F000D01A704701491820ABBEFEE72600020051
:101700007047000000000000FFE7FEE70000000057
:1017100080B540F2EC10C2F2004000F0BDFD80BD8B
:1017200083B002900298016801201022C4F20202E4
:101730009142009000F0A380FFE702980168012029
:101740002822C4F202029142009000F09880FFE744
:101750000298016801204022C4F2020291420090E6
:1017600000F08D80FFE70298016801205822C4F242
:1017700002029142009000F08280FFE70298016827
:1017800001207022C4F202029142009077D0FFE75C
:101790000298016801208822C4F20202914200905E
:1017A0006DD0FFE7029801680120A022C4F2020276
:1017B0009142009063D0FFE7029801680120B822AF
:1017C000C4F202029142009059D0FFE702980168EA
:1017D000012040F21042C4F20202914200904ED029
:1017E000FFE702980168012040F22842C4F2020299
:1017F0009142009043D0FFE702980168012040F237
:101800004042C4F202029142009038D0FFE70298B1
:101810000168012040F25842C4F202029142009055
:101820002DD0FFE702980168012040F27042C4F217
:1018300002029142009022D0FFE702980168012045
:1018400040F28842C4F202029142009017D0FFE7B2
:1018500002980168012040F2A042C4F202029142C3
:1018600000900CD0FFE7029800684FF64831CBF6A5
:10187000FD710844B0FA80F040090090FFE700983D
:10188000C00740B3FFE70298007810384AF6AB2152
:10189000CAF6AA21A0FB011000090190019800F0EE
:1018A00007014CF6F460C0F60000405C0299C86580
:1018B0000198042807D3FFE702990868042262F31D
:1018C0000900886506E00299086840F2FF329043FB
:1018D0008865FFE705E00299086820F0FF00886549
:1018E000FFE70298806D03B0704700000000000021
:1018F00084B0039003980068019003980168012068
:1019000045F20842C5F60202914200904ED0FFE730
:1019100003980168012045F21C42C5F6020291427B
:10192000009043D0FFE703980168012045F2304260
:10193000C5F602029142009038D0FFE70398016893
:10194000012045F24442C5F60202914200902DD09A
:10195000FFE703980168012045F25842C5F60202EC
:101960009142009022D0FFE703980168012045F2E0
:101970006C42C5F602029142009017D0FFE703982F
:101980000168012045F28042C5F6020291420090B2
:101990000CD0FFE7039800684AF66C31CAF2FD717B
:1019A0000844B0FA80F040090090FFE70098C007B3
:1019B00010B3FFE70398007808384CF6CD41CCF619
:1019C000CC41A0FB011000090290029945F60000ED
:1019D000C5F6020000EB810003990866039945F6FD
:1019E0008000C5F602004866029800F01F01012041
:1019F00088400399886635E00398007810384AF6E5
:101A0000AB21CAF6AA21A0FB01100009029001989F
:101A100040F2B841C4F2020188420CD8FFE70198B5
:101A200040F21041C4F20201884204D3FFE7029859
:101A300008300290FFE7029940F60000C4F202006D
:101A400000EB810003990866039940F68000C4F218
:101A500002004866029800F01F01012088400399A7
:101A60008866FFE704B0704783B00290029800795F
:101A700001900198002800F08A80FFE7019808286B
:101A800000F28580FFE702980168012045F20842D4
:101A9000C5F60202914200904ED0FFE7029801681D
:101AA000012045F21C42C5F602029142009043D04B
:101AB000FFE702980168012045F23042C5F60202B4
:101AC0009142009038D0FFE702980168012045F26A
:101AD0004442C5F60202914200902DD0FFE70298E1
:101AE0000168012045F25842C5F602029142009079
:101AF00022D0FFE702980168012045F26C42C5F64A
:101B000002029142009017D0FFE70298016801207D
:101B100045F28042C5F60202914200900CD0FFE7E8
:101B2000029800684AF66C31CAF2FD710844B0FAB6
:101B300080F040090090FFE70098C00780B1FFE700
:101B4000019945F6FC00C5F6020000EB8100029900
:101B5000C866029945F64010C5F6020008670FE016
:101B6000019940F6FC00C4F2020000EB81000299EA
:101B7000C866029940F64010C4F202000867FFE709
:101B80000198411E0120884002994867FFE703B091
:101B9000704700000000000085B0049000208DF820
:101BA0000F000498806918BBFFE70498806A0290D0
:101BB00003281BD80299DFE801F0020D02180498EF
:101BC00090F82F00C00720B1FFE701208DF80F002B
:101BD000FFE70CE00498C06AB0F1C07F04D1FFE7D2
:101BE00001208DF80F00FFE701E000E0FFE747E08C
:101BF00004988069B0F5005F26D1FFE70498806AF9
:101C0000019003281ED80199DFE801F002060211B5
:101C100001208DF80F0016E0049890F82F00C007FF
:101C200020B1FFE701208DF80F00FFE70BE00498DB
:101C3000C06AB0F1C07F04D1FFE701208DF80F002A
:101C4000FFE700E0FFE71AE00498806A00900328AD
:101C500004D3FFE70098032804D00EE001208DF89C
:101C60000F000BE0049890F82F00C00720B1FFE7A9
:101C700001208DF80F00FFE700E0FFE7FFE7FFE737
:101C80009DF80F0005B0704783B080B585B009930B
:101C9000089207910490FFE740F2C450C2F200405E
:101CA0000068C06900F04000402801D0FFE7F3E77A
:101CB00007A80290049A029B40F28200C2F2004000
:101CC00001904FF48071FEF73BFC01998DF80F00F5
:101CD0009DF80F2040F2C450C2F200404FF47A73D6
:101CE00007F06EFF05B0BDE8804003B0704700000C
:101CF000704700000000000081B0EFF3108072B662
:101D00000090FFE7FEE7000080B540F26420C2F2D9
:101D1000004002F091F880BD80B540F20430C2F27C
:101D2000004002F089F880BD84B002900298406BB8
:101D3000009002980068D0F884004FF6FC71884348
:101D4000009940EA810002990968C1F8840002986C
:101D50000068D0F8840020F47F00029A1168926B2A
:101D600040EA0240C1F884000298816B0098084460
:101D7000009002980068D0F888006FF38F000099F7
:101D800040EA810002990968C1F888000298006859
:101D9000D0F8880020F4FE00029A1168D26B40EA65
:101DA0000240C1F888000298C16B009800EB410026
:101DB000009002980068D0F8A0006FF38F0000999F
:101DC00040EA810002990968C1F8A0000298006801
:101DD000D0F8A00020F4FE00029A1168126C40EACC
:101DE0000240C1F8A0000299086C496C009A00FBFF
:101DF0000120009002980068D0F8B0006FF38F00C7
:101E0000009940EA810002990968C1F8B00002987F
:101E10000068D0F8B00020F4FE00029A1168926CBD
:101E200040EA0240C1F8B0000299886CC96C009A7F
:101E300000FB0120009002980068D0F8AC006FF31E
:101E40008F00009940EA810002990968C1F8AC004E
:101E50000299086D496D009A00FB012000900298DC
:101E60000068D0F8F0006FF38F00009940EA81001D
:101E700002990968C1F8F00002980068D0F8F000F3
:101E800020F47C10029A1168926D40EA0240C1F879
:101E9000F0000298816D009800EB410000900298DC
:101EA0000068D0F8C0006FF38F00009940EA81000D
:101EB00002990968C1F8C00002980068D0F8C00013
:101EC00020F47C10029A1168D26D40EA0240C1F8F9
:101ED000C00002980068D0F8C00020F07C50029A40
:101EE0001168126E40EA0260C1F8C00002994A6BA4
:101EF0004AF60040C4F2000000EB8200C866029976
:101F00008A6BC86E00EB820008670299CA6B086F83
:101F100000EBC200486702990A6C4B6C486F5A4349
:101F200000EB8200886702998A6CCB6C886F5A43F9
:101F300000EB8200C86702990A6D4B6DC86F5A4367
:101F400000EB8200C1F8800002998A6DD1F8800010
:101F500000EBC200C1F884000299CA6D8B6ED1F803
:101F600084005A4300EB8200C1F8880002990A6E8F
:101F70008B6ED1F888005A4300EB8200C1F89000C4
:101F80000298D0F890004DF2FD31C4F20001884271
:101F90000FD3FFE70299D1F89C0040F02000C1F870
:101FA0009C000299032081F8980001208DF80F0011
:101FB00017E00298C06E0190FFE701980299D1F8EE
:101FC0009010884208D2FFE7019900200860FFE7DF
:101FD000019804300190F0E7FFE700208DF80F0032
:101FE000FFE79DF80F0004B07047000000000000FC
:101FF00080B583B0029001910198006800BBFFE7B3
:102000000298006847F6FF718843019A0092516870
:10201000D2F808E0D2F80CC0136941EA0E0141EA97
:102020000C0119435369194393691943D36919433F
:10203000136A1943526A114308430299086025E064
:102040000298006820F4F840019AD169136A526A34
:10205000194311430843029908600298406847F603
:10206000FF718843019A5168D2F808E0D2F80CC099
:10207000136941EA0E0141EA0C01194353691943FE
:1020800092691143084302994860FFE7002003B0BA
:1020900080BD00000000000010B583B002900191E7
:1020A00000920098A8BBFFE70298806800F070409B
:1020B000019A11685468D2F808E0D2F80CC00139CE
:1020C0006FF00F0303EB041319436FF0FF0303EBEF
:1020D0000E2319434FF20003CFF6FF7303EB0C33CB
:1020E0001943D2F810C00023CFF6FF7303EB0C4363
:1020F0001943D2F814C00023CFF6F07303EB0C534E
:1021000019439269013A41EA0261084302998860E1
:102110003CE00298806840F6FF71CFF60F710840EE
:102120000199CA684B694FF20001CFF6FF7101EBCC
:1021300002310022CFF6F07202EB03521143084342
:10214000029988600298C06800F07040019A116896
:102150005468D2F808E0D2F810C001396FF00F03CC
:1021600003EB041319436FF0FF0303EB0E23194332
:102170000023CFF6FF7303EB0C4319439269013A36
:1021800041EA026108430299C860FFE7002003B0FA
:1021900010BD00000000000080B582B000900098E3
:1021A00020B9FFE701208DF807004FE0009890F874
:1021B000610040B9FFE70099002081F860000098B5
:1021C00000F04AF8FFE70099022081F861000098CA
:1021D000006800684FF6BF71CFF6F8710840009BA9
:1021E00019685A68DB691A43104308600098006850
:1021F000406B40F207118843009B19689A689B69FD
:102200001A431043486300980068006C4FF6FF7152
:102210008843009A1168D2681043086400980068E7
:10222000406B20F44010009B19681A695B69120525
:1022300042EA435210434863009900204866009ADE
:10224000012182F861108DF80700FFE79DF8070073
:1022500002B080BD0000000082B0019001980068CB
:1022600041F20001C5F20021884210D1FFE7FFE7EB
:1022700044F2D440C5F60200016841F0100101604B
:10228000006800F0100000900098FFE7FFE702B040
:10229000704700000000000080B590B00F90002053
:1022A0000B9040F20000C2F20040006848F2B51105
:1022B000C1F64E31A0FB0110800A0A900F98806D84
:1022C00009900F98806D0890099800680E90089802
:1022D00000680D900F98016801201022C4F20202DC
:1022E0009142079000F0A380FFE70F98016801205A
:1022F0002822C4F202029142079000F09880FFE782
:102300000F98016801204022C4F202029142079016
:1023100000F08D80FFE70F98016801205822C4F279
:1023200002029142079000F08280FFE70F98016857
:1023300001207022C4F202029142079077D0FFE799
:102340000F98016801208822C4F20202914207908E
:102350006DD0FFE70F9801680120A022C4F20202AD
:102360009142079063D0FFE70F9801680120B822DF
:10237000C4F202029142079059D0FFE70F9801681A
:10238000012040F21042C4F20202914207904ED066
:10239000FFE70F980168012040F22842C4F20202D0
:1023A0009142079043D0FFE70F980168012040F267
:1023B0004042C4F202029142079038D0FFE70F98E2
:1023C0000168012040F25842C4F202029142079093
:1023D0002DD0FFE70F980168012040F27042C4F24F
:1023E00002029142079022D0FFE70F980168012076
:1023F00040F28842C4F202029142079017D0FFE7F0
:102400000F980168012040F2A042C4F202029142FA
:1024100007900CD0FFE70F9800684FF64831CBF6D5
:10242000FD710844B0FA80F040090790FFE7079873
:10243000C007002800F01385FFE70E980F99C96DBB
:1024400001F01F01C8400007002840F1B080FFE7FD
:102450000F9800681021C4F20201884200F08180C8
:10246000FFE70F9800682821C4F20201884278D063
:10247000FFE70F9800684021C4F20201884270D043
:10248000FFE70F9800685821C4F20201884268D023
:10249000FFE70F9800687021C4F20201884260D003
:1024A000FFE70F9800688821C4F20201884258D0E3
:1024B000FFE70F980068A021C4F20201884250D0C3
:1024C000FFE70F980068B821C4F20201884248D0A3
:1024D000FFE70F98006840F21041C4F20201884201
:1024E0003FD0FFE70F98006840F22841C4F2020194
:1024F000884236D0FFE70F98006840F24041C4F2AE
:10250000020188422DD0FFE70F98006840F2584141
:10251000C4F20201884224D0FFE70F98006840F21D
:102520007041C4F2020188421BD0FFE70F98006897
:1025300040F28841C4F20201884212D0FFE70F98AE
:10254000006840F2A041C4F20201884209D0FFE7CE
:102550000F98006840F2B841C4F20201884207D1E6
:10256000FFE70F980068006800F00400069006E09E
:102570000F980068006800F008000690FFE70698D2
:10258000A0B1FFE70F980168086820F00400086018
:102590000F98C06D00F01F010820884009998860DD
:1025A0000F99486D40F001004865FFE7FFE70E987E
:1025B0000F99C96D01F01F01C840C007002800F045
:1025C000A980FFE70F9800681021C4F20201884239
:1025D00000F08180FFE70F9800682821C4F2020113
:1025E000884278D0FFE70F9800684021C4F20201CA
:1025F000884270D0FFE70F9800685821C4F20201AA
:10260000884268D0FFE70F9800687021C4F2020189
:10261000884260D0FFE70F9800688821C4F2020169
:10262000884258D0FFE70F980068A021C4F2020149
:10263000884250D0FFE70F980068B821C4F2020129
:10264000884248D0FFE70F98006840F21041C4F27A
:10265000020188423FD0FFE70F98006840F228410E
:10266000C4F20201884236D0FFE70F98006840F2BA
:102670004041C4F2020188422DD0FFE70F98006864
:1026800040F25841C4F20201884224D0FFE70F987B
:10269000006840F27041C4F2020188421BD0FFE79B
:1026A0000F98006840F28841C4F20201884212D0BB
:1026B000FFE70F98006840F2A041C4F2020188428F
:1026C00009D0FFE70F98006840F2B841C4F2020158
:1026D000884207D1FFE70F980068406900F080004A
:1026E000059005E00F980068006800200590FFE75E
:1026F000059870B1FFE70F98C06D00F01F01012031
:102700008840099988600F99486D40F0020048653B
:10271000FFE7FFE70E980F99C96D01F01F01C84050
:102720004007002840F1A980FFE70F9800681021BA
:10273000C4F20201884200F08180FFE70F98006830
:102740002821C4F20201884278D0FFE70F98006880
:102750004021C4F20201884270D0FFE70F98006860
:102760005821C4F20201884268D0FFE70F98006840
:102770007021C4F20201884260D0FFE70F98006820
:102780008821C4F20201884258D0FFE70F98006800
:10279000A021C4F20201884250D0FFE70F980068E0
:1027A000B821C4F20201884248D0FFE70F980068C0
:1027B00040F21041C4F2020188423FD0FFE70F9877
:1027C000006840F22841C4F20201884236D0FFE797
:1027D0000F98006840F24041C4F2020188422DD0B7
:1027E000FFE70F98006840F25841C4F202018842A6
:1027F00024D0FFE70F98006840F27041C4F2020154
:1028000088421BD0FFE70F98006840F28841C4F26D
:102810000201884212D0FFE70F98006840F2A04101
:10282000C4F20201884209D0FFE70F98006840F225
:10283000B841C4F20201884207D1FFE70F9800684F
:10284000006800F00200049005E00F98006800683E
:1028500000200490FFE7049870B1FFE70F98C06D67
:1028600000F01F0104208840099988600F99486D85
:1028700040F004004865FFE7FFE70E980F99C96D27
:1028800001F01F01C840C006002840F1DE80FFE7CC
:102890000F9800681021C4F20201884200F0818084
:1028A000FFE70F9800682821C4F20201884278D01F
:1028B000FFE70F9800684021C4F20201884270D0FF
:1028C000FFE70F9800685821C4F20201884268D0DF
:1028D000FFE70F9800687021C4F20201884260D0BF
:1028E000FFE70F9800688821C4F20201884258D09F
:1028F000FFE70F980068A021C4F20201884250D07F
:10290000FFE70F980068B821C4F20201884248D05E
:10291000FFE70F98006840F21041C4F202018842BC
:102920003FD0FFE70F98006840F22841C4F202014F
:10293000884236D0FFE70F98006840F24041C4F269
:10294000020188422DD0FFE70F98006840F25841FD
:10295000C4F20201884224D0FFE70F98006840F2D9
:102960007041C4F2020188421BD0FFE70F98006853
:1029700040F28841C4F20201884212D0FFE70F986A
:10298000006840F2A041C4F20201884209D0FFE78A
:102990000F98006840F2B841C4F20201884207D1A2
:1029A000FFE70F980068006800F00800039006E059
:1029B0000F980068006800F004000390FFE7039898
:1029C000002841D0FFE70F98C06D00F01F011020D4
:1029D0008840099988600F980068006840030028C3
:1029E0001AD5FFE70F98006800680003002809D493
:1029F000FFE70F98006C20B1FFE70F98016C884744
:102A0000FFE708E00F98806C20B1FFE70F98816C1A
:102A10008847FFE7FFE716E00F9800680068C005E9
:102A2000002807D4FFE70F980168086820F0080025
:102A30000860FFE70F98006C20B1FFE70F98016C6A
:102A40008847FFE7FFE7FFE7FFE70E980F99C96D9B
:102A500001F01F01C8408006002840F12681FFE7F1
:102A60000F9800681021C4F20201884200F08180B2
:102A7000FFE70F9800682821C4F20201884278D04D
:102A8000FFE70F9800684021C4F20201884270D02D
:102A9000FFE70F9800685821C4F20201884268D00D
:102AA000FFE70F9800687021C4F20201884260D0ED
:102AB000FFE70F9800688821C4F20201884258D0CD
:102AC000FFE70F980068A021C4F20201884250D0AD
:102AD000FFE70F980068B821C4F20201884248D08D
:102AE000FFE70F98006840F21041C4F202018842EB
:102AF0003FD0FFE70F98006840F22841C4F202017E
:102B0000884236D0FFE70F98006840F24041C4F297
:102B1000020188422DD0FFE70F98006840F258412B
:102B2000C4F20201884224D0FFE70F98006840F207
:102B30007041C4F2020188421BD0FFE70F98006881
:102B400040F28841C4F20201884212D0FFE70F9898
:102B5000006840F2A041C4F20201884209D0FFE7B8
:102B60000F98006840F2B841C4F20201884207D1D0
:102B7000FFE70F980068006800F01000029006E080
:102B80000F980068006800F002000290FFE70298CA
:102B9000002800F08980FFE70F98C06D00F01F014A
:102BA00020208840099988600F9890F83500042803
:102BB00037D1FFE70F980168086820F01600086019
:102BC0000F980168486920F0800048610F98006CF8
:102BD00020B9FFE70F98806C38B1FFE70F980168C4
:102BE000086820F008000860FFE70F98C06D00F04B
:102BF0001F013F208840099988600F99012081F8C2
:102C00003500FFE70F99002081F83400FFE70F98A7
:102C1000006D20B1FFE70F98016D8847FFE700F0D6
:102C200019BC0F9800680068400300281AD5FFE718
:102C30000F98006800680003002809D4FFE70F9888
:102C4000406C20B1FFE70F98416C8847FFE708E030
:102C50000F98C06B20B1FFE70F98C16B8847FFE763
:102C6000FFE720E00F9800680068C005002811D435
:102C7000FFE70F980168086820F0100008600F99BE
:102C8000012081F83500FFE70F99002081F834001A
:102C9000FFE7FFE70F98C06B20B1FFE70F98C16B0C
:102CA0008847FFE7FFE7FFE7FFE70F98406D002841
:102CB00000F0D480FFE70F98406DC007002800F0B7
:102CC000C480FFE70F99042081F835000F98006851
:102CD0001021C4F20201884200F08180FFE70F98C2
:102CE00000682821C4F20201884278D0FFE70F98DB
:102CF00000684021C4F20201884270D0FFE70F98BB
:102D000000685821C4F20201884268D0FFE70F989A
:102D100000687021C4F20201884260D0FFE70F987A
:102D200000688821C4F20201884258D0FFE70F985A
:102D30000068A021C4F20201884250D0FFE70F983A
:102D40000068B821C4F20201884248D0FFE70F981A
:102D5000006840F21041C4F2020188423FD0FFE710
:102D60000F98006840F22841C4F20201884236D030
:102D7000FFE70F98006840F24041C4F20201884228
:102D80002DD0FFE70F98006840F25841C4F20201CD
:102D9000884224D0FFE70F98006840F27041C4F2E7
:102DA000020188421BD0FFE70F98006840F288417B
:102DB000C4F20201884212D0FFE70F98006840F287
:102DC000A041C4F20201884209D0FFE70F980068D1
:102DD00040F2B841C4F20201884207D1FFE70F98E0
:102DE0000168086820F00100086006E00F9801689B
:102DF000086820F001000860FFE7FFE70B9801304A
:102E00000B900A99884201D9FFE707E0FFE70F9886
:102E100000680068C0070028F0D1FFE70F9800683D
:102E20000068C00728B1FFE70F99032081F835003B
:102E300004E00F99012081F83500FFE7FFE70F99C3
:102E4000002081F83400FFE7FFE70F98C06C20B145
:102E5000FFE70F98C16C8847FFE7FFE7FAE20F989A
:102E60000168012045F20842C5F602029142019034
:102E70004ED0FFE70F980168012045F21C42C5F6CD
:102E800002029142019043D0FFE70F9801680120B0
:102E900045F23042C5F602029142019038D0FFE778
:102EA0000F980168012045F24442C5F602029142A2
:102EB00001902DD0FFE70F980168012045F258429C
:102EC000C5F602029142019022D0FFE70F980168F7
:102ED000012045F26C42C5F602029142019017D0E2
:102EE000FFE70F980168012045F28042C5F6020213
:102EF000914201900CD0FFE70F9800684AF66C31C0
:102F0000CAF2FD710844B0FA80F040090190FFE771
:102F10000198C007002800F09B82FFE70F98006827
:102F200000680C900D980F99C96D01F01F01C84001
:102F30004007002840F1D780FFE79DF830004007A8
:102F4000002840F1D080FFE70F98C06D00F01F010E
:102F500004208840089948609DF831000006002848
:102F600018D5FFE79DF83200C00748B9FFE70F9872
:102F7000806C20B1FFE70F98816C8847FFE708E07D
:102F80000F98006C20B1FFE70F98016C8847FFE7AE
:102F9000FFE7A7E09DF830008006002800F1998047
:102FA000FFE70F9800681021C4F20201884200F088
:102FB0008180FFE70F9800682821C4F2020188424F
:102FC00078D0FFE70F9800684021C4F202018842E0
:102FD00070D0FFE70F9800685821C4F202018842C0
:102FE00068D0FFE70F9800687021C4F202018842A0
:102FF00060D0FFE70F9800688821C4F20201884280
:1030000058D0FFE70F980068A021C4F2020188425F
:1030100050D0FFE70F980068B821C4F2020188423F
:1030200048D0FFE70F98006840F21041C4F2020157
:1030300088423FD0FFE70F98006840F22841C4F271
:103040000201884236D0FFE70F98006840F2404105
:10305000C4F2020188422DD0FFE70F98006840F2C9
:103060005841C4F20201884224D0FFE70F9800685B
:1030700040F27041C4F2020188421BD0FFE70F9872
:10308000006840F28841C4F20201884212D0FFE792
:103090000F98006840F2A041C4F20201884209D0B2
:1030A000FFE70F98006840F2B841C4F2020188427D
:1030B00007D1FFE70F980168086820F00800086052
:1030C00006E00F980168086820F004000860FFE738
:1030D000FFE70F98006C20B1FFE70F98016C88475D
:1030E000FFE7FFE7B3E10D980F99C96D01F01F01EC
:1030F000C8408007002840F1E180FFE79DF83000DC
:103100008007002840F1DA80FFE70F98C06D00F0DB
:103110001F0102208840089948609DF83100000690
:10312000002818D5FFE79DF83200C00748B9FFE72F
:103130000F98406C20B1FFE70F98416C8847FFE77C
:1031400008E00F98C06B20B1FFE70F98C16B88476C
:10315000FFE7FFE7B1E09DF830008006002800F1AE
:10316000A380FFE70F9800681021C4F20201884293
:1031700000F08180FFE70F9800682821C4F2020167
:10318000884278D0FFE70F9800684021C4F202011E
:10319000884270D0FFE70F9800685821C4F20201FE
:1031A000884268D0FFE70F9800687021C4F20201DE
:1031B000884260D0FFE70F9800688821C4F20201BE
:1031C000884258D0FFE70F980068A021C4F202019E
:1031D000884250D0FFE70F980068B821C4F202017E
:1031E000884248D0FFE70F98006840F21041C4F2CF
:1031F000020188423FD0FFE70F98006840F2284163
:10320000C4F20201884236D0FFE70F98006840F20E
:103210004041C4F2020188422DD0FFE70F980068B8
:1032200040F25841C4F20201884224D0FFE70F98CF
:10323000006840F27041C4F2020188421BD0FFE7EF
:103240000F98006840F28841C4F20201884212D00F
:10325000FFE70F98006840F2A041C4F202018842E3
:1032600009D0FFE70F98006840F2B841C4F20201AC
:10327000884207D1FFE70F980168086820F0140022
:10328000086006E00F980168086820F00A000860EE
:10329000FFE70F99012081F83500FFE70F99002023
:1032A00081F83400FFE7FFE70F98C06B20B1FFE71C
:1032B0000F98C16B8847FFE7FFE7C7E00D980F99AC
:1032C000C96D01F01F01C8400007002840F1BC8013
:1032D000FFE79DF830000007002840F1B580FFE7C8
:1032E0000F9800681021C4F20201884200F081802A
:1032F000FFE70F9800682821C4F20201884278D0C5
:10330000FFE70F9800684021C4F20201884270D0A4
:10331000FFE70F9800685821C4F20201884268D084
:10332000FFE70F9800687021C4F20201884260D064
:10333000FFE70F9800688821C4F20201884258D044
:10334000FFE70F980068A021C4F20201884250D024
:10335000FFE70F980068B821C4F20201884248D004
:10336000FFE70F98006840F21041C4F20201884262
:103370003FD0FFE70F98006840F22841C4F20201F5
:10338000884236D0FFE70F98006840F24041C4F20F
:10339000020188422DD0FFE70F98006840F25841A3
:1033A000C4F20201884224D0FFE70F98006840F27F
:1033B0007041C4F2020188421BD0FFE70F980068F9
:1033C00040F28841C4F20201884212D0FFE70F9810
:1033D000006840F2A041C4F20201884209D0FFE730
:1033E0000F98006840F2B841C4F20201884207D148
:1033F000FFE70F980168086820F01C00086006E0ED
:103400000F980168086820F00E000860FFE70F9829
:10341000C06D00F01F01012000FA01F1089A51600F
:103420000F9948650F9981F83500FFE70F99002043
:1034300081F83400FFE70F98C06C20B1FFE70F98C8
:10344000C16C8847FFE700E0FFE7FFE7FFE700E028
:10345000FFE7FFE710B080BD10B58EB00C9001F013
:10346000A3FD0A900C9828B9FFE701208DF83700DA
:1034700000F09FBC0C98016801201022C4F20202E7
:103480009142079000F0A380FFE70C9801680120AB
:103490002822C4F202029142079000F09880FFE7D0
:1034A0000C98016801204022C4F202029142079068
:1034B00000F08D80FFE70C98016801205822C4F2CB
:1034C00002029142079000F08280FFE70C980168A9
:1034D00001207022C4F202029142079077D0FFE7E8
:1034E0000C98016801208822C4F2020291420790E0
:1034F0006DD0FFE70C9801680120A022C4F20202FF
:103500009142079063D0FFE70C9801680120B82230
:10351000C4F202029142079059D0FFE70C9801686B
:10352000012040F21042C4F20202914207904ED0B4
:10353000FFE70C980168012040F22842C4F2020221
:103540009142079043D0FFE70C980168012040F2B8
:103550004042C4F202029142079038D0FFE70C9833
:103560000168012040F25842C4F2020291420790E1
:103570002DD0FFE70C980168012040F27042C4F2A0
:1035800002029142079022D0FFE70C9801680120C7
:1035900040F28842C4F202029142079017D0FFE73E
:1035A0000C980168012040F2A042C4F2020291424C
:1035B00007900CD0FFE70C9800684FF64831CBF627
:1035C000FD710844B0FA80F040090790FFE70798C2
:1035D000C007002800F07981FFE70C98406A08B125
:1035E000FFE7FFE70C99022081F83500FFE70C990F
:1035F000002081F83400FFE70C9800681021C4F225
:103600000201884200F08180FFE70C9800682821C1
:10361000C4F20201884278D0FFE70C98006840218C
:10362000C4F20201884270D0FFE70C98006858216C
:10363000C4F20201884268D0FFE70C98006870214C
:10364000C4F20201884260D0FFE70C98006888212C
:10365000C4F20201884258D0FFE70C980068A0210C
:10366000C4F20201884250D0FFE70C980068B821EC
:10367000C4F20201884248D0FFE70C98006840F28B
:103680001041C4F2020188423FD0FFE70C98006865
:1036900040F22841C4F20201884236D0FFE70C987C
:1036A000006840F24041C4F2020188422DD0FFE799
:1036B0000C98006840F25841C4F20201884224D0BC
:1036C000FFE70C98006840F27041C4F202018842A2
:1036D0001BD0FFE70C98006840F28841C4F2020159
:1036E000884212D0FFE70C98006840F2A041C4F273
:1036F0000201884209D0FFE70C98006840F2B84107
:10370000C4F20201884207D1FFE70C9801680868FB
:1037100020F00100086006E00C980168086820F0BD
:1037200001000860FFE7FFE70C9800680068C00729
:1037300098B1FFE701F038FC0A99401A06280BD32C
:10374000FFE70C99202048650C99032081F835008B
:1037500001208DF837002CE3E6E70C98006800683C
:103760000B900B9848F23F01CFF6106108400B9088
:103770000C998868D1F80CC00B694A6940EA0C00C2
:10378000184310438A691043CA691043096A014308
:103790000B9808430B900C98406A042808D1FFE767
:1037A0000C99C86A096B01430B9808430B90FFE71B
:1037B00041F20000C5F6004000684FF6FF718843F3
:1037C000B0F1005F40D3FFE70C984068292807D389
:1037D000FFE70C98416801202F2906902AD3FFE7C4
:1037E0000C9840683F2807D3FFE70C9841680120F8
:1037F000432906901ED3FFE70C984068472807D35B
:10380000FFE70C98416801204929069012D3FFE791
:103810000C98416800204F29059008D3FFE70C98C9
:1038200041680020532938BF01200590FFE7059823
:103830000690FFE70698C00728B1FFE70B9840F411
:1038400080100B90FFE7FFE70B980C990968086060
:103850000C98006840690B900B9820F007000B90C3
:103860000C98416A0B9808430B900C98406A042806
:103870001AD1FFE70C98816A0B9808430B900C98BB
:10388000C06A80B1FFE70C98FEF786F950B1FFE7F8
:103890000C99402048650C99012081F835008DF87D
:1038A000370086E2FFE7FFE70B980C99096848614B
:1038B0000C98FDF735FF09900C98C06D00F01F01C2
:1038C0003F2088400999886026E10C980168012012
:1038D00045F20842C5F60202914204904ED0FFE73D
:1038E0000C980168012045F21C42C5F60202914283
:1038F000049043D0FFE70C980168012045F2304264
:10390000C5F602029142049038D0FFE70C98016896
:10391000012045F24442C5F60202914204902DD0A6
:10392000FFE70C980168012045F25842C5F60202F3
:103930009142049022D0FFE70C980168012045F2E3
:103940006C42C5F602029142049017D0FFE70C9832
:103950000168012045F28042C5F6020291420490BE
:103960000CD0FFE70C9800684AF66C31CAF2FD7182
:103970000844B0FA80F040090490FFE70498C007BB
:10398000002800F0BD80FFE70C980168012045F297
:103990000842C5F60202914203904ED0FFE70C9810
:1039A0000168012045F21C42C5F6020291420390D3
:1039B00043D0FFE70C980168012045F23042C5F67C
:1039C00002029142039038D0FFE70C980168012071
:1039D00045F24442C5F60202914203902DD0FFE722
:1039E0000C980168012045F25842C5F60202914246
:1039F000039022D0FFE70C980168012045F26C4249
:103A0000C5F602029142039017D0FFE70C980168B7
:103A1000012045F28042C5F60202914203900CD08B
:103A2000FFE70C9800684AF66C31CAF2FD71084451
:103A3000B0FA80F040090390FFE70398C00708B18F
:103A4000FFE7FFE70C99022081F83500FFE70C99AA
:103A5000002081F83400FFE70C98006800680B90A4
:103A60000B986FF310100B900C988068402803D1CE
:103A7000FFE71020029008E00C9880688038B0FAC8
:103A800080F0400980030290FFE702980C99CA6811
:103A90000B69D1F814C0D1F818E0CC694EEA040ED5
:103AA0004CEA0E0C43EA0C031A4340EAD200096ABE
:103AB00040EA11110B9808430B900B980C99096878
:103AC00008600C9908684AF6F832CAF2FD72104490
:103AD0004CF6CD42CCF6CC42A0FB02026FF00300C4
:103AE00000EA9200C8650C98FDF71AFE08900C9841
:103AF000C06D00F01F0101208840089948600AE06D
:103B00000C99402048650C99032081F8350001206C
:103B10008DF837004DE1FFE70C9801680120102275
:103B2000C4F202029142019000F00381FFE70C9879
:103B3000016801202822C4F202029142019000F0A3
:103B4000F880FFE70C98016801204022C4F20202CD
:103B50009142019000F0ED80FFE70C980168012090
:103B60005822C4F202029142019000F0E280FFE785
:103B70000C98016801207022C4F202029142019067
:103B800000F0D780FFE70C98016801208822C4F27A
:103B900002029142019000F0CC80FFE70C9801688E
:103BA0000120A022C4F202029142019000F0C180E3
:103BB000FFE70C9801680120B822C4F2020291428A
:103BC000019000F0B680FFE70C980168012040F2F8
:103BD0001042C4F202029142019000F0AA80FFE775
:103BE0000C980168012040F22842C4F2020291427E
:103BF000019000F09E80FFE70C980168012040F2E0
:103C00004042C4F202029142019000F09280FFE72C
:103C10000C980168012040F25842C4F2020291421D
:103C2000019000F08680FFE70C980168012040F2C7
:103C30007042C4F20202914201907AD0FFE70C98E0
:103C40000168012040F28842C4F2020291420190D0
:103C50006FD0FFE70C980168012040F2A042C4F247
:103C600002029142019064D0FFE70C9801680120A4
:103C700040F2B842C4F202029142019059D0FFE7EB
:103C80000C980168012045F20842C5F602029142F3
:103C900001904ED0FFE70C980168012045F21C42CC
:103CA000C5F602029142019043D0FFE70C980168EB
:103CB000012045F23042C5F602029142019038D00F
:103CC000FFE70C980168012045F24442C5F6020264
:103CD000914201902DD0FFE70C980168012045F238
:103CE0005842C5F602029142019022D0FFE70C989B
:103CF0000168012045F26C42C5F602029142019032
:103D000017D0FFE70C980168012045F28042C5F604
:103D10000202914201900CD0FFE70C9800684AF62D
:103D20006C31CAF2FD710844B0FA80F0400901908C
:103D3000FFE70198C00790B3FFE70C98FDF7D8FDA7
:103D40000C988068802804D1FFE70C990020486017
:103D5000FFE70C990879096E08600C98416E806E37
:103D600048600C98406888B1FFE70C9840680828C4
:103D70000CD8FFE70C98FDF777FE0C98C16E002079
:103D800008600C98016F406F486007E00C990020B4
:103D9000C8660C9908670C994867FFE7FFE70C991C
:103DA000002048650C9A012182F835108DF8370003
:103DB000FFE79DF837000EB010BD000000000000C6
:103DC00080B584B0039001F0EFF802900398019061
:103DD0000198013048B1FFE740F20800C2F200400C
:103DE0000178019808440190FFE7FFE701F0DCF853
:103DF0000299401A0199884201D2FFE7F6E704B020
:103E000080BD00000000000082B00190009102B06F
:103E1000704700000000000081B0009001B07047C2
:103E200082B00190009102B07047000000000000D5
:103E300081B0009001B0704780B594B013904AF6FD
:103E40001000C4F200000068800712904AF61400C7
:103E5000C4F200000168129800EA81701290139871
:103E60000068006D00F47040119013980068416D77
:103E700011980840119013980068006D00F00F0031
:103E8000109013980068416D109808401090139896
:103E90000068006D00F0F0000F9013980068416D0D
:103EA0000F9808400F9013980068006D00F0715053
:103EB0000E9013980068416D0E9808400E9013986C
:103EC0000068006D00F060700D9013980068416DFF
:103ED0000D9808400D9013980068406D039013985A
:103EE0000068006D01909DF80D00C007B8B1FFE7B4
:103EF0009DF80500C00788B1FFE7FFE71398016848
:103F00004FF4807008654AF61001C4F200010020E9
:103F10000860FFE71398FFF78BFFFFE7FFE79DF8C7
:103F20000D0000F004010020B0EB910F28D0FFE756
:103F30009DF8050000F004010020B0EB910F1ED0A9
:103F4000FFE713980068D0F8DC000B901398006826
:103F5000D0F8E4100B9808400B90FFE71398016825
:103F60004FF4806008654AF61001C4F20001002099
:103F70000860FFE713980B9900F04EFDFFE7FFE79D
:103F80001298B8B1FFE7FFE712984FF6FF71C3F63A
:103F9000CF7108401399096808651298800F4AF696
:103FA0001001C4F200010860FFE713981299FFF7AF
:103FB0002BFFFFE71198B8B1FFE7FFE711984FF625
:103FC000FF71C3F6CF71084013990968086511980D
:103FD000800F4AF61001C4F200010860FFE7139851
:103FE000119900F029FDFFE71098B8B1FFE7FFE74E
:103FF00010984FF6FF71C3F6CF7108401399096806
:1040000008651098800F4AF61001C4F2000108609C
:10401000FFE71398109900F0C7FCFFE70F98B8B1BD
:10402000FFE7FFE70F984FF6FF71C3F6CF71084027
:104030001399096808650F98800F4AF61001C4F2B9
:1040400000010860FFE713980F9900F0B5FCFFE747
:104050009DF80D0000F008010020B0EBD10F1BD03F
:10406000FFE79DF8050000F008010020B0EBD10F3C
:1040700011D0FFE7FFE7139801684FF4006008656F
:104080004AF61001C4F2000100200860FFE713980F
:1040900000F0DAFCFFE7FFE79DF80D0000F00201F9
:1040A0000020B0EB510F28D0FFE79DF8050000F08D
:1040B00002010020B0EB510F1ED0FFE713980068FB
:1040C000D0F8D8000C9013980068D0F8E0100C9845
:1040D00008400C90FFE7139801684FF400700865E2
:1040E0004AF61001C4F2000100200860FFE71398AF
:1040F0000C9900F099FCFFE7FFE79DF80E0000F037
:1041000008010020B0EBD10F1BD0FFE79DF806009F
:1041100000F008010020B0EBD10F11D0FFE7FFE75E
:10412000139801684FF4002008654AF61001C4F2A4
:10413000000100200860FFE7139800F031FCFFE762
:10414000FFE79DF80E00C007B8B1FFE79DF8060035
:10415000C00788B1FFE7FFE7139801684FF480308C
:1041600008654AF61001C4F2000100200860FFE76C
:10417000139800F04DFCFFE7FFE79DF80E0000F0FC
:1041800004010020B0EB910F1BD0FFE79DF8060063
:1041900000F004010020B0EB910F11D0FFE7FFE722
:1041A000139801684FF4802008654AF61001C4F2A4
:1041B000000100200860FFE7139800F025FCFFE7EE
:1041C000FFE79DF80E0000F002010020B0EB510F58
:1041D0001FD0FFE79DF8060000F002010020B0EBC1
:1041E000510F15D0FFE7FFE7139801684FF4003037
:1041F00008654AF61001C4F2000100200860FFE7DC
:104200001399D1F89C0040F08000C1F89C00FFE7B2
:10421000FFE70D98B8B1FFE7FFE70D984FF6FF7184
:10422000C3F6CF7108401399096808650D98800F8F
:104230004AF61001C4F200010860FFE713980D99D7
:10424000FFF7EEFDFFE70E98D0B1FFE7FFE70E980E
:104250004FF6FF71C3F6CF710840139909680865DE
:104260000E98800F4AF61001C4F200010860FFE7C3
:104270000E9A1399D1F89C001043C1F89C00FFE7F7
:10428000139800684AF20001C4F20001884240F02D
:10429000B980FFE71398406880688007002800F025
:1042A000B080FFE713984068006A00F00F000A90A2
:1042B00013984068416A0A9808400A901398406829
:1042C000006A00F03000099013984068416A09982C
:1042D0000840099013984068006A00F4C070089084
:1042E00013984068416A08980840089013984068FD
:1042F000006A00F4FC40079013984068416A0798F0
:104300000840079013984068006A00F4F020069077
:1043100013984068416A06980840069013984068D0
:10432000406A029013984068006A00900A9848B169
:10433000FFE70A9813994968086213980A9900F0F0
:104340004BFBFFE7099848B1FFE7099813994968C3
:1043500008621398099900F04FFBFFE79DF80800E9
:1043600000F040010020B0EB911F1FD0FFE79DF847
:10437000000000F040010020B0EB911F15D0FFE7D6
:1043800013984068C06B000C059013984068C06B90
:1043900000F03F0004901398416840200862139891
:1043A0000599049A00F020FBFFE7FFE7089848B161
:1043B000FFE708981399496808621398089900F074
:1043C00003FBFFE7079860B1FFE707981399496877
:1043D0000862079A1399D1F89C001043C1F89C0019
:1043E000FFE7069860B1FFE70698139949680862ED
:1043F000069A1399D1F89C001043C1F89C00FFE77E
:10440000FFE7FFE71398D0F89C0020B1FFE713986F
:10441000FFF702FDFFE714B080BD000000000000C0
:1044200080B598B016904CF69861C0F6000101A8CE
:104430004C22FCF7A3F8169820B9FFE701208DF86D
:104440005F00D9E1169800684AF20001C4F2000149
:10445000884206D1FFE71699086800F58070486029
:10446000FFE716988068B0F5407F01D1FFE7FFE7CE
:104470001698006C08B1FFE7FFE71698806C08B14A
:10448000FFE7FFE71698006D08B1FFE7FFE7169812
:10449000006E08B1FFE7FFE71699C86D096E084482
:1044A00008B1FFE7FFE7169890F8980040B9FFE7DA
:1044B0001699002081F89900169800F0A1F9FFE7FD
:1044C00016980168886920F01000886100F06CFD82
:1044D0001590FFE71698006880690007002817D537
:1044E000FFE700F061FD1599401A0B280FD3FFE795
:1044F0001699D1F89C0040F00100C1F89C00169973
:10450000032081F8980001208DF85F0074E1E1E755
:1045100016980168886940F00100886100F044FD48
:104520001590FFE7169800688069C007B8B9FFE7E3
:1045300000F03AFD1599401A0B280FD3FFE71699A2
:10454000D1F89C0040F00100C1F89C0016990320AE
:1045500081F8980001208DF85F004DE1E2E71698A0
:104560000168886940F0020088611698007C012883
:1045700007D1FFE716980168886920F0400088613C
:1045800006E016980168886940F040008861FFE7FE
:104590001698407C012807D1FFE7169801688869C2
:1045A00040F48040886106E016980168886920F42C
:1045B00080408861FFE71698807C012807D1FFE7DB
:1045C00016980168886920F48050886106E0169882
:1045D0000168886940F480508861FFE71698006898
:1045E000806920F44070169A1168926810438861BF
:1045F00016980168886920F0A400886116980168FF
:10460000086920F0100008611698C068012807D1D9
:10461000FFE716980168886940F0040088612BE084
:104620001698C06830B3FFE71698C068022819D002
:10463000FFE716980168886940F080008861169845
:104640000168086940F0100008611698C0680328E6
:1046500007D1FFE716980168886940F0200088615B
:10466000FFE706E016980168886940F0200088613D
:10467000FFE700E0FFE7FFE7169A116853699069CA
:10468000D2F81CE0A0F1010C6FF0FF0000EB0E204F
:1046900040EA4C60126A013A10430022CFF6FF72E2
:1046A00002EB03421043C86116988068B0F5407F62
:1046B0001CD1FFE7169A1168536A906AD2F82CE071
:1046C00001386FF0FF0C0CEB0E2C40EA0C00D2F816
:1046D00030C06FF00F0202EB0C1210430022CFF635
:1046E000FF7202EB03421043C860FFE71698006EAA
:1046F00048B1FFE716980168426ED1F8C000104338
:10470000C1F8C000FFE71699C86D096E084480B172
:10471000FFE716980068D0F8C80020F00700169A46
:104720001168936E01AA52F823201043C1F8C80003
:10473000FFE71698006C80B1FFE716980068D0F884
:10474000BC0020F00700169A1168536C01AA52F8B9
:1047500023201043C1F8BC00FFE71698806C88B195
:10476000FFE716980068D0F8BC0020F07000169A99
:104770001168D36C01AA52F8232040EA0210C1F854
:10478000BC00FFE71698006D88B1FFE71698006837
:10479000D0F8BC0020F4E060169A1168536D01AAAD
:1047A00052F8232040EA0220C1F8BC00FFE7169827
:1047B00000684AF20001C4F20001884207D1FFE715
:1047C00016984168886820F003008860FFE7169912
:1047D0000020C1F894001699C1F89C001699012098
:1047E00081F898001698FDF79FFA8DF853009DF810
:1047F00053008DF85F00FFE79DF85F0018B080BDA3
:1048000080B5BEB03D9000203C903B903A903990EE
:10481000389008A8C021FBF7E3FE3D9800684AF2F3
:104820000001C4F20001884255D1FFE70020099041
:104830004FF4004008904FF08050249008A801F0F9
:10484000C3FB18B1FFE7FDF757FAFFE740F2780026
:10485000C2F200400168013101600068012810D1F6
:10486000FFE7FFE744F2EC40C5F60200016841F4BF
:1048700080710160006800F4807007900798FFE77E
:10488000FFE7FFE744F2E040C5F60200016841F0AF
:1048900001010160006800F0010006900698FFE742
:1048A0004FF4C050389002203990002002903A9086
:1048B0003B9009203C900020C5F6020038A900F08A
:1048C0006FF9029A13200390114600F0F9FE039845
:1048D00000F0EAFE5FE03D9800684AF20041C4F251
:1048E0000001884256D1FFE7002009904FF40040B4
:1048F00008904FF08050249008A801F065FB18B193
:10490000FFE7FDF7F9F9FFE740F27800C2F2004057
:104910000168013101600068012810D1FFE7FFE75D
:1049200044F2EC40C5F60200016841F48071016078
:10493000006800F4807005900598FFE7FFE7FFE747
:1049400044F2E040C5F60200016841F00201016056
:10495000006800F0020004900498FFE74FF4405014
:10496000389002203990002000903A903B90092026
:104970003C9040F20040C5F6020038A900F010F962
:10498000009A14200190114600F09AFE019800F060
:104990008BFEFFE7FFE73EB080BD00000000000097
:1049A00081B0009001B0704782B00190009102B0D8
:1049B000704700000000000082B00190009102B03A
:1049C000704700000000000082B00190009102B02A
:1049D000704700000000000082B00190009102B01A
:1049E000704700000000000083B002900191009227
:1049F00003B070470000000082B00190009102B047
:104A0000704700000000000081B0009001B07047C6
:104A100081B0009001B0704782B00190009102B067
:104A2000704700000000000082B00190009102B0C9
:104A3000704700000000000082B00190009102B0B9
:104A4000704700000000000081B0009001B0704786
:104A500080B5BEB000203D903C903B903A9039909C
:104A600040F27400C2F20040006808B1FFE793E032
:104A700040F27401C2F200410120086008A80690CB
:104A8000C021FBF7ADFD0698002109914FF080721F
:104A900008921A9101F098FA18B1FFE7FDF72CF986
:104AA000FFE7FFE744F2D440C5F60200016841F495
:104AB00080510160006800F4805007900798FFE77C
:104AC0004FF63F003990022001903A90002002906A
:104AD0003B90032003903C900C2004903D9041F2C9
:104AE0000040C5F6020039A9059100F059F8DDF83B
:104AF00004C0029B039A049805994FF02C0ECDF840
:104B0000E4E0CDF8E8C03B933C923D9041F6004094
:104B1000C5F6020000F044F8DDF804C0029B039AD9
:104B20000498059948F2371ECDF8E4E0CDF8E8C0C6
:104B30003B933C923D9041F60000C5F6020000F028
:104B40002FF8DDF804C0029B039A049805994FF6EC
:104B5000837ECDF8E4E0CDF8E8C03B933C923D90F5
:104B600041F20000C5F6020000F01AF8DDF804C0BA
:104B7000029B039A049805994CF2037ECDF8E4E079
:104B8000CDF8E8C03B933C923D9040F60040C5F61E
:104B9000020000F005F8FFE73EB080BD0000000015
:104BA00090B00F900E9100200D908020C5F600006F
:104BB0000A90FFE70E9800680D99C840002800F0A1
:104BC000CF81FFE70E9800680D9A012191400840BF
:104BD0000C900C98002800F0BF81FFE70E98406809
:104BE00000F00300012807D0FFE70E98406800F0AE
:104BF000030002282FD1FFE70F9880680B900D98D3
:104C00004100032000FA01F10B9888430B900E98A5
:104C1000C0680D99490000FA01F10B9808430B9008
:104C20000B980F9988600F9840680B900D990120A0
:104C300000FA01F10B9888430B900E984068C0F37E
:104C400000100D9900FA01F10B9808430B900B9896
:104C50000F994860FFE70E98406800F003000328B2
:104C600018D0FFE70F98C0680B900D984100032003
:104C700000FA01F10B9888430B900E9880680D990B
:104C8000490000FA01F10B9808430B900B980F991B
:104C9000C860FFE70E98406800F00300022826D1A4
:104CA000FFE70F980D996FF0030202EA51010844E3
:104CB000006A0B900D9800F0070081000F2000FAA9
:104CC00001F10B9888430B900E9800690D9901F043
:104CD0000701890000FA01F10B9808430B900B982B
:104CE0000F990D9B02EA530211440862FFE70F98E7
:104CF00000680B900D984100032000FA01F10B9819
:104D000088430B900E98406800F003000D9949000D
:104D100000FA01F10B9808430B900B980F9908606B
:104D20000E9880798007002800F01581FFE7FFE7E3
:104D300044F2F440C5F60200016841F0020101604E
:104D4000006800F0020009900998FFE70D9820F034
:104D5000030040F20841C5F6000140580B900D9841
:104D600000F0030081000F2000FA01F10B98884346
:104D70000B900F980021C5F60201884203D1FFE78E
:104D8000002008907AE00F9840F20041C5F6020139
:104D9000884203D1FFE7012007906CE00F9840F6AE
:104DA0000001C5F60201884203D1FFE70220069008
:104DB0005EE00F9840F60041C5F60201884203D13B
:104DC000FFE70320059050E00F9841F20001C5F67F
:104DD0000201884203D1FFE70420049042E00F98CB
:104DE00041F20041C5F60201884203D1FFE70520E8
:104DF000039034E00F9841F60001C5F602018842A5
:104E000003D1FFE70620029026E00F9841F600410B
:104E1000C5F60201884203D1FFE70720019018E0A0
:104E20000F9842F20001C5F60201884203D1FFE764
:104E3000082000900AE00F9942F20042C5F60202F3
:104E40000A20914208BF09200090FFE700980190D6
:104E5000FFE701980290FFE702980390FFE70398AD
:104E60000490FFE704980590FFE705980690FFE798
:104E700006980790FFE707980890FFE708980D99B4
:104E800001F00301890000FA01F10B9808430B902F
:104E90000B980D9921F0030140F20842C5F600027B
:104EA00088504FF0B04000680B900C990B988843E5
:104EB0000B900E988079C006002805D5FFE70C9965
:104EC0000B9808430B90FFE70B984FF0B041086038
:104ED0000420C5F6000000680B900C990B988843DD
:104EE0000B900E9880798006002805D5FFE70C9975
:104EF0000B9808430B90FFE70B980421C5F60001BF
:104F000008600A9840680B900C990B9888430B90A6
:104F10000E9880798007002805D5FFE70C990B983B
:104F200008430B90FFE70B980A9948600A980068BD
:104F30000B900C990B9888430B900E988079C007C2
:104F400028B1FFE70C990B9808430B90FFE70B98EB
:104F50000A990860FFE7FFE70D9801300D9029E6F8
:104F600010B070470000000082B00190ADF8021050
:104F70008DF801209DF8010028B1FFE7BDF802007F
:104F80000199886105E0BDF802000004019988617B
:104F9000FFE702B07047000041F20000C5F6004094
:104FA0000068000C7047000040F25C60C2F20040F4
:104FB000006870470000000040F20800C2F20040A4
:104FC000027840F25C61C2F2004108681044086057
:104FD000704700000000000080B582B0032000F0A0
:104FE00087FB02F0E1FA44F21842C5F602021168AA
:104FF000C1F303234CF6E461C0F60001CB5C03F07F
:105000001F03D84000900098126802F00F02895CDC
:1050100001F01F01C84040F20401C2F200410860E3
:10502000009840F20001C2F2004108600F2000F039
:1050300013F820B1FFE701208DF8070005E000F02C
:105040001FFB00208DF80700FFE79DF8070002B066
:1050500080BD00000000000080B582B0009040F2EA
:105060000800C2F20040007820B9FFE701208DF867
:10507000070030E040F20000C2F20040006840F259
:105080000801C2F200410A784FF47A71B1FBF2F1E3
:10509000B0FBF1F004F0D8F820B1FFE701208DF863
:1050A000070018E000980F280DD8FFE700994FF08F
:1050B000FF30002200F004FB009840F20C01C2F225
:1050C0000041086003E001208DF8070003E00020A4
:1050D0008DF80700FFE79DF8070002B080BD0000D3
:1050E000B0B586B0049003910292FFE7049890F85F
:1050F000A000012804D1FFE702208DF8170049E045
:105100000499012081F8A000FFE7FFE7049902203D
:1051100081F8A100049A0298342100FB012100913A
:105120000398019002684368D0F808C0D0F80CE0FA
:1051300004694569CD648C64C1F844E0C1F840C09D
:10514000CB638A638269C369D0F820C0D0F824E0B9
:10515000846AC56A4D660C66C1F85CE0C1F858C047
:105160004B650A65006B886604980399029A04F0FF
:10517000C7FD0498016801204862049981F8A100E4
:10518000FFE70499002081F8A000FFE700208DF8D8
:105190001700FFE79DF8170006B0B0BD0000000043
:1051A00080B584B00290029820B9FFE701208DF805
:1051B0000F009EE0029890F8A10040B9FFE7029925
:1051C000002081F8A000029800F09AF8FFE7029909
:1051D000022081F8A10002980168886920F07040DF
:1051E0008861029A11685068D2F808C0D36840EA12
:1051F0000C001843126902438869104388610298C1
:10520000016888684FF60002CFF200021040886003
:1052100002984069000401900198029B19689B69FB
:10522000034388681843886002980168C868104082
:10523000C8600298C069000401900198029B196837
:105240001B6A0343C8681843C8600298016808696C
:10525000104008610298406A000401900198029B86
:1052600019689B6A0343086918430861029801683A
:105270004869104048610298C06A00040190019892
:10528000029A1168126B0243486910434861029800
:1052900090F8350000020190029890F83600000462
:1052A000009002980168C86A00F07F40C8620098C8
:1052B00001990143029890F834200A430168C86AB2
:1052C0001043C86202980168486B40F006004863CA
:1052D00002980168886940F0010088610299002005
:1052E000C1F8A400029A012182F8A1108DF80F00E4
:1052F000FFE79DF80F0004B080BD00000000000033
:1053000080B5C4B0439000204290419040903F90BF
:105310003E900EA8C021FBF763F94398006841F264
:105320000001C5F20001884240F03C81FFE7002007
:105330000F904FF000510E91012118910622199201
:1053400002221A921B921C914FF440611D914FF45E
:1053500000711E911F900EA800F036FE18B1FFE7F5
:10536000FCF7CAFCFFE7FFE744F2E440C5F60200A1
:10537000016841F008010160006800F008000D902C
:105380000D98FFE7FFE744F2E040C5F60200016830
:1053900041F010010160006800F010000C900C98C2
:1053A000FFE7FFE744F2E040C5F60200016841F480
:1053B00080710160006800F480700B900B98FFE72B
:1053C000FFE744F2E040C5F60200016841F0200129
:1053D0000160006800F020000A900A98FFE7FFE7EC
:1053E00044F2E040C5F60200016841F001010160AD
:1053F000006800F0010009900998FFE7FFE744F218
:10540000E040C5F60200016841F0800101600068DB
:1054100000F0800008900898FFE7FFE744F2E040C2
:10542000C5F60200016841F040010160006800F02B
:10543000400007900798FFE7FFE744F2E040C5F619
:105440000200016841F008010160006800F00800F6
:1054500006900698FFE760203E90022001903F9062
:105460000020029040900320039041900E20049071
:10547000429041F20000C5F602003EA90591FFF7F7
:105480008FFBDDF804C0029B039A0498059940F253
:10549000F76ECDF8F8E0CDF8FCC040934192429011
:1054A00042F20000C5F60200FFF77AFBDDF804C007
:1054B000029B039A049805994FF4806ECDF8F8E0AA
:1054C000CDF8FCC040934192429041F20040C5F6B5
:1054D0000200FFF765FBDDF804C0029B039A049805
:1054E00005994FF0040ECDF8F8E0CDF8FCC04093DC
:1054F000419242900020C5F602000090FFF750FB59
:10550000DDF804C0029B039A049805994FF47F4E7E
:10551000CDF8F8E0CDF8FCC040934192429041F6BE
:105520000040C5F60200FFF73BFBDDF804C0029B1C
:10553000039A0498059947F2C00ECDF8F8E0CDF82B
:10554000FCC040934192429041F60000C5F6020033
:10555000FFF726FB0098DDF804C0029B039A05992B
:105560004FF4807ECDF8F8E0CDF8FCC04093419236
:105570000D224292FFF714FBDDF804C0029B039A50
:10558000049805994FF0400ECDF8F8E0CDF8FCC036
:1055900040934192429040F60040C5F60200FFF76A
:1055A000FFFAFFE744B080BD10B581B000900098CD
:1055B00040784EF69851CEF2000108604EF6A051A8
:1055C000CEF20001086820F00100086000984068F1
:1055D0004EF69C52CEF200021060DDF800E09EF81C
:1055E0000C0000079EF80B2040EA02609EF80020A5
:1055F0009EF808309EF809C09EF80A4040EAC44070
:105600009EF80D4040EA84409EF80E4040EA444037
:105610009EF80FE040EA0E4040EA0C2040EA4300CA
:105620001043086001B010BDBFF35F8F4EF62451E8
:10563000CEF20001086820F4803008604EF69451E4
:10564000CEF200010020086070470000000000005A
:1056500081B00090009840F001004EF69451CEF2D7
:10566000000108604EF62451CEF20001086840F4B3
:1056700080300860BFF34F8FBFF36F8F01B070476A
:1056800081B0FFE744F2F440C5F60200016841F042
:1056900002010160006800F0020000900098FFE73E
:1056A00001B070470000000080B582B0ADF8060080
:1056B000BDF9060006F054FE02B080BD00000000F7
:1056C00080B586B0ADF816000491039206F060FE36
:1056D0000290BDF91600019002980499039A04F013
:1056E00093FF0146019806F05BFE06B080BD000006
:1056F00080B582B00190019806F076FE02B080BDC0
:1057000080B584B0029044F60C00C5F60200006833
:1057100000F004010020B0EB910F13D1FFE744F635
:105720000C00C5F60200006800F0070002998842EC
:1057300004D0FFE701208DF80F002EE000208DF847
:105740000F002AE044F60C01C5F60201086820F0BB
:105750000700029A10430860FFF726FC0190FFE75C
:1057600044F60400C5F60200006800F40051002071
:10577000B0EB513F0DD1FFE7FFF716FC0199401A3E
:10578000B0F57A7F04D9FFE701208DF80F0004E01F
:10579000E6E700208DF80F00FFE79DF80F0004B04A
:1057A00080BD00000000000044F60001C5F60201C3
:1057B000086840F480700860704700000000000036
:1057C00080B586B00490FFF7EFFB0290049820B9F3
:1057D000FFE701208DF817006DE00498006A40286B
:1057E00001D0FFE7FFE7049890F8410048B9FFE7D0
:1057F000049800F065F8049841F2883100F018F937
:10580000FFE704980068006820F4F850049A1168D3
:1058100093686FF0FF0202EB0322104308600498C4
:10582000029B816C6A4611602021002205F084F8F9
:105830008DF80F009DF80F00C0BBFFE704980068CB
:1058400000684FF62F71C0F2FF010840049B1968F1
:10585000D3F804E0DA68D3F81CC042EA0E6242EAE8
:105860000C021B6A1A4310430860049800684068E1
:105870004FF6FE01CFF6E0710840049B1968D3F89B
:1058800010C05A699B6942EA0C421A4310434860AF
:1058900004980168086840F001000860049900203D
:1058A00048640499012081F84100FFE79DF80F004A
:1058B0008DF81700FFE79DF8170006B080BD0000C7
:1058C00080B5C2B04190002040903F903E903D9006
:1058D0003C900CA8C021FAF783FE4198006845F27D
:1058E0000001C5F20021884240F0A080FFE70020BF
:1058F0000D904FF000710C911F900CA800F064FB0C
:1059000018B1FFE7FCF7F8F9FFE7FFE744F2D440EE
:10591000C5F60200016841F480410160006800F4AE
:1059200080400B900B98FFE7FFE744F2E040C5F69C
:105930000200016841F010010160006800F01000F1
:105940000A900A98FFE7FFE744F2E040C5F602003C
:10595000016841F002010160006800F00200099056
:105960000998FFE7FFE744F2E040C5F6020001684E
:1059700041F008010160006800F0080008900898F4
:10598000FFE7042001903C90022003903D9000200E
:1059900004903E90032005903F9009200290409093
:1059A00041F20000C5F602003CA90791FFF7F8F8A4
:1059B0000298DDF80CC0049B059A0799DDF804E015
:1059C000CDF8F0E0CDF8F4C03E933F92409040F225
:1059D0000040C5F602000690FFF7E2F80298DDF8F5
:1059E0000CC0049B059A07994FF4605ECDF8F0E077
:1059F000CDF8F4C03E933F92409040F60040C5F68B
:105A00000200FFF7CDF8DDF80CC0049B059A06985C
:105A100007994FF0400ECDF8F0E0CDF8F4C03E937A
:105A20003F920A224092FFF7BBF8FFE742B080BDE9
:105A300082B00190009100980199886402B070478B
:105A400080B501F05DFD44F22041C5F60201096810
:105A5000C1F302124CF6E461C0F60001895C01F06A
:105A60001F01C84080BD000088B0079044F2284064
:105A7000C5F60200016801F0030106910068C0F359
:105A80000530059044F22C40C5F602000068C0F3D2
:105A900000100490049844F23C41C5F602010968E4
:105AA00089B2C908484300EE100AB8EE400A8DEDED
:105AB000020A0598002800F01B81FFE70698009075
:105AC00048B1FFE70098012869D0FFE70098022855
:105AD00000F08980ABE044F20040C5F602000068A7
